{
  "_format": "hh-sol-artifact-1",
  "contractName": "SupplyChainStep3",
  "sourceName": "contracts/SupplyChainStep3.sol",
  "abi": [
    {
      "anonymous": false,
      "inputs": [
        {
          "indexed": false,
          "internalType": "uint256",
          "name": "uid",
          "type": "uint256"
        }
      ],
      "name": "Manufactured",
      "type": "event"
    },
    {
      "anonymous": false,
      "inputs": [
        {
          "indexed": true,
          "internalType": "address",
          "name": "_account",
          "type": "address"
        }
      ],
      "name": "ManufacturerAdded",
      "type": "event"
    },
    {
      "anonymous": false,
      "inputs": [
        {
          "indexed": false,
          "internalType": "uint256",
          "name": "uid",
          "type": "uint256"
        }
      ],
      "name": "PurchasedByCustomer",
      "type": "event"
    },
    {
      "anonymous": false,
      "inputs": [
        {
          "indexed": false,
          "internalType": "uint256",
          "name": "uid",
          "type": "uint256"
        }
      ],
      "name": "PurchasedByThirdParty",
      "type": "event"
    },
    {
      "anonymous": false,
      "inputs": [
        {
          "indexed": false,
          "internalType": "uint256",
          "name": "uid",
          "type": "uint256"
        }
      ],
      "name": "ReceivedByCustomer",
      "type": "event"
    },
    {
      "anonymous": false,
      "inputs": [
        {
          "indexed": false,
          "internalType": "uint256",
          "name": "uid",
          "type": "uint256"
        }
      ],
      "name": "ReceivedByDeliveryHub",
      "type": "event"
    },
    {
      "anonymous": false,
      "inputs": [
        {
          "indexed": false,
          "internalType": "uint256",
          "name": "uid",
          "type": "uint256"
        }
      ],
      "name": "ReceivedByThirdParty",
      "type": "event"
    },
    {
      "anonymous": false,
      "inputs": [
        {
          "indexed": false,
          "internalType": "uint256",
          "name": "uid",
          "type": "uint256"
        }
      ],
      "name": "ShippedByDeliveryHub",
      "type": "event"
    },
    {
      "anonymous": false,
      "inputs": [
        {
          "indexed": false,
          "internalType": "uint256",
          "name": "uid",
          "type": "uint256"
        }
      ],
      "name": "ShippedByManufacturer",
      "type": "event"
    },
    {
      "anonymous": false,
      "inputs": [
        {
          "indexed": false,
          "internalType": "uint256",
          "name": "uid",
          "type": "uint256"
        }
      ],
      "name": "ShippedByThirdParty",
      "type": "event"
    },
    {
      "inputs": [
        {
          "internalType": "address",
          "name": "_account",
          "type": "address"
        }
      ],
      "name": "addCustomerRole",
      "outputs": [],
      "stateMutability": "nonpayable",
      "type": "function"
    },
    {
      "inputs": [
        {
          "internalType": "address",
          "name": "_account",
          "type": "address"
        }
      ],
      "name": "addDeliveryHubRole",
      "outputs": [],
      "stateMutability": "nonpayable",
      "type": "function"
    },
    {
      "inputs": [
        {
          "internalType": "address",
          "name": "_account",
          "type": "address"
        }
      ],
      "name": "addManufacturerRole",
      "outputs": [],
      "stateMutability": "nonpayable",
      "type": "function"
    },
    {
      "inputs": [
        {
          "internalType": "address",
          "name": "_account",
          "type": "address"
        }
      ],
      "name": "addThirdPartyRole",
      "outputs": [],
      "stateMutability": "nonpayable",
      "type": "function"
    },
    {
      "inputs": [],
      "name": "fetchProductCount",
      "outputs": [
        {
          "internalType": "uint256",
          "name": "",
          "type": "uint256"
        }
      ],
      "stateMutability": "view",
      "type": "function"
    },
    {
      "inputs": [
        {
          "internalType": "uint256",
          "name": "_uid",
          "type": "uint256"
        }
      ],
      "name": "fetchProductHistoryLength",
      "outputs": [
        {
          "internalType": "uint256",
          "name": "",
          "type": "uint256"
        }
      ],
      "stateMutability": "view",
      "type": "function"
    },
    {
      "inputs": [
        {
          "internalType": "uint256",
          "name": "_uid",
          "type": "uint256"
        },
        {
          "internalType": "string",
          "name": "_type",
          "type": "string"
        },
        {
          "internalType": "uint256",
          "name": "i",
          "type": "uint256"
        }
      ],
      "name": "fetchProductPart1",
      "outputs": [
        {
          "internalType": "uint256",
          "name": "",
          "type": "uint256"
        },
        {
          "internalType": "uint256",
          "name": "",
          "type": "uint256"
        },
        {
          "internalType": "address",
          "name": "",
          "type": "address"
        },
        {
          "internalType": "address",
          "name": "",
          "type": "address"
        },
        {
          "internalType": "string",
          "name": "",
          "type": "string"
        },
        {
          "internalType": "string",
          "name": "",
          "type": "string"
        },
        {
          "internalType": "string",
          "name": "",
          "type": "string"
        },
        {
          "internalType": "string",
          "name": "",
          "type": "string"
        }
      ],
      "stateMutability": "view",
      "type": "function"
    },
    {
      "inputs": [
        {
          "internalType": "uint256",
          "name": "_uid",
          "type": "uint256"
        },
        {
          "internalType": "string",
          "name": "_type",
          "type": "string"
        },
        {
          "internalType": "uint256",
          "name": "i",
          "type": "uint256"
        }
      ],
      "name": "fetchProductPart2",
      "outputs": [
        {
          "internalType": "uint256",
          "name": "",
          "type": "uint256"
        },
        {
          "internalType": "string",
          "name": "",
          "type": "string"
        },
        {
          "internalType": "uint256",
          "name": "",
          "type": "uint256"
        },
        {
          "internalType": "uint256",
          "name": "",
          "type": "uint256"
        },
        {
          "internalType": "string",
          "name": "",
          "type": "string"
        },
        {
          "internalType": "enum Structure.State",
          "name": "",
          "type": "uint8"
        },
        {
          "internalType": "address",
          "name": "",
          "type": "address"
        },
        {
          "internalType": "string",
          "name": "",
          "type": "string"
        }
      ],
      "stateMutability": "view",
      "type": "function"
    },
    {
      "inputs": [
        {
          "internalType": "uint256",
          "name": "_uid",
          "type": "uint256"
        },
        {
          "internalType": "string",
          "name": "_type",
          "type": "string"
        },
        {
          "internalType": "uint256",
          "name": "i",
          "type": "uint256"
        }
      ],
      "name": "fetchProductPart3",
      "outputs": [
        {
          "internalType": "string",
          "name": "",
          "type": "string"
        },
        {
          "internalType": "address",
          "name": "",
          "type": "address"
        },
        {
          "internalType": "string",
          "name": "",
          "type": "string"
        },
        {
          "internalType": "string",
          "name": "",
          "type": "string"
        },
        {
          "internalType": "address",
          "name": "",
          "type": "address"
        },
        {
          "internalType": "string",
          "name": "",
          "type": "string"
        }
      ],
      "stateMutability": "view",
      "type": "function"
    },
    {
      "inputs": [
        {
          "internalType": "uint256",
          "name": "_uid",
          "type": "uint256"
        }
      ],
      "name": "fetchProductState",
      "outputs": [
        {
          "internalType": "enum Structure.State",
          "name": "",
          "type": "uint8"
        }
      ],
      "stateMutability": "view",
      "type": "function"
    },
    {
      "inputs": [
        {
          "internalType": "address",
          "name": "_account",
          "type": "address"
        }
      ],
      "name": "hasCustomerRole",
      "outputs": [
        {
          "internalType": "bool",
          "name": "",
          "type": "bool"
        }
      ],
      "stateMutability": "view",
      "type": "function"
    },
    {
      "inputs": [
        {
          "internalType": "address",
          "name": "_account",
          "type": "address"
        }
      ],
      "name": "hasDeliveryHubRole",
      "outputs": [
        {
          "internalType": "bool",
          "name": "",
          "type": "bool"
        }
      ],
      "stateMutability": "view",
      "type": "function"
    },
    {
      "inputs": [
        {
          "internalType": "address",
          "name": "_account",
          "type": "address"
        }
      ],
      "name": "hasManufacturerRole",
      "outputs": [
        {
          "internalType": "bool",
          "name": "",
          "type": "bool"
        }
      ],
      "stateMutability": "view",
      "type": "function"
    },
    {
      "inputs": [
        {
          "internalType": "address",
          "name": "_account",
          "type": "address"
        }
      ],
      "name": "hasThirdPartyRole",
      "outputs": [
        {
          "internalType": "bool",
          "name": "",
          "type": "bool"
        }
      ],
      "stateMutability": "view",
      "type": "function"
    },
    {
      "inputs": [
        {
          "internalType": "uint256",
          "name": "_uid",
          "type": "uint256"
        },
        {
          "internalType": "string",
          "name": "tran",
          "type": "string"
        }
      ],
      "name": "setTransactionHash",
      "outputs": [],
      "stateMutability": "nonpayable",
      "type": "function"
    },
    {
      "inputs": [
        {
          "internalType": "string",
          "name": "tran",
          "type": "string"
        }
      ],
      "name": "setTransactionHashOnManufacture",
      "outputs": [],
      "stateMutability": "nonpayable",
      "type": "function"
    },
    {
      "inputs": [
        {
          "internalType": "uint256",
          "name": "_uid",
          "type": "uint256"
        }
      ],
      "name": "shipToThirdParty",
      "outputs": [],
      "stateMutability": "nonpayable",
      "type": "function"
    },
    {
      "inputs": [],
      "name": "testFunctionCall",
      "outputs": [
        {
          "internalType": "string",
          "name": "",
          "type": "string"
        }
      ],
      "stateMutability": "pure",
      "type": "function"
    },
    {
      "inputs": [],
      "name": "uid",
      "outputs": [
        {
          "internalType": "uint256",
          "name": "",
          "type": "uint256"
        }
      ],
      "stateMutability": "view",
      "type": "function"
    }
  ],
  "bytecode": "0x608060405234801561001057600080fd5b5033600260006101000a81548173ffffffffffffffffffffffffffffffffffffffff021916908373ffffffffffffffffffffffffffffffffffffffff160217905550600180819055506001600081905550612493806100706000396000f3fe608060405234801561001057600080fd5b50600436106101215760003560e01c80638290f859116100ad578063e55128ea11610071578063e55128ea14610375578063f16791b314610391578063f4121b67146103af578063f514ce36146103cb578063fb0c5ea3146103e957610121565b80638290f8591461029457806398c95889146102b0578063cd2885e0146102e5578063d44bebcc14610315578063e2f1fe141461034557610121565b80635212e510116100f45780635212e510146101be5780636000ada1146101da578063658db4971461020a5780636f1fe8d714610241578063786ea1611461027857610121565b8063024edf9a146101265780630a036e2514610156578063405ba7ef14610172578063453dd4af146101a2575b600080fd5b610140600480360381019061013b9190611ddc565b610407565b60405161014d9190611f9f565b60405180910390f35b610170600480360381019061016b9190611e46565b610499565b005b61018c60048036038101906101879190611e46565b610a31565b6040516101999190612074565b60405180910390f35b6101bc60048036038101906101b79190611ddc565b610a54565b005b6101d860048036038101906101d39190611ddc565b610aff565b005b6101f460048036038101906101ef9190611ddc565b610baa565b6040516102019190611f9f565b60405180910390f35b610224600480360381019061021f9190611ec3565b610c3c565b604051610238989796959493929190612122565b60405180910390f35b61025b60048036038101906102569190611ec3565b61104f565b60405161026f98979695949392919061208f565b60405180910390f35b610292600480360381019061028d9190611e6f565b6113cc565b005b6102ae60048036038101906102a99190611ddc565b61146f565b005b6102ca60048036038101906102c59190611ec3565b61151a565b6040516102dc96959493929190611ff7565b60405180910390f35b6102ff60048036038101906102fa9190611ddc565b61191a565b60405161030c9190611f9f565b60405180910390f35b61032f600480360381019061032a9190611ddc565b6119ac565b60405161033c9190611f9f565b60405180910390f35b61035f600480360381019061035a9190611e46565b611a3e565b60405161036c9190611fba565b60405180910390f35b61038f600480360381019061038a9190611e05565b611a6b565b005b610399611b23565b6040516103a69190612074565b60405180910390f35b6103c960048036038101906103c49190611ddc565b611b2c565b005b6103d3611bd7565b6040516103e09190612074565b60405180910390f35b6103f1611bdd565b6040516103fe9190611fd5565b60405180910390f35b60008073ffffffffffffffffffffffffffffffffffffffff168273ffffffffffffffffffffffffffffffffffffffff16141561044257600080fd5b600560008373ffffffffffffffffffffffffffffffffffffffff1673ffffffffffffffffffffffffffffffffffffffff16815260200190815260200160002060000160039054906101000a900460ff169050919050565b6003600082815260200190815260200160002060030160000160009054906101000a900473ffffffffffffffffffffffffffffffffffffffff168073ffffffffffffffffffffffffffffffffffffffff163373ffffffffffffffffffffffffffffffffffffffff161461050b57600080fd5b61051433610baa565b61051d57600080fd5b60026003600084815260200190815260200160002060020160146101000a81548160ff0219169083600881111561057d577f4e487b7100000000000000000000000000000000000000000000000000000000600052602160045260246000fd5b02179055506004600083815260200190815260200160002060000160036000848152602001908152602001600020908060018154018082558091505060019003906000526020600020906015020160009091909190915060008201548160000155600182015481600101556002820160009054906101000a900473ffffffffffffffffffffffffffffffffffffffff168160020160006101000a81548173ffffffffffffffffffffffffffffffffffffffff021916908373ffffffffffffffffffffffffffffffffffffffff1602179055506002820160149054906101000a900460ff168160020160146101000a81548160ff021916908360088111156106ad577f4e487b7100000000000000000000000000000000000000000000000000000000600052602160045260246000fd5b021790555060038201816003016000820160009054906101000a900473ffffffffffffffffffffffffffffffffffffffff168160000160006101000a81548173ffffffffffffffffffffffffffffffffffffffff021916908373ffffffffffffffffffffffffffffffffffffffff16021790555060018201816001019080546107359061231c565b610740929190611c1a565b5060028201816002019080546107559061231c565b610760929190611c1a565b5060038201816003019080546107759061231c565b610780929190611c1a565b5060048201816004019080546107959061231c565b6107a0929190611c1a565b5060058201548160050155505060098201816009016000820160009054906101000a900473ffffffffffffffffffffffffffffffffffffffff168160000160006101000a81548173ffffffffffffffffffffffffffffffffffffffff021916908373ffffffffffffffffffffffffffffffffffffffff16021790555060018201816001019080546108309061231c565b61083b929190611c1a565b5060028201816002019080546108509061231c565b61085b929190611c1a565b505050600c820181600c01600082018160000190805461087a9061231c565b610885929190611c1a565b50600182015481600101556002820154816002015560038201816003019080546108ae9061231c565b6108b9929190611c1a565b50505060108201816010016000820160009054906101000a900473ffffffffffffffffffffffffffffffffffffffff168160000160006101000a81548173ffffffffffffffffffffffffffffffffffffffff021916908373ffffffffffffffffffffffffffffffffffffffff160217905550600182018160010190805461093f9061231c565b61094a929190611c1a565b50600282018160020190805461095f9061231c565b61096a929190611c1a565b5050506013820160009054906101000a900473ffffffffffffffffffffffffffffffffffffffff168160130160006101000a81548173ffffffffffffffffffffffffffffffffffffffff021916908373ffffffffffffffffffffffffffffffffffffffff16021790555060148201816014019080546109e89061231c565b6109f3929190611c1a565b5050507f25727bef8a186dd95a062151451f2d651551b53124c18208d7653b1217ae31ba82604051610a259190612074565b60405180910390a15050565b600060046000838152602001908152602001600020600001805490509050919050565b600073ffffffffffffffffffffffffffffffffffffffff168173ffffffffffffffffffffffffffffffffffffffff161415610a8e57600080fd5b610a97816119ac565b15610aa157600080fd5b6001600560008373ffffffffffffffffffffffffffffffffffffffff1673ffffffffffffffffffffffffffffffffffffffff16815260200190815260200160002060000160036101000a81548160ff02191690831515021790555050565b600073ffffffffffffffffffffffffffffffffffffffff168173ffffffffffffffffffffffffffffffffffffffff161415610b3957600080fd5b610b428161191a565b15610b4c57600080fd5b6001600560008373ffffffffffffffffffffffffffffffffffffffff1673ffffffffffffffffffffffffffffffffffffffff16815260200190815260200160002060000160016101000a81548160ff02191690831515021790555050565b60008073ffffffffffffffffffffffffffffffffffffffff168273ffffffffffffffffffffffffffffffffffffffff161415610be557600080fd5b600560008373ffffffffffffffffffffffffffffffffffffffff1673ffffffffffffffffffffffffffffffffffffffff16815260200190815260200160002060000160009054906101000a900460ff169050919050565b6000806000806060806060806000600360008d8152602001908152602001600020600001541415610c6c57600080fd5b6000600360008d815260200190815260200160002090506040518060400160405280600781526020017f70726f6475637400000000000000000000000000000000000000000000000000815250805190602001208b805190602001201415610ce457600360008d815260200190815260200160002090505b6040518060400160405280600781526020017f686973746f727900000000000000000000000000000000000000000000000000815250805190602001208b805190602001201415610d8e57600460008d81526020019081526020016000206000018a81548110610d7d577f4e487b7100000000000000000000000000000000000000000000000000000000600052603260045260246000fd5b906000526020600020906015020190505b806000015481600101548260020160009054906101000a900473ffffffffffffffffffffffffffffffffffffffff168360030160000160009054906101000a900473ffffffffffffffffffffffffffffffffffffffff1684600301600101856003016002018660030160030187600301600401838054610e0d9061231c565b80601f0160208091040260200160405190810160405280929190818152602001828054610e399061231c565b8015610e865780601f10610e5b57610100808354040283529160200191610e86565b820191906000526020600020905b815481529060010190602001808311610e6957829003601f168201915b50505050509350828054610e999061231c565b80601f0160208091040260200160405190810160405280929190818152602001828054610ec59061231c565b8015610f125780601f10610ee757610100808354040283529160200191610f12565b820191906000526020600020905b815481529060010190602001808311610ef557829003601f168201915b50505050509250818054610f259061231c565b80601f0160208091040260200160405190810160405280929190818152602001828054610f519061231c565b8015610f9e5780601f10610f7357610100808354040283529160200191610f9e565b820191906000526020600020905b815481529060010190602001808311610f8157829003601f168201915b50505050509150808054610fb19061231c565b80601f0160208091040260200160405190810160405280929190818152602001828054610fdd9061231c565b801561102a5780601f10610fff5761010080835404028352916020019161102a565b820191906000526020600020905b81548152906001019060200180831161100d57829003601f168201915b5050505050905098509850985098509850985098509850509397509397509397509397565b60006060600080606060008060606000600360008d815260200190815260200160002060000154141561108157600080fd5b6000600360008d815260200190815260200160002090506040518060400160405280600781526020017f70726f6475637400000000000000000000000000000000000000000000000000815250805190602001208b8051906020012014156110f957600360008d815260200190815260200160002090505b6040518060400160405280600781526020017f686973746f727900000000000000000000000000000000000000000000000000815250805190602001208b8051906020012014156111a357600460008d81526020019081526020016000206000018a81548110611192577f4e487b7100000000000000000000000000000000000000000000000000000000600052603260045260246000fd5b906000526020600020906015020190505b806003016005015481600c0160000182600c016001015483600c016002015484600c016003018560020160149054906101000a900460ff168660090160000160009054906101000a900473ffffffffffffffffffffffffffffffffffffffff16876009016001018680546112169061231c565b80601f01602080910402602001604051908101604052809291908181526020018280546112429061231c565b801561128f5780601f106112645761010080835404028352916020019161128f565b820191906000526020600020905b81548152906001019060200180831161127257829003601f168201915b505050505096508380546112a29061231c565b80601f01602080910402602001604051908101604052809291908181526020018280546112ce9061231c565b801561131b5780601f106112f05761010080835404028352916020019161131b565b820191906000526020600020905b8154815290600101906020018083116112fe57829003601f168201915b5050505050935080805461132e9061231c565b80601f016020809104026020016040519081016040528092919081815260200182805461135a9061231c565b80156113a75780601f1061137c576101008083540402835291602001916113a7565b820191906000526020600020905b81548152906001019060200180831161138a57829003601f168201915b5050505050905098509850985098509850985098509850509397509397509397509397565b6000600460008481526020019081526020016000206000016001600460008681526020019081526020016000206000018054905061140a9190612239565b81548110611441577f4e487b7100000000000000000000000000000000000000000000000000000000600052603260045260246000fd5b9060005260206000209060150201905081816014019080519060200190611469929190611ca7565b50505050565b600073ffffffffffffffffffffffffffffffffffffffff168173ffffffffffffffffffffffffffffffffffffffff1614156114a957600080fd5b6114b281610baa565b156114bc57600080fd5b6001600560008373ffffffffffffffffffffffffffffffffffffffff1673ffffffffffffffffffffffffffffffffffffffff16815260200190815260200160002060000160006101000a81548160ff02191690831515021790555050565b60606000606080600060606000600360008b815260200190815260200160002060000154141561154957600080fd5b6000600360008b815260200190815260200160002090506040518060400160405280600781526020017f70726f647563740000000000000000000000000000000000000000000000000081525080519060200120898051906020012014156115c157600360008b815260200190815260200160002090505b6040518060400160405280600781526020017f686973746f727900000000000000000000000000000000000000000000000000815250805190602001208980519060200120141561166b57600460008b8152602001908152602001600020600001888154811061165a577f4e487b7100000000000000000000000000000000000000000000000000000000600052603260045260246000fd5b906000526020600020906015020190505b806009016002018160100160000160009054906101000a900473ffffffffffffffffffffffffffffffffffffffff1682601001600101836010016002018460130160009054906101000a900473ffffffffffffffffffffffffffffffffffffffff16856014018580546116dd9061231c565b80601f01602080910402602001604051908101604052809291908181526020018280546117099061231c565b80156117565780601f1061172b57610100808354040283529160200191611756565b820191906000526020600020905b81548152906001019060200180831161173957829003601f168201915b505050505095508380546117699061231c565b80601f01602080910402602001604051908101604052809291908181526020018280546117959061231c565b80156117e25780601f106117b7576101008083540402835291602001916117e2565b820191906000526020600020905b8154815290600101906020018083116117c557829003601f168201915b505050505093508280546117f59061231c565b80601f01602080910402602001604051908101604052809291908181526020018280546118219061231c565b801561186e5780601f106118435761010080835404028352916020019161186e565b820191906000526020600020905b81548152906001019060200180831161185157829003601f168201915b505050505092508080546118819061231c565b80601f01602080910402602001604051908101604052809291908181526020018280546118ad9061231c565b80156118fa5780601f106118cf576101008083540402835291602001916118fa565b820191906000526020600020905b8154815290600101906020018083116118dd57829003601f168201915b505050505090509650965096509650965096505093975093979195509350565b60008073ffffffffffffffffffffffffffffffffffffffff168273ffffffffffffffffffffffffffffffffffffffff16141561195557600080fd5b600560008373ffffffffffffffffffffffffffffffffffffffff1673ffffffffffffffffffffffffffffffffffffffff16815260200190815260200160002060000160019054906101000a900460ff169050919050565b60008073ffffffffffffffffffffffffffffffffffffffff168273ffffffffffffffffffffffffffffffffffffffff1614156119e757600080fd5b600560008373ffffffffffffffffffffffffffffffffffffffff1673ffffffffffffffffffffffffffffffffffffffff16815260200190815260200160002060000160029054906101000a900460ff169050919050565b60006003600083815260200190815260200160002060020160149054906101000a900460ff169050919050565b80600460006001600054611a7f9190612239565b81526020019081526020016000206000016001600460006001600054611aa59190612239565b815260200190815260200160002060000180549050611ac49190612239565b81548110611afb577f4e487b7100000000000000000000000000000000000000000000000000000000600052603260045260246000fd5b90600052602060002090601502016014019080519060200190611b1f929190611ca7565b5050565b60008054905090565b600073ffffffffffffffffffffffffffffffffffffffff168173ffffffffffffffffffffffffffffffffffffffff161415611b6657600080fd5b611b6f816119ac565b15611b7957600080fd5b6001600560008373ffffffffffffffffffffffffffffffffffffffff1673ffffffffffffffffffffffffffffffffffffffff16815260200190815260200160002060000160026101000a81548160ff02191690831515021790555050565b60005481565b60606040518060400160405280601d81526020017f48656c6c6f2066726f6d207465737446756e6374696f6e43616c6c2829000000815250905090565b828054611c269061231c565b90600052602060002090601f016020900481019282611c485760008555611c96565b82601f10611c595780548555611c96565b82800160010185558215611c9657600052602060002091601f016020900482015b82811115611c95578254825591600101919060010190611c7a565b5b509050611ca39190611d2d565b5090565b828054611cb39061231c565b90600052602060002090601f016020900481019282611cd55760008555611d1c565b82601f10611cee57805160ff1916838001178555611d1c565b82800160010185558215611d1c579182015b82811115611d1b578251825591602001919060010190611d00565b5b509050611d299190611d2d565b5090565b5b80821115611d46576000816000905550600101611d2e565b5090565b6000611d5d611d58846121ed565b6121bc565b905082815260208101848484011115611d7557600080fd5b611d808482856122da565b509392505050565b600081359050611d978161242f565b92915050565b600082601f830112611dae57600080fd5b8135611dbe848260208601611d4a565b91505092915050565b600081359050611dd681612446565b92915050565b600060208284031215611dee57600080fd5b6000611dfc84828501611d88565b91505092915050565b600060208284031215611e1757600080fd5b600082013567ffffffffffffffff811115611e3157600080fd5b611e3d84828501611d9d565b91505092915050565b600060208284031215611e5857600080fd5b6000611e6684828501611dc7565b91505092915050565b60008060408385031215611e8257600080fd5b6000611e9085828601611dc7565b925050602083013567ffffffffffffffff811115611ead57600080fd5b611eb985828601611d9d565b9150509250929050565b600080600060608486031215611ed857600080fd5b6000611ee686828701611dc7565b935050602084013567ffffffffffffffff811115611f0357600080fd5b611f0f86828701611d9d565b9250506040611f2086828701611dc7565b9150509250925092565b611f338161226d565b82525050565b611f428161227f565b82525050565b611f51816122c8565b82525050565b6000611f628261221d565b611f6c8185612228565b9350611f7c8185602086016122e9565b611f858161240a565b840191505092915050565b611f99816122be565b82525050565b6000602082019050611fb46000830184611f39565b92915050565b6000602082019050611fcf6000830184611f48565b92915050565b60006020820190508181036000830152611fef8184611f57565b905092915050565b600060c08201905081810360008301526120118189611f57565b90506120206020830188611f2a565b81810360408301526120328187611f57565b905081810360608301526120468186611f57565b90506120556080830185611f2a565b81810360a08301526120678184611f57565b9050979650505050505050565b60006020820190506120896000830184611f90565b92915050565b6000610100820190506120a5600083018b611f90565b81810360208301526120b7818a611f57565b90506120c66040830189611f90565b6120d36060830188611f90565b81810360808301526120e58187611f57565b90506120f460a0830186611f48565b61210160c0830185611f2a565b81810360e08301526121138184611f57565b90509998505050505050505050565b600061010082019050612138600083018b611f90565b612145602083018a611f90565b6121526040830189611f2a565b61215f6060830188611f2a565b81810360808301526121718187611f57565b905081810360a08301526121858186611f57565b905081810360c08301526121998185611f57565b905081810360e08301526121ad8184611f57565b90509998505050505050505050565b6000604051905081810181811067ffffffffffffffff821117156121e3576121e26123db565b5b8060405250919050565b600067ffffffffffffffff821115612208576122076123db565b5b601f19601f8301169050602081019050919050565b600081519050919050565b600082825260208201905092915050565b6000612244826122be565b915061224f836122be565b9250828210156122625761226161234e565b5b828203905092915050565b60006122788261229e565b9050919050565b60008115159050919050565b60008190506122998261241b565b919050565b600073ffffffffffffffffffffffffffffffffffffffff82169050919050565b6000819050919050565b60006122d38261228b565b9050919050565b82818337600083830152505050565b60005b838110156123075780820151818401526020810190506122ec565b83811115612316576000848401525b50505050565b6000600282049050600182168061233457607f821691505b60208210811415612348576123476123ac565b5b50919050565b7f4e487b7100000000000000000000000000000000000000000000000000000000600052601160045260246000fd5b7f4e487b7100000000000000000000000000000000000000000000000000000000600052602160045260246000fd5b7f4e487b7100000000000000000000000000000000000000000000000000000000600052602260045260246000fd5b7f4e487b7100000000000000000000000000000000000000000000000000000000600052604160045260246000fd5b6000601f19601f8301169050919050565b6009811061242c5761242b61237d565b5b50565b6124388161226d565b811461244357600080fd5b50565b61244f816122be565b811461245a57600080fd5b5056fea2646970667358221220c501b5304ced34897794ec47844d9a8cdff0d3bc41b65de60b8d68f34b1b99ed64736f6c63430008000033",
  "linkReferences": {},
  "deployedLinkReferences": {}
}