{
  "_format": "hh-sol-artifact-1",
  "contractName": "SupplyChainStep2",
  "sourceName": "contracts/SupplyChainStep2.sol",
  "abi": [
    {
      "anonymous": false,
      "inputs": [
        {
          "indexed": false,
          "internalType": "uint256",
          "name": "uid",
          "type": "uint256"
        }
      ],
      "name": "Manufactured",
      "type": "event"
    },
    {
      "anonymous": false,
      "inputs": [
        {
          "indexed": true,
          "internalType": "address",
          "name": "_account",
          "type": "address"
        }
      ],
      "name": "ManufacturerAdded",
      "type": "event"
    },
    {
      "anonymous": false,
      "inputs": [
        {
          "indexed": false,
          "internalType": "uint256",
          "name": "uid",
          "type": "uint256"
        }
      ],
      "name": "PurchasedByCustomer",
      "type": "event"
    },
    {
      "anonymous": false,
      "inputs": [
        {
          "indexed": false,
          "internalType": "uint256",
          "name": "uid",
          "type": "uint256"
        }
      ],
      "name": "PurchasedByThirdParty",
      "type": "event"
    },
    {
      "anonymous": false,
      "inputs": [
        {
          "indexed": false,
          "internalType": "uint256",
          "name": "uid",
          "type": "uint256"
        }
      ],
      "name": "ReceivedByCustomer",
      "type": "event"
    },
    {
      "anonymous": false,
      "inputs": [
        {
          "indexed": false,
          "internalType": "uint256",
          "name": "uid",
          "type": "uint256"
        }
      ],
      "name": "ReceivedByDeliveryHub",
      "type": "event"
    },
    {
      "anonymous": false,
      "inputs": [
        {
          "indexed": false,
          "internalType": "uint256",
          "name": "uid",
          "type": "uint256"
        }
      ],
      "name": "ReceivedByThirdParty",
      "type": "event"
    },
    {
      "anonymous": false,
      "inputs": [
        {
          "indexed": false,
          "internalType": "uint256",
          "name": "uid",
          "type": "uint256"
        }
      ],
      "name": "ShippedByDeliveryHub",
      "type": "event"
    },
    {
      "anonymous": false,
      "inputs": [
        {
          "indexed": false,
          "internalType": "uint256",
          "name": "uid",
          "type": "uint256"
        }
      ],
      "name": "ShippedByManufacturer",
      "type": "event"
    },
    {
      "anonymous": false,
      "inputs": [
        {
          "indexed": false,
          "internalType": "uint256",
          "name": "uid",
          "type": "uint256"
        }
      ],
      "name": "ShippedByThirdParty",
      "type": "event"
    },
    {
      "inputs": [
        {
          "internalType": "address",
          "name": "_account",
          "type": "address"
        }
      ],
      "name": "addCustomerRole",
      "outputs": [],
      "stateMutability": "nonpayable",
      "type": "function"
    },
    {
      "inputs": [
        {
          "internalType": "address",
          "name": "_account",
          "type": "address"
        }
      ],
      "name": "addDeliveryHubRole",
      "outputs": [],
      "stateMutability": "nonpayable",
      "type": "function"
    },
    {
      "inputs": [
        {
          "internalType": "address",
          "name": "_account",
          "type": "address"
        }
      ],
      "name": "addManufacturerRole",
      "outputs": [],
      "stateMutability": "nonpayable",
      "type": "function"
    },
    {
      "inputs": [
        {
          "internalType": "address",
          "name": "_account",
          "type": "address"
        }
      ],
      "name": "addThirdPartyRole",
      "outputs": [],
      "stateMutability": "nonpayable",
      "type": "function"
    },
    {
      "inputs": [],
      "name": "fetchProductCount",
      "outputs": [
        {
          "internalType": "uint256",
          "name": "",
          "type": "uint256"
        }
      ],
      "stateMutability": "view",
      "type": "function"
    },
    {
      "inputs": [
        {
          "internalType": "uint256",
          "name": "_uid",
          "type": "uint256"
        }
      ],
      "name": "fetchProductHistoryLength",
      "outputs": [
        {
          "internalType": "uint256",
          "name": "",
          "type": "uint256"
        }
      ],
      "stateMutability": "view",
      "type": "function"
    },
    {
      "inputs": [
        {
          "internalType": "uint256",
          "name": "_uid",
          "type": "uint256"
        },
        {
          "internalType": "string",
          "name": "_type",
          "type": "string"
        },
        {
          "internalType": "uint256",
          "name": "i",
          "type": "uint256"
        }
      ],
      "name": "fetchProductPart1",
      "outputs": [
        {
          "internalType": "uint256",
          "name": "",
          "type": "uint256"
        },
        {
          "internalType": "uint256",
          "name": "",
          "type": "uint256"
        },
        {
          "internalType": "address",
          "name": "",
          "type": "address"
        },
        {
          "internalType": "address",
          "name": "",
          "type": "address"
        },
        {
          "internalType": "string",
          "name": "",
          "type": "string"
        },
        {
          "internalType": "string",
          "name": "",
          "type": "string"
        },
        {
          "internalType": "string",
          "name": "",
          "type": "string"
        },
        {
          "internalType": "string",
          "name": "",
          "type": "string"
        }
      ],
      "stateMutability": "view",
      "type": "function"
    },
    {
      "inputs": [
        {
          "internalType": "uint256",
          "name": "_uid",
          "type": "uint256"
        },
        {
          "internalType": "string",
          "name": "_type",
          "type": "string"
        },
        {
          "internalType": "uint256",
          "name": "i",
          "type": "uint256"
        }
      ],
      "name": "fetchProductPart2",
      "outputs": [
        {
          "internalType": "uint256",
          "name": "",
          "type": "uint256"
        },
        {
          "internalType": "string",
          "name": "",
          "type": "string"
        },
        {
          "internalType": "uint256",
          "name": "",
          "type": "uint256"
        },
        {
          "internalType": "uint256",
          "name": "",
          "type": "uint256"
        },
        {
          "internalType": "string",
          "name": "",
          "type": "string"
        },
        {
          "internalType": "enum Structure.State",
          "name": "",
          "type": "uint8"
        },
        {
          "internalType": "address",
          "name": "",
          "type": "address"
        },
        {
          "internalType": "string",
          "name": "",
          "type": "string"
        }
      ],
      "stateMutability": "view",
      "type": "function"
    },
    {
      "inputs": [
        {
          "internalType": "uint256",
          "name": "_uid",
          "type": "uint256"
        },
        {
          "internalType": "string",
          "name": "_type",
          "type": "string"
        },
        {
          "internalType": "uint256",
          "name": "i",
          "type": "uint256"
        }
      ],
      "name": "fetchProductPart3",
      "outputs": [
        {
          "internalType": "string",
          "name": "",
          "type": "string"
        },
        {
          "internalType": "address",
          "name": "",
          "type": "address"
        },
        {
          "internalType": "string",
          "name": "",
          "type": "string"
        },
        {
          "internalType": "string",
          "name": "",
          "type": "string"
        },
        {
          "internalType": "address",
          "name": "",
          "type": "address"
        },
        {
          "internalType": "string",
          "name": "",
          "type": "string"
        }
      ],
      "stateMutability": "view",
      "type": "function"
    },
    {
      "inputs": [
        {
          "internalType": "uint256",
          "name": "_uid",
          "type": "uint256"
        }
      ],
      "name": "fetchProductState",
      "outputs": [
        {
          "internalType": "enum Structure.State",
          "name": "",
          "type": "uint8"
        }
      ],
      "stateMutability": "view",
      "type": "function"
    },
    {
      "inputs": [
        {
          "internalType": "address",
          "name": "_account",
          "type": "address"
        }
      ],
      "name": "hasCustomerRole",
      "outputs": [
        {
          "internalType": "bool",
          "name": "",
          "type": "bool"
        }
      ],
      "stateMutability": "view",
      "type": "function"
    },
    {
      "inputs": [
        {
          "internalType": "address",
          "name": "_account",
          "type": "address"
        }
      ],
      "name": "hasDeliveryHubRole",
      "outputs": [
        {
          "internalType": "bool",
          "name": "",
          "type": "bool"
        }
      ],
      "stateMutability": "view",
      "type": "function"
    },
    {
      "inputs": [
        {
          "internalType": "address",
          "name": "_account",
          "type": "address"
        }
      ],
      "name": "hasManufacturerRole",
      "outputs": [
        {
          "internalType": "bool",
          "name": "",
          "type": "bool"
        }
      ],
      "stateMutability": "view",
      "type": "function"
    },
    {
      "inputs": [
        {
          "internalType": "address",
          "name": "_account",
          "type": "address"
        }
      ],
      "name": "hasThirdPartyRole",
      "outputs": [
        {
          "internalType": "bool",
          "name": "",
          "type": "bool"
        }
      ],
      "stateMutability": "view",
      "type": "function"
    },
    {
      "inputs": [
        {
          "internalType": "uint256",
          "name": "_uid",
          "type": "uint256"
        }
      ],
      "name": "purchaseByThirdParty",
      "outputs": [],
      "stateMutability": "nonpayable",
      "type": "function"
    },
    {
      "inputs": [
        {
          "internalType": "uint256",
          "name": "_uid",
          "type": "uint256"
        },
        {
          "internalType": "string",
          "name": "tran",
          "type": "string"
        }
      ],
      "name": "setTransactionHash",
      "outputs": [],
      "stateMutability": "nonpayable",
      "type": "function"
    },
    {
      "inputs": [
        {
          "internalType": "string",
          "name": "tran",
          "type": "string"
        }
      ],
      "name": "setTransactionHashOnManufacture",
      "outputs": [],
      "stateMutability": "nonpayable",
      "type": "function"
    },
    {
      "inputs": [],
      "name": "testFunctionCall",
      "outputs": [
        {
          "internalType": "string",
          "name": "",
          "type": "string"
        }
      ],
      "stateMutability": "pure",
      "type": "function"
    },
    {
      "inputs": [],
      "name": "uid",
      "outputs": [
        {
          "internalType": "uint256",
          "name": "",
          "type": "uint256"
        }
      ],
      "stateMutability": "view",
      "type": "function"
    }
  ],
  "bytecode": "0x608060405234801561001057600080fd5b5033600260006101000a81548173ffffffffffffffffffffffffffffffffffffffff021916908373ffffffffffffffffffffffffffffffffffffffff16021790555060018081905550600160008190555061251a806100706000396000f3fe608060405234801561001057600080fd5b50600436106101215760003560e01c806398c95889116100ad578063e55128ea11610071578063e55128ea14610375578063f16791b314610391578063f4121b67146103af578063f514ce36146103cb578063fb0c5ea3146103e957610121565b806398c9588914610294578063b843bdee146102c9578063cd2885e0146102e5578063d44bebcc14610315578063e2f1fe141461034557610121565b80636000ada1116100f45780636000ada1146101be578063658db497146101ee5780636f1fe8d714610225578063786ea1611461025c5780638290f8591461027857610121565b8063024edf9a14610126578063405ba7ef14610156578063453dd4af146101865780635212e510146101a2575b600080fd5b610140600480360381019061013b9190611e63565b610407565b60405161014d9190612026565b60405180910390f35b610170600480360381019061016b9190611ecd565b610499565b60405161017d91906120fb565b60405180910390f35b6101a0600480360381019061019b9190611e63565b6104bc565b005b6101bc60048036038101906101b79190611e63565b610567565b005b6101d860048036038101906101d39190611e63565b610612565b6040516101e59190612026565b60405180910390f35b61020860048036038101906102039190611f4a565b6106a4565b60405161021c9897969594939291906121a9565b60405180910390f35b61023f600480360381019061023a9190611f4a565b610ab7565b604051610253989796959493929190612116565b60405180910390f35b61027660048036038101906102719190611ef6565b610e34565b005b610292600480360381019061028d9190611e63565b610ed7565b005b6102ae60048036038101906102a99190611f4a565b610f82565b6040516102c09695949392919061207e565b60405180910390f35b6102e360048036038101906102de9190611ecd565b611382565b005b6102ff60048036038101906102fa9190611e63565b6119a1565b60405161030c9190612026565b60405180910390f35b61032f600480360381019061032a9190611e63565b611a33565b60405161033c9190612026565b60405180910390f35b61035f600480360381019061035a9190611ecd565b611ac5565b60405161036c9190612041565b60405180910390f35b61038f600480360381019061038a9190611e8c565b611af2565b005b610399611baa565b6040516103a691906120fb565b60405180910390f35b6103c960048036038101906103c49190611e63565b611bb3565b005b6103d3611c5e565b6040516103e091906120fb565b60405180910390f35b6103f1611c64565b6040516103fe919061205c565b60405180910390f35b60008073ffffffffffffffffffffffffffffffffffffffff168273ffffffffffffffffffffffffffffffffffffffff16141561044257600080fd5b600560008373ffffffffffffffffffffffffffffffffffffffff1673ffffffffffffffffffffffffffffffffffffffff16815260200190815260200160002060000160039054906101000a900460ff169050919050565b600060046000838152602001908152602001600020600001805490509050919050565b600073ffffffffffffffffffffffffffffffffffffffff168173ffffffffffffffffffffffffffffffffffffffff1614156104f657600080fd5b6104ff81611a33565b1561050957600080fd5b6001600560008373ffffffffffffffffffffffffffffffffffffffff1673ffffffffffffffffffffffffffffffffffffffff16815260200190815260200160002060000160036101000a81548160ff02191690831515021790555050565b600073ffffffffffffffffffffffffffffffffffffffff168173ffffffffffffffffffffffffffffffffffffffff1614156105a157600080fd5b6105aa816119a1565b156105b457600080fd5b6001600560008373ffffffffffffffffffffffffffffffffffffffff1673ffffffffffffffffffffffffffffffffffffffff16815260200190815260200160002060000160016101000a81548160ff02191690831515021790555050565b60008073ffffffffffffffffffffffffffffffffffffffff168273ffffffffffffffffffffffffffffffffffffffff16141561064d57600080fd5b600560008373ffffffffffffffffffffffffffffffffffffffff1673ffffffffffffffffffffffffffffffffffffffff16815260200190815260200160002060000160009054906101000a900460ff169050919050565b6000806000806060806060806000600360008d81526020019081526020016000206000015414156106d457600080fd5b6000600360008d815260200190815260200160002090506040518060400160405280600781526020017f70726f6475637400000000000000000000000000000000000000000000000000815250805190602001208b80519060200120141561074c57600360008d815260200190815260200160002090505b6040518060400160405280600781526020017f686973746f727900000000000000000000000000000000000000000000000000815250805190602001208b8051906020012014156107f657600460008d81526020019081526020016000206000018a815481106107e5577f4e487b7100000000000000000000000000000000000000000000000000000000600052603260045260246000fd5b906000526020600020906015020190505b806000015481600101548260020160009054906101000a900473ffffffffffffffffffffffffffffffffffffffff168360030160000160009054906101000a900473ffffffffffffffffffffffffffffffffffffffff1684600301600101856003016002018660030160030187600301600401838054610875906123a3565b80601f01602080910402602001604051908101604052809291908181526020018280546108a1906123a3565b80156108ee5780601f106108c3576101008083540402835291602001916108ee565b820191906000526020600020905b8154815290600101906020018083116108d157829003601f168201915b50505050509350828054610901906123a3565b80601f016020809104026020016040519081016040528092919081815260200182805461092d906123a3565b801561097a5780601f1061094f5761010080835404028352916020019161097a565b820191906000526020600020905b81548152906001019060200180831161095d57829003601f168201915b5050505050925081805461098d906123a3565b80601f01602080910402602001604051908101604052809291908181526020018280546109b9906123a3565b8015610a065780601f106109db57610100808354040283529160200191610a06565b820191906000526020600020905b8154815290600101906020018083116109e957829003601f168201915b50505050509150808054610a19906123a3565b80601f0160208091040260200160405190810160405280929190818152602001828054610a45906123a3565b8015610a925780601f10610a6757610100808354040283529160200191610a92565b820191906000526020600020905b815481529060010190602001808311610a7557829003601f168201915b5050505050905098509850985098509850985098509850509397509397509397509397565b60006060600080606060008060606000600360008d8152602001908152602001600020600001541415610ae957600080fd5b6000600360008d815260200190815260200160002090506040518060400160405280600781526020017f70726f6475637400000000000000000000000000000000000000000000000000815250805190602001208b805190602001201415610b6157600360008d815260200190815260200160002090505b6040518060400160405280600781526020017f686973746f727900000000000000000000000000000000000000000000000000815250805190602001208b805190602001201415610c0b57600460008d81526020019081526020016000206000018a81548110610bfa577f4e487b7100000000000000000000000000000000000000000000000000000000600052603260045260246000fd5b906000526020600020906015020190505b806003016005015481600c0160000182600c016001015483600c016002015484600c016003018560020160149054906101000a900460ff168660090160000160009054906101000a900473ffffffffffffffffffffffffffffffffffffffff1687600901600101868054610c7e906123a3565b80601f0160208091040260200160405190810160405280929190818152602001828054610caa906123a3565b8015610cf75780601f10610ccc57610100808354040283529160200191610cf7565b820191906000526020600020905b815481529060010190602001808311610cda57829003601f168201915b50505050509650838054610d0a906123a3565b80601f0160208091040260200160405190810160405280929190818152602001828054610d36906123a3565b8015610d835780601f10610d5857610100808354040283529160200191610d83565b820191906000526020600020905b815481529060010190602001808311610d6657829003601f168201915b50505050509350808054610d96906123a3565b80601f0160208091040260200160405190810160405280929190818152602001828054610dc2906123a3565b8015610e0f5780601f10610de457610100808354040283529160200191610e0f565b820191906000526020600020905b815481529060010190602001808311610df257829003601f168201915b5050505050905098509850985098509850985098509850509397509397509397509397565b60006004600084815260200190815260200160002060000160016004600086815260200190815260200160002060000180549050610e7291906122c0565b81548110610ea9577f4e487b7100000000000000000000000000000000000000000000000000000000600052603260045260246000fd5b9060005260206000209060150201905081816014019080519060200190610ed1929190611ca1565b50505050565b600073ffffffffffffffffffffffffffffffffffffffff168173ffffffffffffffffffffffffffffffffffffffff161415610f1157600080fd5b610f1a81610612565b15610f2457600080fd5b6001600560008373ffffffffffffffffffffffffffffffffffffffff1673ffffffffffffffffffffffffffffffffffffffff16815260200190815260200160002060000160006101000a81548160ff02191690831515021790555050565b60606000606080600060606000600360008b8152602001908152602001600020600001541415610fb157600080fd5b6000600360008b815260200190815260200160002090506040518060400160405280600781526020017f70726f6475637400000000000000000000000000000000000000000000000000815250805190602001208980519060200120141561102957600360008b815260200190815260200160002090505b6040518060400160405280600781526020017f686973746f72790000000000000000000000000000000000000000000000000081525080519060200120898051906020012014156110d357600460008b815260200190815260200160002060000188815481106110c2577f4e487b7100000000000000000000000000000000000000000000000000000000600052603260045260246000fd5b906000526020600020906015020190505b806009016002018160100160000160009054906101000a900473ffffffffffffffffffffffffffffffffffffffff1682601001600101836010016002018460130160009054906101000a900473ffffffffffffffffffffffffffffffffffffffff1685601401858054611145906123a3565b80601f0160208091040260200160405190810160405280929190818152602001828054611171906123a3565b80156111be5780601f10611193576101008083540402835291602001916111be565b820191906000526020600020905b8154815290600101906020018083116111a157829003601f168201915b505050505095508380546111d1906123a3565b80601f01602080910402602001604051908101604052809291908181526020018280546111fd906123a3565b801561124a5780601f1061121f5761010080835404028352916020019161124a565b820191906000526020600020905b81548152906001019060200180831161122d57829003601f168201915b5050505050935082805461125d906123a3565b80601f0160208091040260200160405190810160405280929190818152602001828054611289906123a3565b80156112d65780601f106112ab576101008083540402835291602001916112d6565b820191906000526020600020905b8154815290600101906020018083116112b957829003601f168201915b505050505092508080546112e9906123a3565b80601f0160208091040260200160405190810160405280929190818152602001828054611315906123a3565b80156113625780601f1061133757610100808354040283529160200191611362565b820191906000526020600020905b81548152906001019060200180831161134557829003601f168201915b505050505090509650965096509650965096505093975093979195509350565b80600060088111156113bd577f4e487b7100000000000000000000000000000000000000000000000000000000600052602160045260246000fd5b6003600083815260200190815260200160002060020160149054906101000a900460ff166008811115611419577f4e487b7100000000000000000000000000000000000000000000000000000000600052602160045260246000fd5b1461142357600080fd5b61142c336119a1565b61143557600080fd5b336003600084815260200190815260200160002060090160000160006101000a81548173ffffffffffffffffffffffffffffffffffffffff021916908373ffffffffffffffffffffffffffffffffffffffff16021790555060016003600084815260200190815260200160002060020160146101000a81548160ff021916908360088111156114ed577f4e487b7100000000000000000000000000000000000000000000000000000000600052602160045260246000fd5b02179055506004600083815260200190815260200160002060000160036000848152602001908152602001600020908060018154018082558091505060019003906000526020600020906015020160009091909190915060008201548160000155600182015481600101556002820160009054906101000a900473ffffffffffffffffffffffffffffffffffffffff168160020160006101000a81548173ffffffffffffffffffffffffffffffffffffffff021916908373ffffffffffffffffffffffffffffffffffffffff1602179055506002820160149054906101000a900460ff168160020160146101000a81548160ff0219169083600881111561161d577f4e487b7100000000000000000000000000000000000000000000000000000000600052602160045260246000fd5b021790555060038201816003016000820160009054906101000a900473ffffffffffffffffffffffffffffffffffffffff168160000160006101000a81548173ffffffffffffffffffffffffffffffffffffffff021916908373ffffffffffffffffffffffffffffffffffffffff16021790555060018201816001019080546116a5906123a3565b6116b0929190611d27565b5060028201816002019080546116c5906123a3565b6116d0929190611d27565b5060038201816003019080546116e5906123a3565b6116f0929190611d27565b506004820181600401908054611705906123a3565b611710929190611d27565b5060058201548160050155505060098201816009016000820160009054906101000a900473ffffffffffffffffffffffffffffffffffffffff168160000160006101000a81548173ffffffffffffffffffffffffffffffffffffffff021916908373ffffffffffffffffffffffffffffffffffffffff16021790555060018201816001019080546117a0906123a3565b6117ab929190611d27565b5060028201816002019080546117c0906123a3565b6117cb929190611d27565b505050600c820181600c0160008201816000019080546117ea906123a3565b6117f5929190611d27565b506001820154816001015560028201548160020155600382018160030190805461181e906123a3565b611829929190611d27565b50505060108201816010016000820160009054906101000a900473ffffffffffffffffffffffffffffffffffffffff168160000160006101000a81548173ffffffffffffffffffffffffffffffffffffffff021916908373ffffffffffffffffffffffffffffffffffffffff16021790555060018201816001019080546118af906123a3565b6118ba929190611d27565b5060028201816002019080546118cf906123a3565b6118da929190611d27565b5050506013820160009054906101000a900473ffffffffffffffffffffffffffffffffffffffff168160130160006101000a81548173ffffffffffffffffffffffffffffffffffffffff021916908373ffffffffffffffffffffffffffffffffffffffff1602179055506014820181601401908054611958906123a3565b611963929190611d27565b5050507f112c8adc962c1de46b0ae9499cd428dc90feb4c13a4df0c69d7e5e27ab34ae878260405161199591906120fb565b60405180910390a15050565b60008073ffffffffffffffffffffffffffffffffffffffff168273ffffffffffffffffffffffffffffffffffffffff1614156119dc57600080fd5b600560008373ffffffffffffffffffffffffffffffffffffffff1673ffffffffffffffffffffffffffffffffffffffff16815260200190815260200160002060000160019054906101000a900460ff169050919050565b60008073ffffffffffffffffffffffffffffffffffffffff168273ffffffffffffffffffffffffffffffffffffffff161415611a6e57600080fd5b600560008373ffffffffffffffffffffffffffffffffffffffff1673ffffffffffffffffffffffffffffffffffffffff16815260200190815260200160002060000160029054906101000a900460ff169050919050565b60006003600083815260200190815260200160002060020160149054906101000a900460ff169050919050565b80600460006001600054611b0691906122c0565b81526020019081526020016000206000016001600460006001600054611b2c91906122c0565b815260200190815260200160002060000180549050611b4b91906122c0565b81548110611b82577f4e487b7100000000000000000000000000000000000000000000000000000000600052603260045260246000fd5b90600052602060002090601502016014019080519060200190611ba6929190611ca1565b5050565b60008054905090565b600073ffffffffffffffffffffffffffffffffffffffff168173ffffffffffffffffffffffffffffffffffffffff161415611bed57600080fd5b611bf681611a33565b15611c0057600080fd5b6001600560008373ffffffffffffffffffffffffffffffffffffffff1673ffffffffffffffffffffffffffffffffffffffff16815260200190815260200160002060000160026101000a81548160ff02191690831515021790555050565b60005481565b60606040518060400160405280601d81526020017f48656c6c6f2066726f6d207465737446756e6374696f6e43616c6c2829000000815250905090565b828054611cad906123a3565b90600052602060002090601f016020900481019282611ccf5760008555611d16565b82601f10611ce857805160ff1916838001178555611d16565b82800160010185558215611d16579182015b82811115611d15578251825591602001919060010190611cfa565b5b509050611d239190611db4565b5090565b828054611d33906123a3565b90600052602060002090601f016020900481019282611d555760008555611da3565b82601f10611d665780548555611da3565b82800160010185558215611da357600052602060002091601f016020900482015b82811115611da2578254825591600101919060010190611d87565b5b509050611db09190611db4565b5090565b5b80821115611dcd576000816000905550600101611db5565b5090565b6000611de4611ddf84612274565b612243565b905082815260208101848484011115611dfc57600080fd5b611e07848285612361565b509392505050565b600081359050611e1e816124b6565b92915050565b600082601f830112611e3557600080fd5b8135611e45848260208601611dd1565b91505092915050565b600081359050611e5d816124cd565b92915050565b600060208284031215611e7557600080fd5b6000611e8384828501611e0f565b91505092915050565b600060208284031215611e9e57600080fd5b600082013567ffffffffffffffff811115611eb857600080fd5b611ec484828501611e24565b91505092915050565b600060208284031215611edf57600080fd5b6000611eed84828501611e4e565b91505092915050565b60008060408385031215611f0957600080fd5b6000611f1785828601611e4e565b925050602083013567ffffffffffffffff811115611f3457600080fd5b611f4085828601611e24565b9150509250929050565b600080600060608486031215611f5f57600080fd5b6000611f6d86828701611e4e565b935050602084013567ffffffffffffffff811115611f8a57600080fd5b611f9686828701611e24565b9250506040611fa786828701611e4e565b9150509250925092565b611fba816122f4565b82525050565b611fc981612306565b82525050565b611fd88161234f565b82525050565b6000611fe9826122a4565b611ff381856122af565b9350612003818560208601612370565b61200c81612491565b840191505092915050565b61202081612345565b82525050565b600060208201905061203b6000830184611fc0565b92915050565b60006020820190506120566000830184611fcf565b92915050565b600060208201905081810360008301526120768184611fde565b905092915050565b600060c08201905081810360008301526120988189611fde565b90506120a76020830188611fb1565b81810360408301526120b98187611fde565b905081810360608301526120cd8186611fde565b90506120dc6080830185611fb1565b81810360a08301526120ee8184611fde565b9050979650505050505050565b60006020820190506121106000830184612017565b92915050565b60006101008201905061212c600083018b612017565b818103602083015261213e818a611fde565b905061214d6040830189612017565b61215a6060830188612017565b818103608083015261216c8187611fde565b905061217b60a0830186611fcf565b61218860c0830185611fb1565b81810360e083015261219a8184611fde565b90509998505050505050505050565b6000610100820190506121bf600083018b612017565b6121cc602083018a612017565b6121d96040830189611fb1565b6121e66060830188611fb1565b81810360808301526121f88187611fde565b905081810360a083015261220c8186611fde565b905081810360c08301526122208185611fde565b905081810360e08301526122348184611fde565b90509998505050505050505050565b6000604051905081810181811067ffffffffffffffff8211171561226a57612269612462565b5b8060405250919050565b600067ffffffffffffffff82111561228f5761228e612462565b5b601f19601f8301169050602081019050919050565b600081519050919050565b600082825260208201905092915050565b60006122cb82612345565b91506122d683612345565b9250828210156122e9576122e86123d5565b5b828203905092915050565b60006122ff82612325565b9050919050565b60008115159050919050565b6000819050612320826124a2565b919050565b600073ffffffffffffffffffffffffffffffffffffffff82169050919050565b6000819050919050565b600061235a82612312565b9050919050565b82818337600083830152505050565b60005b8381101561238e578082015181840152602081019050612373565b8381111561239d576000848401525b50505050565b600060028204905060018216806123bb57607f821691505b602082108114156123cf576123ce612433565b5b50919050565b7f4e487b7100000000000000000000000000000000000000000000000000000000600052601160045260246000fd5b7f4e487b7100000000000000000000000000000000000000000000000000000000600052602160045260246000fd5b7f4e487b7100000000000000000000000000000000000000000000000000000000600052602260045260246000fd5b7f4e487b7100000000000000000000000000000000000000000000000000000000600052604160045260246000fd5b6000601f19601f8301169050919050565b600981106124b3576124b2612404565b5b50565b6124bf816122f4565b81146124ca57600080fd5b50565b6124d681612345565b81146124e157600080fd5b5056fea2646970667358221220c604a9defcc745c220832aa5d3f08e4b34d36b10048f665d0f1e343e7ac132c964736f6c63430008000033",
  "linkReferences": {},
  "deployedLinkReferences": {}
}