{
  "_format": "hh-sol-artifact-1",
  "contractName": "SupplyChainStep7",
  "sourceName": "contracts/SupplyChainStep7.sol",
  "abi": [
    {
      "anonymous": false,
      "inputs": [
        {
          "indexed": false,
          "internalType": "uint256",
          "name": "uid",
          "type": "uint256"
        }
      ],
      "name": "Manufactured",
      "type": "event"
    },
    {
      "anonymous": false,
      "inputs": [
        {
          "indexed": true,
          "internalType": "address",
          "name": "_account",
          "type": "address"
        }
      ],
      "name": "ManufacturerAdded",
      "type": "event"
    },
    {
      "anonymous": false,
      "inputs": [
        {
          "indexed": false,
          "internalType": "uint256",
          "name": "uid",
          "type": "uint256"
        }
      ],
      "name": "PurchasedByCustomer",
      "type": "event"
    },
    {
      "anonymous": false,
      "inputs": [
        {
          "indexed": false,
          "internalType": "uint256",
          "name": "uid",
          "type": "uint256"
        }
      ],
      "name": "PurchasedByThirdParty",
      "type": "event"
    },
    {
      "anonymous": false,
      "inputs": [
        {
          "indexed": false,
          "internalType": "uint256",
          "name": "uid",
          "type": "uint256"
        }
      ],
      "name": "ReceivedByCustomer",
      "type": "event"
    },
    {
      "anonymous": false,
      "inputs": [
        {
          "indexed": false,
          "internalType": "uint256",
          "name": "uid",
          "type": "uint256"
        }
      ],
      "name": "ReceivedByDeliveryHub",
      "type": "event"
    },
    {
      "anonymous": false,
      "inputs": [
        {
          "indexed": false,
          "internalType": "uint256",
          "name": "uid",
          "type": "uint256"
        }
      ],
      "name": "ReceivedByThirdParty",
      "type": "event"
    },
    {
      "anonymous": false,
      "inputs": [
        {
          "indexed": false,
          "internalType": "uint256",
          "name": "uid",
          "type": "uint256"
        }
      ],
      "name": "ShippedByDeliveryHub",
      "type": "event"
    },
    {
      "anonymous": false,
      "inputs": [
        {
          "indexed": false,
          "internalType": "uint256",
          "name": "uid",
          "type": "uint256"
        }
      ],
      "name": "ShippedByManufacturer",
      "type": "event"
    },
    {
      "anonymous": false,
      "inputs": [
        {
          "indexed": false,
          "internalType": "uint256",
          "name": "uid",
          "type": "uint256"
        }
      ],
      "name": "ShippedByThirdParty",
      "type": "event"
    },
    {
      "inputs": [
        {
          "internalType": "address",
          "name": "_account",
          "type": "address"
        }
      ],
      "name": "addCustomerRole",
      "outputs": [],
      "stateMutability": "nonpayable",
      "type": "function"
    },
    {
      "inputs": [
        {
          "internalType": "address",
          "name": "_account",
          "type": "address"
        }
      ],
      "name": "addDeliveryHubRole",
      "outputs": [],
      "stateMutability": "nonpayable",
      "type": "function"
    },
    {
      "inputs": [
        {
          "internalType": "address",
          "name": "_account",
          "type": "address"
        }
      ],
      "name": "addManufacturerRole",
      "outputs": [],
      "stateMutability": "nonpayable",
      "type": "function"
    },
    {
      "inputs": [
        {
          "internalType": "address",
          "name": "_account",
          "type": "address"
        }
      ],
      "name": "addThirdPartyRole",
      "outputs": [],
      "stateMutability": "nonpayable",
      "type": "function"
    },
    {
      "inputs": [],
      "name": "fetchProductCount",
      "outputs": [
        {
          "internalType": "uint256",
          "name": "",
          "type": "uint256"
        }
      ],
      "stateMutability": "view",
      "type": "function"
    },
    {
      "inputs": [
        {
          "internalType": "uint256",
          "name": "_uid",
          "type": "uint256"
        }
      ],
      "name": "fetchProductHistoryLength",
      "outputs": [
        {
          "internalType": "uint256",
          "name": "",
          "type": "uint256"
        }
      ],
      "stateMutability": "view",
      "type": "function"
    },
    {
      "inputs": [
        {
          "internalType": "uint256",
          "name": "_uid",
          "type": "uint256"
        },
        {
          "internalType": "string",
          "name": "_type",
          "type": "string"
        },
        {
          "internalType": "uint256",
          "name": "i",
          "type": "uint256"
        }
      ],
      "name": "fetchProductPart1",
      "outputs": [
        {
          "internalType": "uint256",
          "name": "",
          "type": "uint256"
        },
        {
          "internalType": "uint256",
          "name": "",
          "type": "uint256"
        },
        {
          "internalType": "address",
          "name": "",
          "type": "address"
        },
        {
          "internalType": "address",
          "name": "",
          "type": "address"
        },
        {
          "internalType": "string",
          "name": "",
          "type": "string"
        },
        {
          "internalType": "string",
          "name": "",
          "type": "string"
        },
        {
          "internalType": "string",
          "name": "",
          "type": "string"
        },
        {
          "internalType": "string",
          "name": "",
          "type": "string"
        }
      ],
      "stateMutability": "view",
      "type": "function"
    },
    {
      "inputs": [
        {
          "internalType": "uint256",
          "name": "_uid",
          "type": "uint256"
        },
        {
          "internalType": "string",
          "name": "_type",
          "type": "string"
        },
        {
          "internalType": "uint256",
          "name": "i",
          "type": "uint256"
        }
      ],
      "name": "fetchProductPart2",
      "outputs": [
        {
          "internalType": "uint256",
          "name": "",
          "type": "uint256"
        },
        {
          "internalType": "string",
          "name": "",
          "type": "string"
        },
        {
          "internalType": "uint256",
          "name": "",
          "type": "uint256"
        },
        {
          "internalType": "uint256",
          "name": "",
          "type": "uint256"
        },
        {
          "internalType": "string",
          "name": "",
          "type": "string"
        },
        {
          "internalType": "enum Structure.State",
          "name": "",
          "type": "uint8"
        },
        {
          "internalType": "address",
          "name": "",
          "type": "address"
        },
        {
          "internalType": "string",
          "name": "",
          "type": "string"
        }
      ],
      "stateMutability": "view",
      "type": "function"
    },
    {
      "inputs": [
        {
          "internalType": "uint256",
          "name": "_uid",
          "type": "uint256"
        },
        {
          "internalType": "string",
          "name": "_type",
          "type": "string"
        },
        {
          "internalType": "uint256",
          "name": "i",
          "type": "uint256"
        }
      ],
      "name": "fetchProductPart3",
      "outputs": [
        {
          "internalType": "string",
          "name": "",
          "type": "string"
        },
        {
          "internalType": "address",
          "name": "",
          "type": "address"
        },
        {
          "internalType": "string",
          "name": "",
          "type": "string"
        },
        {
          "internalType": "string",
          "name": "",
          "type": "string"
        },
        {
          "internalType": "address",
          "name": "",
          "type": "address"
        },
        {
          "internalType": "string",
          "name": "",
          "type": "string"
        }
      ],
      "stateMutability": "view",
      "type": "function"
    },
    {
      "inputs": [
        {
          "internalType": "uint256",
          "name": "_uid",
          "type": "uint256"
        }
      ],
      "name": "fetchProductState",
      "outputs": [
        {
          "internalType": "enum Structure.State",
          "name": "",
          "type": "uint8"
        }
      ],
      "stateMutability": "view",
      "type": "function"
    },
    {
      "inputs": [
        {
          "internalType": "address",
          "name": "_account",
          "type": "address"
        }
      ],
      "name": "hasCustomerRole",
      "outputs": [
        {
          "internalType": "bool",
          "name": "",
          "type": "bool"
        }
      ],
      "stateMutability": "view",
      "type": "function"
    },
    {
      "inputs": [
        {
          "internalType": "address",
          "name": "_account",
          "type": "address"
        }
      ],
      "name": "hasDeliveryHubRole",
      "outputs": [
        {
          "internalType": "bool",
          "name": "",
          "type": "bool"
        }
      ],
      "stateMutability": "view",
      "type": "function"
    },
    {
      "inputs": [
        {
          "internalType": "address",
          "name": "_account",
          "type": "address"
        }
      ],
      "name": "hasManufacturerRole",
      "outputs": [
        {
          "internalType": "bool",
          "name": "",
          "type": "bool"
        }
      ],
      "stateMutability": "view",
      "type": "function"
    },
    {
      "inputs": [
        {
          "internalType": "address",
          "name": "_account",
          "type": "address"
        }
      ],
      "name": "hasThirdPartyRole",
      "outputs": [
        {
          "internalType": "bool",
          "name": "",
          "type": "bool"
        }
      ],
      "stateMutability": "view",
      "type": "function"
    },
    {
      "inputs": [
        {
          "internalType": "uint256",
          "name": "_uid",
          "type": "uint256"
        },
        {
          "internalType": "string",
          "name": "deliveryHubLongitude",
          "type": "string"
        },
        {
          "internalType": "string",
          "name": "deliveryHubLatitude",
          "type": "string"
        }
      ],
      "name": "receiveByDeliveryHub",
      "outputs": [],
      "stateMutability": "nonpayable",
      "type": "function"
    },
    {
      "inputs": [
        {
          "internalType": "uint256",
          "name": "_uid",
          "type": "uint256"
        },
        {
          "internalType": "string",
          "name": "tran",
          "type": "string"
        }
      ],
      "name": "setTransactionHash",
      "outputs": [],
      "stateMutability": "nonpayable",
      "type": "function"
    },
    {
      "inputs": [
        {
          "internalType": "string",
          "name": "tran",
          "type": "string"
        }
      ],
      "name": "setTransactionHashOnManufacture",
      "outputs": [],
      "stateMutability": "nonpayable",
      "type": "function"
    },
    {
      "inputs": [],
      "name": "testFunctionCall",
      "outputs": [
        {
          "internalType": "string",
          "name": "",
          "type": "string"
        }
      ],
      "stateMutability": "pure",
      "type": "function"
    },
    {
      "inputs": [],
      "name": "uid",
      "outputs": [
        {
          "internalType": "uint256",
          "name": "",
          "type": "uint256"
        }
      ],
      "stateMutability": "view",
      "type": "function"
    }
  ],
  "bytecode": "0x608060405234801561001057600080fd5b5033600260006101000a81548173ffffffffffffffffffffffffffffffffffffffff021916908373ffffffffffffffffffffffffffffffffffffffff16021790555060018081905550600160008190555061264c806100706000396000f3fe608060405234801561001057600080fd5b50600436106101215760003560e01c80638eee90ea116100ad578063e55128ea11610071578063e55128ea14610375578063f16791b314610391578063f4121b67146103af578063f514ce36146103cb578063fb0c5ea3146103e957610121565b80638eee90ea1461029457806398c95889146102b0578063cd2885e0146102e5578063d44bebcc14610315578063e2f1fe141461034557610121565b80636000ada1116100f45780636000ada1146101be578063658db497146101ee5780636f1fe8d714610225578063786ea1611461025c5780638290f8591461027857610121565b8063024edf9a14610126578063405ba7ef14610156578063453dd4af146101865780635212e510146101a2575b600080fd5b610140600480360381019061013b9190611f16565b610407565b60405161014d9190612158565b60405180910390f35b610170600480360381019061016b9190611f80565b610499565b60405161017d919061222d565b60405180910390f35b6101a0600480360381019061019b9190611f16565b6104bc565b005b6101bc60048036038101906101b79190611f16565b610567565b005b6101d860048036038101906101d39190611f16565b610612565b6040516101e59190612158565b60405180910390f35b6102086004803603810190610203919061207c565b6106a4565b60405161021c9897969594939291906122db565b60405180910390f35b61023f600480360381019061023a919061207c565b610ab7565b604051610253989796959493929190612248565b60405180910390f35b61027660048036038101906102719190611fa9565b610e34565b005b610292600480360381019061028d9190611f16565b610ed7565b005b6102ae60048036038101906102a99190611ffd565b610f82565b005b6102ca60048036038101906102c5919061207c565b611654565b6040516102dc969594939291906121b0565b60405180910390f35b6102ff60048036038101906102fa9190611f16565b611a54565b60405161030c9190612158565b60405180910390f35b61032f600480360381019061032a9190611f16565b611ae6565b60405161033c9190612158565b60405180910390f35b61035f600480360381019061035a9190611f80565b611b78565b60405161036c9190612173565b60405180910390f35b61038f600480360381019061038a9190611f3f565b611ba5565b005b610399611c5d565b6040516103a6919061222d565b60405180910390f35b6103c960048036038101906103c49190611f16565b611c66565b005b6103d3611d11565b6040516103e0919061222d565b60405180910390f35b6103f1611d17565b6040516103fe919061218e565b60405180910390f35b60008073ffffffffffffffffffffffffffffffffffffffff168273ffffffffffffffffffffffffffffffffffffffff16141561044257600080fd5b600560008373ffffffffffffffffffffffffffffffffffffffff1673ffffffffffffffffffffffffffffffffffffffff16815260200190815260200160002060000160039054906101000a900460ff169050919050565b600060046000838152602001908152602001600020600001805490509050919050565b600073ffffffffffffffffffffffffffffffffffffffff168173ffffffffffffffffffffffffffffffffffffffff1614156104f657600080fd5b6104ff81611ae6565b1561050957600080fd5b6001600560008373ffffffffffffffffffffffffffffffffffffffff1673ffffffffffffffffffffffffffffffffffffffff16815260200190815260200160002060000160036101000a81548160ff02191690831515021790555050565b600073ffffffffffffffffffffffffffffffffffffffff168173ffffffffffffffffffffffffffffffffffffffff1614156105a157600080fd5b6105aa81611a54565b156105b457600080fd5b6001600560008373ffffffffffffffffffffffffffffffffffffffff1673ffffffffffffffffffffffffffffffffffffffff16815260200190815260200160002060000160016101000a81548160ff02191690831515021790555050565b60008073ffffffffffffffffffffffffffffffffffffffff168273ffffffffffffffffffffffffffffffffffffffff16141561064d57600080fd5b600560008373ffffffffffffffffffffffffffffffffffffffff1673ffffffffffffffffffffffffffffffffffffffff16815260200190815260200160002060000160009054906101000a900460ff169050919050565b6000806000806060806060806000600360008d81526020019081526020016000206000015414156106d457600080fd5b6000600360008d815260200190815260200160002090506040518060400160405280600781526020017f70726f6475637400000000000000000000000000000000000000000000000000815250805190602001208b80519060200120141561074c57600360008d815260200190815260200160002090505b6040518060400160405280600781526020017f686973746f727900000000000000000000000000000000000000000000000000815250805190602001208b8051906020012014156107f657600460008d81526020019081526020016000206000018a815481106107e5577f4e487b7100000000000000000000000000000000000000000000000000000000600052603260045260246000fd5b906000526020600020906015020190505b806000015481600101548260020160009054906101000a900473ffffffffffffffffffffffffffffffffffffffff168360030160000160009054906101000a900473ffffffffffffffffffffffffffffffffffffffff1684600301600101856003016002018660030160030187600301600401838054610875906124d5565b80601f01602080910402602001604051908101604052809291908181526020018280546108a1906124d5565b80156108ee5780601f106108c3576101008083540402835291602001916108ee565b820191906000526020600020905b8154815290600101906020018083116108d157829003601f168201915b50505050509350828054610901906124d5565b80601f016020809104026020016040519081016040528092919081815260200182805461092d906124d5565b801561097a5780601f1061094f5761010080835404028352916020019161097a565b820191906000526020600020905b81548152906001019060200180831161095d57829003601f168201915b5050505050925081805461098d906124d5565b80601f01602080910402602001604051908101604052809291908181526020018280546109b9906124d5565b8015610a065780601f106109db57610100808354040283529160200191610a06565b820191906000526020600020905b8154815290600101906020018083116109e957829003601f168201915b50505050509150808054610a19906124d5565b80601f0160208091040260200160405190810160405280929190818152602001828054610a45906124d5565b8015610a925780601f10610a6757610100808354040283529160200191610a92565b820191906000526020600020905b815481529060010190602001808311610a7557829003601f168201915b5050505050905098509850985098509850985098509850509397509397509397509397565b60006060600080606060008060606000600360008d8152602001908152602001600020600001541415610ae957600080fd5b6000600360008d815260200190815260200160002090506040518060400160405280600781526020017f70726f6475637400000000000000000000000000000000000000000000000000815250805190602001208b805190602001201415610b6157600360008d815260200190815260200160002090505b6040518060400160405280600781526020017f686973746f727900000000000000000000000000000000000000000000000000815250805190602001208b805190602001201415610c0b57600460008d81526020019081526020016000206000018a81548110610bfa577f4e487b7100000000000000000000000000000000000000000000000000000000600052603260045260246000fd5b906000526020600020906015020190505b806003016005015481600c0160000182600c016001015483600c016002015484600c016003018560020160149054906101000a900460ff168660090160000160009054906101000a900473ffffffffffffffffffffffffffffffffffffffff1687600901600101868054610c7e906124d5565b80601f0160208091040260200160405190810160405280929190818152602001828054610caa906124d5565b8015610cf75780601f10610ccc57610100808354040283529160200191610cf7565b820191906000526020600020905b815481529060010190602001808311610cda57829003601f168201915b50505050509650838054610d0a906124d5565b80601f0160208091040260200160405190810160405280929190818152602001828054610d36906124d5565b8015610d835780601f10610d5857610100808354040283529160200191610d83565b820191906000526020600020905b815481529060010190602001808311610d6657829003601f168201915b50505050509350808054610d96906124d5565b80601f0160208091040260200160405190810160405280929190818152602001828054610dc2906124d5565b8015610e0f5780601f10610de457610100808354040283529160200191610e0f565b820191906000526020600020905b815481529060010190602001808311610df257829003601f168201915b5050505050905098509850985098509850985098509850509397509397509397509397565b60006004600084815260200190815260200160002060000160016004600086815260200190815260200160002060000180549050610e7291906123f2565b81548110610ea9577f4e487b7100000000000000000000000000000000000000000000000000000000600052603260045260246000fd5b9060005260206000209060150201905081816014019080519060200190610ed1929190611d54565b50505050565b600073ffffffffffffffffffffffffffffffffffffffff168173ffffffffffffffffffffffffffffffffffffffff161415610f1157600080fd5b610f1a81610612565b15610f2457600080fd5b6001600560008373ffffffffffffffffffffffffffffffffffffffff1673ffffffffffffffffffffffffffffffffffffffff16815260200190815260200160002060000160006101000a81548160ff02191690831515021790555050565b8260056008811115610fbd577f4e487b7100000000000000000000000000000000000000000000000000000000600052602160045260246000fd5b6003600083815260200190815260200160002060020160149054906101000a900460ff166008811115611019577f4e487b7100000000000000000000000000000000000000000000000000000000600052602160045260246000fd5b1461102357600080fd5b61102c33611ae6565b61103557600080fd5b336003600086815260200190815260200160002060020160006101000a81548173ffffffffffffffffffffffffffffffffffffffff021916908373ffffffffffffffffffffffffffffffffffffffff160217905550336003600086815260200190815260200160002060100160000160006101000a81548173ffffffffffffffffffffffffffffffffffffffff021916908373ffffffffffffffffffffffffffffffffffffffff1602179055508260036000868152602001908152602001600020601001600101908051906020019061110f929190611d54565b508160036000868152602001908152602001600020601001600201908051906020019061113d929190611d54565b5060066003600086815260200190815260200160002060020160146101000a81548160ff0219169083600881111561119e577f4e487b7100000000000000000000000000000000000000000000000000000000600052602160045260246000fd5b02179055506004600085815260200190815260200160002060000160036000868152602001908152602001600020908060018154018082558091505060019003906000526020600020906015020160009091909190915060008201548160000155600182015481600101556002820160009054906101000a900473ffffffffffffffffffffffffffffffffffffffff168160020160006101000a81548173ffffffffffffffffffffffffffffffffffffffff021916908373ffffffffffffffffffffffffffffffffffffffff1602179055506002820160149054906101000a900460ff168160020160146101000a81548160ff021916908360088111156112ce577f4e487b7100000000000000000000000000000000000000000000000000000000600052602160045260246000fd5b021790555060038201816003016000820160009054906101000a900473ffffffffffffffffffffffffffffffffffffffff168160000160006101000a81548173ffffffffffffffffffffffffffffffffffffffff021916908373ffffffffffffffffffffffffffffffffffffffff1602179055506001820181600101908054611356906124d5565b611361929190611dda565b506002820181600201908054611376906124d5565b611381929190611dda565b506003820181600301908054611396906124d5565b6113a1929190611dda565b5060048201816004019080546113b6906124d5565b6113c1929190611dda565b5060058201548160050155505060098201816009016000820160009054906101000a900473ffffffffffffffffffffffffffffffffffffffff168160000160006101000a81548173ffffffffffffffffffffffffffffffffffffffff021916908373ffffffffffffffffffffffffffffffffffffffff1602179055506001820181600101908054611451906124d5565b61145c929190611dda565b506002820181600201908054611471906124d5565b61147c929190611dda565b505050600c820181600c01600082018160000190805461149b906124d5565b6114a6929190611dda565b50600182015481600101556002820154816002015560038201816003019080546114cf906124d5565b6114da929190611dda565b50505060108201816010016000820160009054906101000a900473ffffffffffffffffffffffffffffffffffffffff168160000160006101000a81548173ffffffffffffffffffffffffffffffffffffffff021916908373ffffffffffffffffffffffffffffffffffffffff1602179055506001820181600101908054611560906124d5565b61156b929190611dda565b506002820181600201908054611580906124d5565b61158b929190611dda565b5050506013820160009054906101000a900473ffffffffffffffffffffffffffffffffffffffff168160130160006101000a81548173ffffffffffffffffffffffffffffffffffffffff021916908373ffffffffffffffffffffffffffffffffffffffff1602179055506014820181601401908054611609906124d5565b611614929190611dda565b5050507fb6589947d486bf61c31a4e6d2e81d4d2c93e7832fdda27f2492009b4755c29ed84604051611646919061222d565b60405180910390a150505050565b60606000606080600060606000600360008b815260200190815260200160002060000154141561168357600080fd5b6000600360008b815260200190815260200160002090506040518060400160405280600781526020017f70726f647563740000000000000000000000000000000000000000000000000081525080519060200120898051906020012014156116fb57600360008b815260200190815260200160002090505b6040518060400160405280600781526020017f686973746f72790000000000000000000000000000000000000000000000000081525080519060200120898051906020012014156117a557600460008b81526020019081526020016000206000018881548110611794577f4e487b7100000000000000000000000000000000000000000000000000000000600052603260045260246000fd5b906000526020600020906015020190505b806009016002018160100160000160009054906101000a900473ffffffffffffffffffffffffffffffffffffffff1682601001600101836010016002018460130160009054906101000a900473ffffffffffffffffffffffffffffffffffffffff1685601401858054611817906124d5565b80601f0160208091040260200160405190810160405280929190818152602001828054611843906124d5565b80156118905780601f1061186557610100808354040283529160200191611890565b820191906000526020600020905b81548152906001019060200180831161187357829003601f168201915b505050505095508380546118a3906124d5565b80601f01602080910402602001604051908101604052809291908181526020018280546118cf906124d5565b801561191c5780601f106118f15761010080835404028352916020019161191c565b820191906000526020600020905b8154815290600101906020018083116118ff57829003601f168201915b5050505050935082805461192f906124d5565b80601f016020809104026020016040519081016040528092919081815260200182805461195b906124d5565b80156119a85780601f1061197d576101008083540402835291602001916119a8565b820191906000526020600020905b81548152906001019060200180831161198b57829003601f168201915b505050505092508080546119bb906124d5565b80601f01602080910402602001604051908101604052809291908181526020018280546119e7906124d5565b8015611a345780601f10611a0957610100808354040283529160200191611a34565b820191906000526020600020905b815481529060010190602001808311611a1757829003601f168201915b505050505090509650965096509650965096505093975093979195509350565b60008073ffffffffffffffffffffffffffffffffffffffff168273ffffffffffffffffffffffffffffffffffffffff161415611a8f57600080fd5b600560008373ffffffffffffffffffffffffffffffffffffffff1673ffffffffffffffffffffffffffffffffffffffff16815260200190815260200160002060000160019054906101000a900460ff169050919050565b60008073ffffffffffffffffffffffffffffffffffffffff168273ffffffffffffffffffffffffffffffffffffffff161415611b2157600080fd5b600560008373ffffffffffffffffffffffffffffffffffffffff1673ffffffffffffffffffffffffffffffffffffffff16815260200190815260200160002060000160029054906101000a900460ff169050919050565b60006003600083815260200190815260200160002060020160149054906101000a900460ff169050919050565b80600460006001600054611bb991906123f2565b81526020019081526020016000206000016001600460006001600054611bdf91906123f2565b815260200190815260200160002060000180549050611bfe91906123f2565b81548110611c35577f4e487b7100000000000000000000000000000000000000000000000000000000600052603260045260246000fd5b90600052602060002090601502016014019080519060200190611c59929190611d54565b5050565b60008054905090565b600073ffffffffffffffffffffffffffffffffffffffff168173ffffffffffffffffffffffffffffffffffffffff161415611ca057600080fd5b611ca981611ae6565b15611cb357600080fd5b6001600560008373ffffffffffffffffffffffffffffffffffffffff1673ffffffffffffffffffffffffffffffffffffffff16815260200190815260200160002060000160026101000a81548160ff02191690831515021790555050565b60005481565b60606040518060400160405280601d81526020017f48656c6c6f2066726f6d207465737446756e6374696f6e43616c6c2829000000815250905090565b828054611d60906124d5565b90600052602060002090601f016020900481019282611d825760008555611dc9565b82601f10611d9b57805160ff1916838001178555611dc9565b82800160010185558215611dc9579182015b82811115611dc8578251825591602001919060010190611dad565b5b509050611dd69190611e67565b5090565b828054611de6906124d5565b90600052602060002090601f016020900481019282611e085760008555611e56565b82601f10611e195780548555611e56565b82800160010185558215611e5657600052602060002091601f016020900482015b82811115611e55578254825591600101919060010190611e3a565b5b509050611e639190611e67565b5090565b5b80821115611e80576000816000905550600101611e68565b5090565b6000611e97611e92846123a6565b612375565b905082815260208101848484011115611eaf57600080fd5b611eba848285612493565b509392505050565b600081359050611ed1816125e8565b92915050565b600082601f830112611ee857600080fd5b8135611ef8848260208601611e84565b91505092915050565b600081359050611f10816125ff565b92915050565b600060208284031215611f2857600080fd5b6000611f3684828501611ec2565b91505092915050565b600060208284031215611f5157600080fd5b600082013567ffffffffffffffff811115611f6b57600080fd5b611f7784828501611ed7565b91505092915050565b600060208284031215611f9257600080fd5b6000611fa084828501611f01565b91505092915050565b60008060408385031215611fbc57600080fd5b6000611fca85828601611f01565b925050602083013567ffffffffffffffff811115611fe757600080fd5b611ff385828601611ed7565b9150509250929050565b60008060006060848603121561201257600080fd5b600061202086828701611f01565b935050602084013567ffffffffffffffff81111561203d57600080fd5b61204986828701611ed7565b925050604084013567ffffffffffffffff81111561206657600080fd5b61207286828701611ed7565b9150509250925092565b60008060006060848603121561209157600080fd5b600061209f86828701611f01565b935050602084013567ffffffffffffffff8111156120bc57600080fd5b6120c886828701611ed7565b92505060406120d986828701611f01565b9150509250925092565b6120ec81612426565b82525050565b6120fb81612438565b82525050565b61210a81612481565b82525050565b600061211b826123d6565b61212581856123e1565b93506121358185602086016124a2565b61213e816125c3565b840191505092915050565b61215281612477565b82525050565b600060208201905061216d60008301846120f2565b92915050565b60006020820190506121886000830184612101565b92915050565b600060208201905081810360008301526121a88184612110565b905092915050565b600060c08201905081810360008301526121ca8189612110565b90506121d960208301886120e3565b81810360408301526121eb8187612110565b905081810360608301526121ff8186612110565b905061220e60808301856120e3565b81810360a08301526122208184612110565b9050979650505050505050565b60006020820190506122426000830184612149565b92915050565b60006101008201905061225e600083018b612149565b8181036020830152612270818a612110565b905061227f6040830189612149565b61228c6060830188612149565b818103608083015261229e8187612110565b90506122ad60a0830186612101565b6122ba60c08301856120e3565b81810360e08301526122cc8184612110565b90509998505050505050505050565b6000610100820190506122f1600083018b612149565b6122fe602083018a612149565b61230b60408301896120e3565b61231860608301886120e3565b818103608083015261232a8187612110565b905081810360a083015261233e8186612110565b905081810360c08301526123528185612110565b905081810360e08301526123668184612110565b90509998505050505050505050565b6000604051905081810181811067ffffffffffffffff8211171561239c5761239b612594565b5b8060405250919050565b600067ffffffffffffffff8211156123c1576123c0612594565b5b601f19601f8301169050602081019050919050565b600081519050919050565b600082825260208201905092915050565b60006123fd82612477565b915061240883612477565b92508282101561241b5761241a612507565b5b828203905092915050565b600061243182612457565b9050919050565b60008115159050919050565b6000819050612452826125d4565b919050565b600073ffffffffffffffffffffffffffffffffffffffff82169050919050565b6000819050919050565b600061248c82612444565b9050919050565b82818337600083830152505050565b60005b838110156124c05780820151818401526020810190506124a5565b838111156124cf576000848401525b50505050565b600060028204905060018216806124ed57607f821691505b6020821081141561250157612500612565565b5b50919050565b7f4e487b7100000000000000000000000000000000000000000000000000000000600052601160045260246000fd5b7f4e487b7100000000000000000000000000000000000000000000000000000000600052602160045260246000fd5b7f4e487b7100000000000000000000000000000000000000000000000000000000600052602260045260246000fd5b7f4e487b7100000000000000000000000000000000000000000000000000000000600052604160045260246000fd5b6000601f19601f8301169050919050565b600981106125e5576125e4612536565b5b50565b6125f181612426565b81146125fc57600080fd5b50565b61260881612477565b811461261357600080fd5b5056fea264697066735822122056ff04003e8778f81bc614fdfc5dcfd9bf63f719f38231095202c88397f52e6664736f6c63430008000033",
  "linkReferences": {},
  "deployedLinkReferences": {}
}