{
  "_format": "hh-sol-artifact-1",
  "contractName": "SupplyChainStep5",
  "sourceName": "contracts/SupplyChainStep5.sol",
  "abi": [
    {
      "anonymous": false,
      "inputs": [
        {
          "indexed": false,
          "internalType": "uint256",
          "name": "uid",
          "type": "uint256"
        }
      ],
      "name": "Manufactured",
      "type": "event"
    },
    {
      "anonymous": false,
      "inputs": [
        {
          "indexed": true,
          "internalType": "address",
          "name": "_account",
          "type": "address"
        }
      ],
      "name": "ManufacturerAdded",
      "type": "event"
    },
    {
      "anonymous": false,
      "inputs": [
        {
          "indexed": false,
          "internalType": "uint256",
          "name": "uid",
          "type": "uint256"
        }
      ],
      "name": "PurchasedByCustomer",
      "type": "event"
    },
    {
      "anonymous": false,
      "inputs": [
        {
          "indexed": false,
          "internalType": "uint256",
          "name": "uid",
          "type": "uint256"
        }
      ],
      "name": "PurchasedByThirdParty",
      "type": "event"
    },
    {
      "anonymous": false,
      "inputs": [
        {
          "indexed": false,
          "internalType": "uint256",
          "name": "uid",
          "type": "uint256"
        }
      ],
      "name": "ReceivedByCustomer",
      "type": "event"
    },
    {
      "anonymous": false,
      "inputs": [
        {
          "indexed": false,
          "internalType": "uint256",
          "name": "uid",
          "type": "uint256"
        }
      ],
      "name": "ReceivedByDeliveryHub",
      "type": "event"
    },
    {
      "anonymous": false,
      "inputs": [
        {
          "indexed": false,
          "internalType": "uint256",
          "name": "uid",
          "type": "uint256"
        }
      ],
      "name": "ReceivedByThirdParty",
      "type": "event"
    },
    {
      "anonymous": false,
      "inputs": [
        {
          "indexed": false,
          "internalType": "uint256",
          "name": "uid",
          "type": "uint256"
        }
      ],
      "name": "ShippedByDeliveryHub",
      "type": "event"
    },
    {
      "anonymous": false,
      "inputs": [
        {
          "indexed": false,
          "internalType": "uint256",
          "name": "uid",
          "type": "uint256"
        }
      ],
      "name": "ShippedByManufacturer",
      "type": "event"
    },
    {
      "anonymous": false,
      "inputs": [
        {
          "indexed": false,
          "internalType": "uint256",
          "name": "uid",
          "type": "uint256"
        }
      ],
      "name": "ShippedByThirdParty",
      "type": "event"
    },
    {
      "inputs": [
        {
          "internalType": "address",
          "name": "_account",
          "type": "address"
        }
      ],
      "name": "addCustomerRole",
      "outputs": [],
      "stateMutability": "nonpayable",
      "type": "function"
    },
    {
      "inputs": [
        {
          "internalType": "address",
          "name": "_account",
          "type": "address"
        }
      ],
      "name": "addDeliveryHubRole",
      "outputs": [],
      "stateMutability": "nonpayable",
      "type": "function"
    },
    {
      "inputs": [
        {
          "internalType": "address",
          "name": "_account",
          "type": "address"
        }
      ],
      "name": "addManufacturerRole",
      "outputs": [],
      "stateMutability": "nonpayable",
      "type": "function"
    },
    {
      "inputs": [
        {
          "internalType": "address",
          "name": "_account",
          "type": "address"
        }
      ],
      "name": "addThirdPartyRole",
      "outputs": [],
      "stateMutability": "nonpayable",
      "type": "function"
    },
    {
      "inputs": [],
      "name": "fetchProductCount",
      "outputs": [
        {
          "internalType": "uint256",
          "name": "",
          "type": "uint256"
        }
      ],
      "stateMutability": "view",
      "type": "function"
    },
    {
      "inputs": [
        {
          "internalType": "uint256",
          "name": "_uid",
          "type": "uint256"
        }
      ],
      "name": "fetchProductHistoryLength",
      "outputs": [
        {
          "internalType": "uint256",
          "name": "",
          "type": "uint256"
        }
      ],
      "stateMutability": "view",
      "type": "function"
    },
    {
      "inputs": [
        {
          "internalType": "uint256",
          "name": "_uid",
          "type": "uint256"
        },
        {
          "internalType": "string",
          "name": "_type",
          "type": "string"
        },
        {
          "internalType": "uint256",
          "name": "i",
          "type": "uint256"
        }
      ],
      "name": "fetchProductPart1",
      "outputs": [
        {
          "internalType": "uint256",
          "name": "",
          "type": "uint256"
        },
        {
          "internalType": "uint256",
          "name": "",
          "type": "uint256"
        },
        {
          "internalType": "address",
          "name": "",
          "type": "address"
        },
        {
          "internalType": "address",
          "name": "",
          "type": "address"
        },
        {
          "internalType": "string",
          "name": "",
          "type": "string"
        },
        {
          "internalType": "string",
          "name": "",
          "type": "string"
        },
        {
          "internalType": "string",
          "name": "",
          "type": "string"
        },
        {
          "internalType": "string",
          "name": "",
          "type": "string"
        }
      ],
      "stateMutability": "view",
      "type": "function"
    },
    {
      "inputs": [
        {
          "internalType": "uint256",
          "name": "_uid",
          "type": "uint256"
        },
        {
          "internalType": "string",
          "name": "_type",
          "type": "string"
        },
        {
          "internalType": "uint256",
          "name": "i",
          "type": "uint256"
        }
      ],
      "name": "fetchProductPart2",
      "outputs": [
        {
          "internalType": "uint256",
          "name": "",
          "type": "uint256"
        },
        {
          "internalType": "string",
          "name": "",
          "type": "string"
        },
        {
          "internalType": "uint256",
          "name": "",
          "type": "uint256"
        },
        {
          "internalType": "uint256",
          "name": "",
          "type": "uint256"
        },
        {
          "internalType": "string",
          "name": "",
          "type": "string"
        },
        {
          "internalType": "enum Structure.State",
          "name": "",
          "type": "uint8"
        },
        {
          "internalType": "address",
          "name": "",
          "type": "address"
        },
        {
          "internalType": "string",
          "name": "",
          "type": "string"
        }
      ],
      "stateMutability": "view",
      "type": "function"
    },
    {
      "inputs": [
        {
          "internalType": "uint256",
          "name": "_uid",
          "type": "uint256"
        },
        {
          "internalType": "string",
          "name": "_type",
          "type": "string"
        },
        {
          "internalType": "uint256",
          "name": "i",
          "type": "uint256"
        }
      ],
      "name": "fetchProductPart3",
      "outputs": [
        {
          "internalType": "string",
          "name": "",
          "type": "string"
        },
        {
          "internalType": "address",
          "name": "",
          "type": "address"
        },
        {
          "internalType": "string",
          "name": "",
          "type": "string"
        },
        {
          "internalType": "string",
          "name": "",
          "type": "string"
        },
        {
          "internalType": "address",
          "name": "",
          "type": "address"
        },
        {
          "internalType": "string",
          "name": "",
          "type": "string"
        }
      ],
      "stateMutability": "view",
      "type": "function"
    },
    {
      "inputs": [
        {
          "internalType": "uint256",
          "name": "_uid",
          "type": "uint256"
        }
      ],
      "name": "fetchProductState",
      "outputs": [
        {
          "internalType": "enum Structure.State",
          "name": "",
          "type": "uint8"
        }
      ],
      "stateMutability": "view",
      "type": "function"
    },
    {
      "inputs": [
        {
          "internalType": "address",
          "name": "_account",
          "type": "address"
        }
      ],
      "name": "hasCustomerRole",
      "outputs": [
        {
          "internalType": "bool",
          "name": "",
          "type": "bool"
        }
      ],
      "stateMutability": "view",
      "type": "function"
    },
    {
      "inputs": [
        {
          "internalType": "address",
          "name": "_account",
          "type": "address"
        }
      ],
      "name": "hasDeliveryHubRole",
      "outputs": [
        {
          "internalType": "bool",
          "name": "",
          "type": "bool"
        }
      ],
      "stateMutability": "view",
      "type": "function"
    },
    {
      "inputs": [
        {
          "internalType": "address",
          "name": "_account",
          "type": "address"
        }
      ],
      "name": "hasManufacturerRole",
      "outputs": [
        {
          "internalType": "bool",
          "name": "",
          "type": "bool"
        }
      ],
      "stateMutability": "view",
      "type": "function"
    },
    {
      "inputs": [
        {
          "internalType": "address",
          "name": "_account",
          "type": "address"
        }
      ],
      "name": "hasThirdPartyRole",
      "outputs": [
        {
          "internalType": "bool",
          "name": "",
          "type": "bool"
        }
      ],
      "stateMutability": "view",
      "type": "function"
    },
    {
      "inputs": [
        {
          "internalType": "uint256",
          "name": "_uid",
          "type": "uint256"
        }
      ],
      "name": "purchaseByCustomer",
      "outputs": [],
      "stateMutability": "nonpayable",
      "type": "function"
    },
    {
      "inputs": [
        {
          "internalType": "uint256",
          "name": "_uid",
          "type": "uint256"
        },
        {
          "internalType": "string",
          "name": "tran",
          "type": "string"
        }
      ],
      "name": "setTransactionHash",
      "outputs": [],
      "stateMutability": "nonpayable",
      "type": "function"
    },
    {
      "inputs": [
        {
          "internalType": "string",
          "name": "tran",
          "type": "string"
        }
      ],
      "name": "setTransactionHashOnManufacture",
      "outputs": [],
      "stateMutability": "nonpayable",
      "type": "function"
    },
    {
      "inputs": [],
      "name": "testFunctionCall",
      "outputs": [
        {
          "internalType": "string",
          "name": "",
          "type": "string"
        }
      ],
      "stateMutability": "pure",
      "type": "function"
    },
    {
      "inputs": [],
      "name": "uid",
      "outputs": [
        {
          "internalType": "uint256",
          "name": "",
          "type": "uint256"
        }
      ],
      "stateMutability": "view",
      "type": "function"
    }
  ],
  "bytecode": "0x608060405234801561001057600080fd5b5033600260006101000a81548173ffffffffffffffffffffffffffffffffffffffff021916908373ffffffffffffffffffffffffffffffffffffffff160217905550600180819055506001600081905550612517806100706000396000f3fe608060405234801561001057600080fd5b50600436106101215760003560e01c80638290f859116100ad578063e55128ea11610071578063e55128ea14610375578063f16791b314610391578063f4121b67146103af578063f514ce36146103cb578063fb0c5ea3146103e957610121565b80638290f8591461029457806398c95889146102b0578063cd2885e0146102e5578063d44bebcc14610315578063e2f1fe141461034557610121565b80636000ada1116100f45780636000ada1146101be578063658db497146101ee5780636f1fe8d7146102255780637217eb2e1461025c578063786ea1611461027857610121565b8063024edf9a14610126578063405ba7ef14610156578063453dd4af146101865780635212e510146101a2575b600080fd5b610140600480360381019061013b9190611e60565b610407565b60405161014d9190612023565b60405180910390f35b610170600480360381019061016b9190611eca565b610499565b60405161017d91906120f8565b60405180910390f35b6101a0600480360381019061019b9190611e60565b6104bc565b005b6101bc60048036038101906101b79190611e60565b610567565b005b6101d860048036038101906101d39190611e60565b610612565b6040516101e59190612023565b60405180910390f35b61020860048036038101906102039190611f47565b6106a4565b60405161021c9897969594939291906121a6565b60405180910390f35b61023f600480360381019061023a9190611f47565b610ab7565b604051610253989796959493929190612113565b60405180910390f35b61027660048036038101906102719190611eca565b610e34565b005b610292600480360381019061028d9190611ef3565b611450565b005b6102ae60048036038101906102a99190611e60565b6114f3565b005b6102ca60048036038101906102c59190611f47565b61159e565b6040516102dc9695949392919061207b565b60405180910390f35b6102ff60048036038101906102fa9190611e60565b61199e565b60405161030c9190612023565b60405180910390f35b61032f600480360381019061032a9190611e60565b611a30565b60405161033c9190612023565b60405180910390f35b61035f600480360381019061035a9190611eca565b611ac2565b60405161036c919061203e565b60405180910390f35b61038f600480360381019061038a9190611e89565b611aef565b005b610399611ba7565b6040516103a691906120f8565b60405180910390f35b6103c960048036038101906103c49190611e60565b611bb0565b005b6103d3611c5b565b6040516103e091906120f8565b60405180910390f35b6103f1611c61565b6040516103fe9190612059565b60405180910390f35b60008073ffffffffffffffffffffffffffffffffffffffff168273ffffffffffffffffffffffffffffffffffffffff16141561044257600080fd5b600560008373ffffffffffffffffffffffffffffffffffffffff1673ffffffffffffffffffffffffffffffffffffffff16815260200190815260200160002060000160039054906101000a900460ff169050919050565b600060046000838152602001908152602001600020600001805490509050919050565b600073ffffffffffffffffffffffffffffffffffffffff168173ffffffffffffffffffffffffffffffffffffffff1614156104f657600080fd5b6104ff81611a30565b1561050957600080fd5b6001600560008373ffffffffffffffffffffffffffffffffffffffff1673ffffffffffffffffffffffffffffffffffffffff16815260200190815260200160002060000160036101000a81548160ff02191690831515021790555050565b600073ffffffffffffffffffffffffffffffffffffffff168173ffffffffffffffffffffffffffffffffffffffff1614156105a157600080fd5b6105aa8161199e565b156105b457600080fd5b6001600560008373ffffffffffffffffffffffffffffffffffffffff1673ffffffffffffffffffffffffffffffffffffffff16815260200190815260200160002060000160016101000a81548160ff02191690831515021790555050565b60008073ffffffffffffffffffffffffffffffffffffffff168273ffffffffffffffffffffffffffffffffffffffff16141561064d57600080fd5b600560008373ffffffffffffffffffffffffffffffffffffffff1673ffffffffffffffffffffffffffffffffffffffff16815260200190815260200160002060000160009054906101000a900460ff169050919050565b6000806000806060806060806000600360008d81526020019081526020016000206000015414156106d457600080fd5b6000600360008d815260200190815260200160002090506040518060400160405280600781526020017f70726f6475637400000000000000000000000000000000000000000000000000815250805190602001208b80519060200120141561074c57600360008d815260200190815260200160002090505b6040518060400160405280600781526020017f686973746f727900000000000000000000000000000000000000000000000000815250805190602001208b8051906020012014156107f657600460008d81526020019081526020016000206000018a815481106107e5577f4e487b7100000000000000000000000000000000000000000000000000000000600052603260045260246000fd5b906000526020600020906015020190505b806000015481600101548260020160009054906101000a900473ffffffffffffffffffffffffffffffffffffffff168360030160000160009054906101000a900473ffffffffffffffffffffffffffffffffffffffff1684600301600101856003016002018660030160030187600301600401838054610875906123a0565b80601f01602080910402602001604051908101604052809291908181526020018280546108a1906123a0565b80156108ee5780601f106108c3576101008083540402835291602001916108ee565b820191906000526020600020905b8154815290600101906020018083116108d157829003601f168201915b50505050509350828054610901906123a0565b80601f016020809104026020016040519081016040528092919081815260200182805461092d906123a0565b801561097a5780601f1061094f5761010080835404028352916020019161097a565b820191906000526020600020905b81548152906001019060200180831161095d57829003601f168201915b5050505050925081805461098d906123a0565b80601f01602080910402602001604051908101604052809291908181526020018280546109b9906123a0565b8015610a065780601f106109db57610100808354040283529160200191610a06565b820191906000526020600020905b8154815290600101906020018083116109e957829003601f168201915b50505050509150808054610a19906123a0565b80601f0160208091040260200160405190810160405280929190818152602001828054610a45906123a0565b8015610a925780601f10610a6757610100808354040283529160200191610a92565b820191906000526020600020905b815481529060010190602001808311610a7557829003601f168201915b5050505050905098509850985098509850985098509850509397509397509397509397565b60006060600080606060008060606000600360008d8152602001908152602001600020600001541415610ae957600080fd5b6000600360008d815260200190815260200160002090506040518060400160405280600781526020017f70726f6475637400000000000000000000000000000000000000000000000000815250805190602001208b805190602001201415610b6157600360008d815260200190815260200160002090505b6040518060400160405280600781526020017f686973746f727900000000000000000000000000000000000000000000000000815250805190602001208b805190602001201415610c0b57600460008d81526020019081526020016000206000018a81548110610bfa577f4e487b7100000000000000000000000000000000000000000000000000000000600052603260045260246000fd5b906000526020600020906015020190505b806003016005015481600c0160000182600c016001015483600c016002015484600c016003018560020160149054906101000a900460ff168660090160000160009054906101000a900473ffffffffffffffffffffffffffffffffffffffff1687600901600101868054610c7e906123a0565b80601f0160208091040260200160405190810160405280929190818152602001828054610caa906123a0565b8015610cf75780601f10610ccc57610100808354040283529160200191610cf7565b820191906000526020600020905b815481529060010190602001808311610cda57829003601f168201915b50505050509650838054610d0a906123a0565b80601f0160208091040260200160405190810160405280929190818152602001828054610d36906123a0565b8015610d835780601f10610d5857610100808354040283529160200191610d83565b820191906000526020600020905b815481529060010190602001808311610d6657829003601f168201915b50505050509350808054610d96906123a0565b80601f0160208091040260200160405190810160405280929190818152602001828054610dc2906123a0565b8015610e0f5780601f10610de457610100808354040283529160200191610e0f565b820191906000526020600020905b815481529060010190602001808311610df257829003601f168201915b5050505050905098509850985098509850985098509850509397509397509397509397565b8060036008811115610e6f577f4e487b7100000000000000000000000000000000000000000000000000000000600052602160045260246000fd5b6003600083815260200190815260200160002060020160149054906101000a900460ff166008811115610ecb577f4e487b7100000000000000000000000000000000000000000000000000000000600052602160045260246000fd5b14610ed557600080fd5b610ede33610407565b610ee757600080fd5b336003600084815260200190815260200160002060130160006101000a81548173ffffffffffffffffffffffffffffffffffffffff021916908373ffffffffffffffffffffffffffffffffffffffff16021790555060046003600084815260200190815260200160002060020160146101000a81548160ff02191690836008811115610f9c577f4e487b7100000000000000000000000000000000000000000000000000000000600052602160045260246000fd5b02179055506004600083815260200190815260200160002060000160036000848152602001908152602001600020908060018154018082558091505060019003906000526020600020906015020160009091909190915060008201548160000155600182015481600101556002820160009054906101000a900473ffffffffffffffffffffffffffffffffffffffff168160020160006101000a81548173ffffffffffffffffffffffffffffffffffffffff021916908373ffffffffffffffffffffffffffffffffffffffff1602179055506002820160149054906101000a900460ff168160020160146101000a81548160ff021916908360088111156110cc577f4e487b7100000000000000000000000000000000000000000000000000000000600052602160045260246000fd5b021790555060038201816003016000820160009054906101000a900473ffffffffffffffffffffffffffffffffffffffff168160000160006101000a81548173ffffffffffffffffffffffffffffffffffffffff021916908373ffffffffffffffffffffffffffffffffffffffff1602179055506001820181600101908054611154906123a0565b61115f929190611c9e565b506002820181600201908054611174906123a0565b61117f929190611c9e565b506003820181600301908054611194906123a0565b61119f929190611c9e565b5060048201816004019080546111b4906123a0565b6111bf929190611c9e565b5060058201548160050155505060098201816009016000820160009054906101000a900473ffffffffffffffffffffffffffffffffffffffff168160000160006101000a81548173ffffffffffffffffffffffffffffffffffffffff021916908373ffffffffffffffffffffffffffffffffffffffff160217905550600182018160010190805461124f906123a0565b61125a929190611c9e565b50600282018160020190805461126f906123a0565b61127a929190611c9e565b505050600c820181600c016000820181600001908054611299906123a0565b6112a4929190611c9e565b50600182015481600101556002820154816002015560038201816003019080546112cd906123a0565b6112d8929190611c9e565b50505060108201816010016000820160009054906101000a900473ffffffffffffffffffffffffffffffffffffffff168160000160006101000a81548173ffffffffffffffffffffffffffffffffffffffff021916908373ffffffffffffffffffffffffffffffffffffffff160217905550600182018160010190805461135e906123a0565b611369929190611c9e565b50600282018160020190805461137e906123a0565b611389929190611c9e565b5050506013820160009054906101000a900473ffffffffffffffffffffffffffffffffffffffff168160130160006101000a81548173ffffffffffffffffffffffffffffffffffffffff021916908373ffffffffffffffffffffffffffffffffffffffff1602179055506014820181601401908054611407906123a0565b611412929190611c9e565b5050507ffd054e59d299873fab61a3c67d86d3a139b75dcd5cd82894d8983fc5e2669c828260405161144491906120f8565b60405180910390a15050565b6000600460008481526020019081526020016000206000016001600460008681526020019081526020016000206000018054905061148e91906122bd565b815481106114c5577f4e487b7100000000000000000000000000000000000000000000000000000000600052603260045260246000fd5b90600052602060002090601502019050818160140190805190602001906114ed929190611d2b565b50505050565b600073ffffffffffffffffffffffffffffffffffffffff168173ffffffffffffffffffffffffffffffffffffffff16141561152d57600080fd5b61153681610612565b1561154057600080fd5b6001600560008373ffffffffffffffffffffffffffffffffffffffff1673ffffffffffffffffffffffffffffffffffffffff16815260200190815260200160002060000160006101000a81548160ff02191690831515021790555050565b60606000606080600060606000600360008b81526020019081526020016000206000015414156115cd57600080fd5b6000600360008b815260200190815260200160002090506040518060400160405280600781526020017f70726f6475637400000000000000000000000000000000000000000000000000815250805190602001208980519060200120141561164557600360008b815260200190815260200160002090505b6040518060400160405280600781526020017f686973746f72790000000000000000000000000000000000000000000000000081525080519060200120898051906020012014156116ef57600460008b815260200190815260200160002060000188815481106116de577f4e487b7100000000000000000000000000000000000000000000000000000000600052603260045260246000fd5b906000526020600020906015020190505b806009016002018160100160000160009054906101000a900473ffffffffffffffffffffffffffffffffffffffff1682601001600101836010016002018460130160009054906101000a900473ffffffffffffffffffffffffffffffffffffffff1685601401858054611761906123a0565b80601f016020809104026020016040519081016040528092919081815260200182805461178d906123a0565b80156117da5780601f106117af576101008083540402835291602001916117da565b820191906000526020600020905b8154815290600101906020018083116117bd57829003601f168201915b505050505095508380546117ed906123a0565b80601f0160208091040260200160405190810160405280929190818152602001828054611819906123a0565b80156118665780601f1061183b57610100808354040283529160200191611866565b820191906000526020600020905b81548152906001019060200180831161184957829003601f168201915b50505050509350828054611879906123a0565b80601f01602080910402602001604051908101604052809291908181526020018280546118a5906123a0565b80156118f25780601f106118c7576101008083540402835291602001916118f2565b820191906000526020600020905b8154815290600101906020018083116118d557829003601f168201915b50505050509250808054611905906123a0565b80601f0160208091040260200160405190810160405280929190818152602001828054611931906123a0565b801561197e5780601f106119535761010080835404028352916020019161197e565b820191906000526020600020905b81548152906001019060200180831161196157829003601f168201915b505050505090509650965096509650965096505093975093979195509350565b60008073ffffffffffffffffffffffffffffffffffffffff168273ffffffffffffffffffffffffffffffffffffffff1614156119d957600080fd5b600560008373ffffffffffffffffffffffffffffffffffffffff1673ffffffffffffffffffffffffffffffffffffffff16815260200190815260200160002060000160019054906101000a900460ff169050919050565b60008073ffffffffffffffffffffffffffffffffffffffff168273ffffffffffffffffffffffffffffffffffffffff161415611a6b57600080fd5b600560008373ffffffffffffffffffffffffffffffffffffffff1673ffffffffffffffffffffffffffffffffffffffff16815260200190815260200160002060000160029054906101000a900460ff169050919050565b60006003600083815260200190815260200160002060020160149054906101000a900460ff169050919050565b80600460006001600054611b0391906122bd565b81526020019081526020016000206000016001600460006001600054611b2991906122bd565b815260200190815260200160002060000180549050611b4891906122bd565b81548110611b7f577f4e487b7100000000000000000000000000000000000000000000000000000000600052603260045260246000fd5b90600052602060002090601502016014019080519060200190611ba3929190611d2b565b5050565b60008054905090565b600073ffffffffffffffffffffffffffffffffffffffff168173ffffffffffffffffffffffffffffffffffffffff161415611bea57600080fd5b611bf381611a30565b15611bfd57600080fd5b6001600560008373ffffffffffffffffffffffffffffffffffffffff1673ffffffffffffffffffffffffffffffffffffffff16815260200190815260200160002060000160026101000a81548160ff02191690831515021790555050565b60005481565b60606040518060400160405280601d81526020017f48656c6c6f2066726f6d207465737446756e6374696f6e43616c6c2829000000815250905090565b828054611caa906123a0565b90600052602060002090601f016020900481019282611ccc5760008555611d1a565b82601f10611cdd5780548555611d1a565b82800160010185558215611d1a57600052602060002091601f016020900482015b82811115611d19578254825591600101919060010190611cfe565b5b509050611d279190611db1565b5090565b828054611d37906123a0565b90600052602060002090601f016020900481019282611d595760008555611da0565b82601f10611d7257805160ff1916838001178555611da0565b82800160010185558215611da0579182015b82811115611d9f578251825591602001919060010190611d84565b5b509050611dad9190611db1565b5090565b5b80821115611dca576000816000905550600101611db2565b5090565b6000611de1611ddc84612271565b612240565b905082815260208101848484011115611df957600080fd5b611e0484828561235e565b509392505050565b600081359050611e1b816124b3565b92915050565b600082601f830112611e3257600080fd5b8135611e42848260208601611dce565b91505092915050565b600081359050611e5a816124ca565b92915050565b600060208284031215611e7257600080fd5b6000611e8084828501611e0c565b91505092915050565b600060208284031215611e9b57600080fd5b600082013567ffffffffffffffff811115611eb557600080fd5b611ec184828501611e21565b91505092915050565b600060208284031215611edc57600080fd5b6000611eea84828501611e4b565b91505092915050565b60008060408385031215611f0657600080fd5b6000611f1485828601611e4b565b925050602083013567ffffffffffffffff811115611f3157600080fd5b611f3d85828601611e21565b9150509250929050565b600080600060608486031215611f5c57600080fd5b6000611f6a86828701611e4b565b935050602084013567ffffffffffffffff811115611f8757600080fd5b611f9386828701611e21565b9250506040611fa486828701611e4b565b9150509250925092565b611fb7816122f1565b82525050565b611fc681612303565b82525050565b611fd58161234c565b82525050565b6000611fe6826122a1565b611ff081856122ac565b935061200081856020860161236d565b6120098161248e565b840191505092915050565b61201d81612342565b82525050565b60006020820190506120386000830184611fbd565b92915050565b60006020820190506120536000830184611fcc565b92915050565b600060208201905081810360008301526120738184611fdb565b905092915050565b600060c08201905081810360008301526120958189611fdb565b90506120a46020830188611fae565b81810360408301526120b68187611fdb565b905081810360608301526120ca8186611fdb565b90506120d96080830185611fae565b81810360a08301526120eb8184611fdb565b9050979650505050505050565b600060208201905061210d6000830184612014565b92915050565b600061010082019050612129600083018b612014565b818103602083015261213b818a611fdb565b905061214a6040830189612014565b6121576060830188612014565b81810360808301526121698187611fdb565b905061217860a0830186611fcc565b61218560c0830185611fae565b81810360e08301526121978184611fdb565b90509998505050505050505050565b6000610100820190506121bc600083018b612014565b6121c9602083018a612014565b6121d66040830189611fae565b6121e36060830188611fae565b81810360808301526121f58187611fdb565b905081810360a08301526122098186611fdb565b905081810360c083015261221d8185611fdb565b905081810360e08301526122318184611fdb565b90509998505050505050505050565b6000604051905081810181811067ffffffffffffffff821117156122675761226661245f565b5b8060405250919050565b600067ffffffffffffffff82111561228c5761228b61245f565b5b601f19601f8301169050602081019050919050565b600081519050919050565b600082825260208201905092915050565b60006122c882612342565b91506122d383612342565b9250828210156122e6576122e56123d2565b5b828203905092915050565b60006122fc82612322565b9050919050565b60008115159050919050565b600081905061231d8261249f565b919050565b600073ffffffffffffffffffffffffffffffffffffffff82169050919050565b6000819050919050565b60006123578261230f565b9050919050565b82818337600083830152505050565b60005b8381101561238b578082015181840152602081019050612370565b8381111561239a576000848401525b50505050565b600060028204905060018216806123b857607f821691505b602082108114156123cc576123cb612430565b5b50919050565b7f4e487b7100000000000000000000000000000000000000000000000000000000600052601160045260246000fd5b7f4e487b7100000000000000000000000000000000000000000000000000000000600052602160045260246000fd5b7f4e487b7100000000000000000000000000000000000000000000000000000000600052602260045260246000fd5b7f4e487b7100000000000000000000000000000000000000000000000000000000600052604160045260246000fd5b6000601f19601f8301169050919050565b600981106124b0576124af612401565b5b50565b6124bc816122f1565b81146124c757600080fd5b50565b6124d381612342565b81146124de57600080fd5b5056fea2646970667358221220d2a19e74e64487799230e475b539e3b64944a547cdfed3b1ec27e97d849d540264736f6c63430008000033",
  "linkReferences": {},
  "deployedLinkReferences": {}
}