{
  "_format": "hh-sol-artifact-1",
  "contractName": "SupplyChain",
  "sourceName": "contracts/SupplyChain.sol",
  "abi": [
    {
      "inputs": [],
      "stateMutability": "payable",
      "type": "constructor"
    },
    {
      "anonymous": false,
      "inputs": [
        {
          "indexed": false,
          "internalType": "uint256",
          "name": "uid",
          "type": "uint256"
        }
      ],
      "name": "Manufactured",
      "type": "event"
    },
    {
      "anonymous": false,
      "inputs": [
        {
          "indexed": true,
          "internalType": "address",
          "name": "_account",
          "type": "address"
        }
      ],
      "name": "ManufacturerAdded",
      "type": "event"
    },
    {
      "anonymous": false,
      "inputs": [
        {
          "indexed": false,
          "internalType": "uint256",
          "name": "uid",
          "type": "uint256"
        }
      ],
      "name": "PurchasedByCustomer",
      "type": "event"
    },
    {
      "anonymous": false,
      "inputs": [
        {
          "indexed": false,
          "internalType": "uint256",
          "name": "uid",
          "type": "uint256"
        }
      ],
      "name": "PurchasedByThirdParty",
      "type": "event"
    },
    {
      "anonymous": false,
      "inputs": [
        {
          "indexed": false,
          "internalType": "uint256",
          "name": "uid",
          "type": "uint256"
        }
      ],
      "name": "ReceivedByCustomer",
      "type": "event"
    },
    {
      "anonymous": false,
      "inputs": [
        {
          "indexed": false,
          "internalType": "uint256",
          "name": "uid",
          "type": "uint256"
        }
      ],
      "name": "ReceivedByDeliveryHub",
      "type": "event"
    },
    {
      "anonymous": false,
      "inputs": [
        {
          "indexed": false,
          "internalType": "uint256",
          "name": "uid",
          "type": "uint256"
        }
      ],
      "name": "ReceivedByThirdParty",
      "type": "event"
    },
    {
      "anonymous": false,
      "inputs": [
        {
          "indexed": false,
          "internalType": "uint256",
          "name": "uid",
          "type": "uint256"
        }
      ],
      "name": "ShippedByDeliveryHub",
      "type": "event"
    },
    {
      "anonymous": false,
      "inputs": [
        {
          "indexed": false,
          "internalType": "uint256",
          "name": "uid",
          "type": "uint256"
        }
      ],
      "name": "ShippedByManufacturer",
      "type": "event"
    },
    {
      "anonymous": false,
      "inputs": [
        {
          "indexed": false,
          "internalType": "uint256",
          "name": "uid",
          "type": "uint256"
        }
      ],
      "name": "ShippedByThirdParty",
      "type": "event"
    },
    {
      "inputs": [
        {
          "internalType": "address",
          "name": "_account",
          "type": "address"
        }
      ],
      "name": "addCustomerRole",
      "outputs": [],
      "stateMutability": "nonpayable",
      "type": "function"
    },
    {
      "inputs": [
        {
          "internalType": "address",
          "name": "_account",
          "type": "address"
        }
      ],
      "name": "addDeliveryHubRole",
      "outputs": [],
      "stateMutability": "nonpayable",
      "type": "function"
    },
    {
      "inputs": [
        {
          "internalType": "address",
          "name": "_account",
          "type": "address"
        }
      ],
      "name": "addManufacturerRole",
      "outputs": [],
      "stateMutability": "nonpayable",
      "type": "function"
    },
    {
      "inputs": [
        {
          "internalType": "address",
          "name": "_account",
          "type": "address"
        }
      ],
      "name": "addThirdPartyRole",
      "outputs": [],
      "stateMutability": "nonpayable",
      "type": "function"
    },
    {
      "inputs": [],
      "name": "fetchProductCount",
      "outputs": [
        {
          "internalType": "uint256",
          "name": "",
          "type": "uint256"
        }
      ],
      "stateMutability": "view",
      "type": "function"
    },
    {
      "inputs": [
        {
          "internalType": "uint256",
          "name": "_uid",
          "type": "uint256"
        }
      ],
      "name": "fetchProductHistoryLength",
      "outputs": [
        {
          "internalType": "uint256",
          "name": "",
          "type": "uint256"
        }
      ],
      "stateMutability": "view",
      "type": "function"
    },
    {
      "inputs": [
        {
          "internalType": "uint256",
          "name": "_uid",
          "type": "uint256"
        },
        {
          "internalType": "string",
          "name": "_type",
          "type": "string"
        },
        {
          "internalType": "uint256",
          "name": "i",
          "type": "uint256"
        }
      ],
      "name": "fetchProductPart1",
      "outputs": [
        {
          "internalType": "uint256",
          "name": "",
          "type": "uint256"
        },
        {
          "internalType": "uint256",
          "name": "",
          "type": "uint256"
        },
        {
          "internalType": "address",
          "name": "",
          "type": "address"
        },
        {
          "internalType": "address",
          "name": "",
          "type": "address"
        },
        {
          "internalType": "string",
          "name": "",
          "type": "string"
        },
        {
          "internalType": "string",
          "name": "",
          "type": "string"
        },
        {
          "internalType": "string",
          "name": "",
          "type": "string"
        },
        {
          "internalType": "string",
          "name": "",
          "type": "string"
        }
      ],
      "stateMutability": "view",
      "type": "function"
    },
    {
      "inputs": [
        {
          "internalType": "uint256",
          "name": "_uid",
          "type": "uint256"
        },
        {
          "internalType": "string",
          "name": "_type",
          "type": "string"
        },
        {
          "internalType": "uint256",
          "name": "i",
          "type": "uint256"
        }
      ],
      "name": "fetchProductPart2",
      "outputs": [
        {
          "internalType": "uint256",
          "name": "",
          "type": "uint256"
        },
        {
          "internalType": "string",
          "name": "",
          "type": "string"
        },
        {
          "internalType": "uint256",
          "name": "",
          "type": "uint256"
        },
        {
          "internalType": "uint256",
          "name": "",
          "type": "uint256"
        },
        {
          "internalType": "string",
          "name": "",
          "type": "string"
        },
        {
          "internalType": "enum Structure.State",
          "name": "",
          "type": "uint8"
        },
        {
          "internalType": "address",
          "name": "",
          "type": "address"
        },
        {
          "internalType": "string",
          "name": "",
          "type": "string"
        }
      ],
      "stateMutability": "view",
      "type": "function"
    },
    {
      "inputs": [
        {
          "internalType": "uint256",
          "name": "_uid",
          "type": "uint256"
        },
        {
          "internalType": "string",
          "name": "_type",
          "type": "string"
        },
        {
          "internalType": "uint256",
          "name": "i",
          "type": "uint256"
        }
      ],
      "name": "fetchProductPart3",
      "outputs": [
        {
          "internalType": "string",
          "name": "",
          "type": "string"
        },
        {
          "internalType": "address",
          "name": "",
          "type": "address"
        },
        {
          "internalType": "string",
          "name": "",
          "type": "string"
        },
        {
          "internalType": "string",
          "name": "",
          "type": "string"
        },
        {
          "internalType": "address",
          "name": "",
          "type": "address"
        },
        {
          "internalType": "string",
          "name": "",
          "type": "string"
        }
      ],
      "stateMutability": "view",
      "type": "function"
    },
    {
      "inputs": [
        {
          "internalType": "uint256",
          "name": "_uid",
          "type": "uint256"
        }
      ],
      "name": "fetchProductState",
      "outputs": [
        {
          "internalType": "enum Structure.State",
          "name": "",
          "type": "uint8"
        }
      ],
      "stateMutability": "view",
      "type": "function"
    },
    {
      "inputs": [
        {
          "internalType": "address",
          "name": "_account",
          "type": "address"
        }
      ],
      "name": "hasCustomerRole",
      "outputs": [
        {
          "internalType": "bool",
          "name": "",
          "type": "bool"
        }
      ],
      "stateMutability": "view",
      "type": "function"
    },
    {
      "inputs": [
        {
          "internalType": "address",
          "name": "_account",
          "type": "address"
        }
      ],
      "name": "hasDeliveryHubRole",
      "outputs": [
        {
          "internalType": "bool",
          "name": "",
          "type": "bool"
        }
      ],
      "stateMutability": "view",
      "type": "function"
    },
    {
      "inputs": [
        {
          "internalType": "address",
          "name": "_account",
          "type": "address"
        }
      ],
      "name": "hasManufacturerRole",
      "outputs": [
        {
          "internalType": "bool",
          "name": "",
          "type": "bool"
        }
      ],
      "stateMutability": "view",
      "type": "function"
    },
    {
      "inputs": [
        {
          "internalType": "address",
          "name": "_account",
          "type": "address"
        }
      ],
      "name": "hasThirdPartyRole",
      "outputs": [
        {
          "internalType": "bool",
          "name": "",
          "type": "bool"
        }
      ],
      "stateMutability": "view",
      "type": "function"
    },
    {
      "inputs": [
        {
          "internalType": "uint256",
          "name": "_uid",
          "type": "uint256"
        },
        {
          "internalType": "string",
          "name": "tran",
          "type": "string"
        }
      ],
      "name": "setTransactionHash",
      "outputs": [],
      "stateMutability": "nonpayable",
      "type": "function"
    },
    {
      "inputs": [
        {
          "internalType": "string",
          "name": "tran",
          "type": "string"
        }
      ],
      "name": "setTransactionHashOnManufacture",
      "outputs": [],
      "stateMutability": "nonpayable",
      "type": "function"
    },
    {
      "inputs": [],
      "name": "testFunctionCall",
      "outputs": [
        {
          "internalType": "string",
          "name": "",
          "type": "string"
        }
      ],
      "stateMutability": "pure",
      "type": "function"
    },
    {
      "inputs": [],
      "name": "uid",
      "outputs": [
        {
          "internalType": "uint256",
          "name": "",
          "type": "uint256"
        }
      ],
      "stateMutability": "view",
      "type": "function"
    }
  ],
  "bytecode": "0x608060405233600260006101000a81548173ffffffffffffffffffffffffffffffffffffffff021916908373ffffffffffffffffffffffffffffffffffffffff160217905550600180819055506001600081905550611e47806100636000396000f3fe608060405234801561001057600080fd5b50600436106101165760003560e01c806398c95889116100a2578063e55128ea11610071578063e55128ea1461034e578063f16791b31461036a578063f4121b6714610388578063f514ce36146103a4578063fb0c5ea3146103c257610116565b806398c9588914610289578063cd2885e0146102be578063d44bebcc146102ee578063e2f1fe141461031e57610116565b80636000ada1116100e95780636000ada1146101b3578063658db497146101e35780636f1fe8d71461021a578063786ea161146102515780638290f8591461026d57610116565b8063024edf9a1461011b578063405ba7ef1461014b578063453dd4af1461017b5780635212e51014610197575b600080fd5b61013560048036038101906101309190611790565b6103e0565b6040516101429190611953565b60405180910390f35b610165600480360381019061016091906117fa565b610472565b6040516101729190611a28565b60405180910390f35b61019560048036038101906101909190611790565b610495565b005b6101b160048036038101906101ac9190611790565b610540565b005b6101cd60048036038101906101c89190611790565b6105eb565b6040516101da9190611953565b60405180910390f35b6101fd60048036038101906101f89190611877565b61067d565b604051610211989796959493929190611ad6565b60405180910390f35b610234600480360381019061022f9190611877565b610a90565b604051610248989796959493929190611a43565b60405180910390f35b61026b60048036038101906102669190611823565b610e0d565b005b61028760048036038101906102829190611790565b610eb0565b005b6102a3600480360381019061029e9190611877565b610f5b565b6040516102b5969594939291906119ab565b60405180910390f35b6102d860048036038101906102d39190611790565b61135b565b6040516102e59190611953565b60405180910390f35b61030860048036038101906103039190611790565b6113ed565b6040516103159190611953565b60405180910390f35b610338600480360381019061033391906117fa565b61147f565b604051610345919061196e565b60405180910390f35b610368600480360381019061036391906117b9565b6114ac565b005b610372611564565b60405161037f9190611a28565b60405180910390f35b6103a2600480360381019061039d9190611790565b61156d565b005b6103ac611618565b6040516103b99190611a28565b60405180910390f35b6103ca61161e565b6040516103d79190611989565b60405180910390f35b60008073ffffffffffffffffffffffffffffffffffffffff168273ffffffffffffffffffffffffffffffffffffffff16141561041b57600080fd5b600560008373ffffffffffffffffffffffffffffffffffffffff1673ffffffffffffffffffffffffffffffffffffffff16815260200190815260200160002060000160039054906101000a900460ff169050919050565b600060046000838152602001908152602001600020600001805490509050919050565b600073ffffffffffffffffffffffffffffffffffffffff168173ffffffffffffffffffffffffffffffffffffffff1614156104cf57600080fd5b6104d8816113ed565b156104e257600080fd5b6001600560008373ffffffffffffffffffffffffffffffffffffffff1673ffffffffffffffffffffffffffffffffffffffff16815260200190815260200160002060000160036101000a81548160ff02191690831515021790555050565b600073ffffffffffffffffffffffffffffffffffffffff168173ffffffffffffffffffffffffffffffffffffffff16141561057a57600080fd5b6105838161135b565b1561058d57600080fd5b6001600560008373ffffffffffffffffffffffffffffffffffffffff1673ffffffffffffffffffffffffffffffffffffffff16815260200190815260200160002060000160016101000a81548160ff02191690831515021790555050565b60008073ffffffffffffffffffffffffffffffffffffffff168273ffffffffffffffffffffffffffffffffffffffff16141561062657600080fd5b600560008373ffffffffffffffffffffffffffffffffffffffff1673ffffffffffffffffffffffffffffffffffffffff16815260200190815260200160002060000160009054906101000a900460ff169050919050565b6000806000806060806060806000600360008d81526020019081526020016000206000015414156106ad57600080fd5b6000600360008d815260200190815260200160002090506040518060400160405280600781526020017f70726f6475637400000000000000000000000000000000000000000000000000815250805190602001208b80519060200120141561072557600360008d815260200190815260200160002090505b6040518060400160405280600781526020017f686973746f727900000000000000000000000000000000000000000000000000815250805190602001208b8051906020012014156107cf57600460008d81526020019081526020016000206000018a815481106107be577f4e487b7100000000000000000000000000000000000000000000000000000000600052603260045260246000fd5b906000526020600020906015020190505b806000015481600101548260020160009054906101000a900473ffffffffffffffffffffffffffffffffffffffff168360030160000160009054906101000a900473ffffffffffffffffffffffffffffffffffffffff168460030160010185600301600201866003016003018760030160040183805461084e90611cd0565b80601f016020809104026020016040519081016040528092919081815260200182805461087a90611cd0565b80156108c75780601f1061089c576101008083540402835291602001916108c7565b820191906000526020600020905b8154815290600101906020018083116108aa57829003601f168201915b505050505093508280546108da90611cd0565b80601f016020809104026020016040519081016040528092919081815260200182805461090690611cd0565b80156109535780601f1061092857610100808354040283529160200191610953565b820191906000526020600020905b81548152906001019060200180831161093657829003601f168201915b5050505050925081805461096690611cd0565b80601f016020809104026020016040519081016040528092919081815260200182805461099290611cd0565b80156109df5780601f106109b4576101008083540402835291602001916109df565b820191906000526020600020905b8154815290600101906020018083116109c257829003601f168201915b505050505091508080546109f290611cd0565b80601f0160208091040260200160405190810160405280929190818152602001828054610a1e90611cd0565b8015610a6b5780601f10610a4057610100808354040283529160200191610a6b565b820191906000526020600020905b815481529060010190602001808311610a4e57829003601f168201915b5050505050905098509850985098509850985098509850509397509397509397509397565b60006060600080606060008060606000600360008d8152602001908152602001600020600001541415610ac257600080fd5b6000600360008d815260200190815260200160002090506040518060400160405280600781526020017f70726f6475637400000000000000000000000000000000000000000000000000815250805190602001208b805190602001201415610b3a57600360008d815260200190815260200160002090505b6040518060400160405280600781526020017f686973746f727900000000000000000000000000000000000000000000000000815250805190602001208b805190602001201415610be457600460008d81526020019081526020016000206000018a81548110610bd3577f4e487b7100000000000000000000000000000000000000000000000000000000600052603260045260246000fd5b906000526020600020906015020190505b806003016005015481600c0160000182600c016001015483600c016002015484600c016003018560020160149054906101000a900460ff168660090160000160009054906101000a900473ffffffffffffffffffffffffffffffffffffffff1687600901600101868054610c5790611cd0565b80601f0160208091040260200160405190810160405280929190818152602001828054610c8390611cd0565b8015610cd05780601f10610ca557610100808354040283529160200191610cd0565b820191906000526020600020905b815481529060010190602001808311610cb357829003601f168201915b50505050509650838054610ce390611cd0565b80601f0160208091040260200160405190810160405280929190818152602001828054610d0f90611cd0565b8015610d5c5780601f10610d3157610100808354040283529160200191610d5c565b820191906000526020600020905b815481529060010190602001808311610d3f57829003601f168201915b50505050509350808054610d6f90611cd0565b80601f0160208091040260200160405190810160405280929190818152602001828054610d9b90611cd0565b8015610de85780601f10610dbd57610100808354040283529160200191610de8565b820191906000526020600020905b815481529060010190602001808311610dcb57829003601f168201915b5050505050905098509850985098509850985098509850509397509397509397509397565b60006004600084815260200190815260200160002060000160016004600086815260200190815260200160002060000180549050610e4b9190611bed565b81548110610e82577f4e487b7100000000000000000000000000000000000000000000000000000000600052603260045260246000fd5b9060005260206000209060150201905081816014019080519060200190610eaa92919061165b565b50505050565b600073ffffffffffffffffffffffffffffffffffffffff168173ffffffffffffffffffffffffffffffffffffffff161415610eea57600080fd5b610ef3816105eb565b15610efd57600080fd5b6001600560008373ffffffffffffffffffffffffffffffffffffffff1673ffffffffffffffffffffffffffffffffffffffff16815260200190815260200160002060000160006101000a81548160ff02191690831515021790555050565b60606000606080600060606000600360008b8152602001908152602001600020600001541415610f8a57600080fd5b6000600360008b815260200190815260200160002090506040518060400160405280600781526020017f70726f6475637400000000000000000000000000000000000000000000000000815250805190602001208980519060200120141561100257600360008b815260200190815260200160002090505b6040518060400160405280600781526020017f686973746f72790000000000000000000000000000000000000000000000000081525080519060200120898051906020012014156110ac57600460008b8152602001908152602001600020600001888154811061109b577f4e487b7100000000000000000000000000000000000000000000000000000000600052603260045260246000fd5b906000526020600020906015020190505b806009016002018160100160000160009054906101000a900473ffffffffffffffffffffffffffffffffffffffff1682601001600101836010016002018460130160009054906101000a900473ffffffffffffffffffffffffffffffffffffffff168560140185805461111e90611cd0565b80601f016020809104026020016040519081016040528092919081815260200182805461114a90611cd0565b80156111975780601f1061116c57610100808354040283529160200191611197565b820191906000526020600020905b81548152906001019060200180831161117a57829003601f168201915b505050505095508380546111aa90611cd0565b80601f01602080910402602001604051908101604052809291908181526020018280546111d690611cd0565b80156112235780601f106111f857610100808354040283529160200191611223565b820191906000526020600020905b81548152906001019060200180831161120657829003601f168201915b5050505050935082805461123690611cd0565b80601f016020809104026020016040519081016040528092919081815260200182805461126290611cd0565b80156112af5780601f10611284576101008083540402835291602001916112af565b820191906000526020600020905b81548152906001019060200180831161129257829003601f168201915b505050505092508080546112c290611cd0565b80601f01602080910402602001604051908101604052809291908181526020018280546112ee90611cd0565b801561133b5780601f106113105761010080835404028352916020019161133b565b820191906000526020600020905b81548152906001019060200180831161131e57829003601f168201915b505050505090509650965096509650965096505093975093979195509350565b60008073ffffffffffffffffffffffffffffffffffffffff168273ffffffffffffffffffffffffffffffffffffffff16141561139657600080fd5b600560008373ffffffffffffffffffffffffffffffffffffffff1673ffffffffffffffffffffffffffffffffffffffff16815260200190815260200160002060000160019054906101000a900460ff169050919050565b60008073ffffffffffffffffffffffffffffffffffffffff168273ffffffffffffffffffffffffffffffffffffffff16141561142857600080fd5b600560008373ffffffffffffffffffffffffffffffffffffffff1673ffffffffffffffffffffffffffffffffffffffff16815260200190815260200160002060000160029054906101000a900460ff169050919050565b60006003600083815260200190815260200160002060020160149054906101000a900460ff169050919050565b806004600060016000546114c09190611bed565b815260200190815260200160002060000160016004600060016000546114e69190611bed565b8152602001908152602001600020600001805490506115059190611bed565b8154811061153c577f4e487b7100000000000000000000000000000000000000000000000000000000600052603260045260246000fd5b9060005260206000209060150201601401908051906020019061156092919061165b565b5050565b60008054905090565b600073ffffffffffffffffffffffffffffffffffffffff168173ffffffffffffffffffffffffffffffffffffffff1614156115a757600080fd5b6115b0816113ed565b156115ba57600080fd5b6001600560008373ffffffffffffffffffffffffffffffffffffffff1673ffffffffffffffffffffffffffffffffffffffff16815260200190815260200160002060000160026101000a81548160ff02191690831515021790555050565b60005481565b60606040518060400160405280601d81526020017f48656c6c6f2066726f6d207465737446756e6374696f6e43616c6c2829000000815250905090565b82805461166790611cd0565b90600052602060002090601f01602090048101928261168957600085556116d0565b82601f106116a257805160ff19168380011785556116d0565b828001600101855582156116d0579182015b828111156116cf5782518255916020019190600101906116b4565b5b5090506116dd91906116e1565b5090565b5b808211156116fa5760008160009055506001016116e2565b5090565b600061171161170c84611ba1565b611b70565b90508281526020810184848401111561172957600080fd5b611734848285611c8e565b509392505050565b60008135905061174b81611de3565b92915050565b600082601f83011261176257600080fd5b81356117728482602086016116fe565b91505092915050565b60008135905061178a81611dfa565b92915050565b6000602082840312156117a257600080fd5b60006117b08482850161173c565b91505092915050565b6000602082840312156117cb57600080fd5b600082013567ffffffffffffffff8111156117e557600080fd5b6117f184828501611751565b91505092915050565b60006020828403121561180c57600080fd5b600061181a8482850161177b565b91505092915050565b6000806040838503121561183657600080fd5b60006118448582860161177b565b925050602083013567ffffffffffffffff81111561186157600080fd5b61186d85828601611751565b9150509250929050565b60008060006060848603121561188c57600080fd5b600061189a8682870161177b565b935050602084013567ffffffffffffffff8111156118b757600080fd5b6118c386828701611751565b92505060406118d48682870161177b565b9150509250925092565b6118e781611c21565b82525050565b6118f681611c33565b82525050565b61190581611c7c565b82525050565b600061191682611bd1565b6119208185611bdc565b9350611930818560208601611c9d565b61193981611dbe565b840191505092915050565b61194d81611c72565b82525050565b600060208201905061196860008301846118ed565b92915050565b600060208201905061198360008301846118fc565b92915050565b600060208201905081810360008301526119a3818461190b565b905092915050565b600060c08201905081810360008301526119c5818961190b565b90506119d460208301886118de565b81810360408301526119e6818761190b565b905081810360608301526119fa818661190b565b9050611a0960808301856118de565b81810360a0830152611a1b818461190b565b9050979650505050505050565b6000602082019050611a3d6000830184611944565b92915050565b600061010082019050611a59600083018b611944565b8181036020830152611a6b818a61190b565b9050611a7a6040830189611944565b611a876060830188611944565b8181036080830152611a99818761190b565b9050611aa860a08301866118fc565b611ab560c08301856118de565b81810360e0830152611ac7818461190b565b90509998505050505050505050565b600061010082019050611aec600083018b611944565b611af9602083018a611944565b611b0660408301896118de565b611b1360608301886118de565b8181036080830152611b25818761190b565b905081810360a0830152611b39818661190b565b905081810360c0830152611b4d818561190b565b905081810360e0830152611b61818461190b565b90509998505050505050505050565b6000604051905081810181811067ffffffffffffffff82111715611b9757611b96611d8f565b5b8060405250919050565b600067ffffffffffffffff821115611bbc57611bbb611d8f565b5b601f19601f8301169050602081019050919050565b600081519050919050565b600082825260208201905092915050565b6000611bf882611c72565b9150611c0383611c72565b925082821015611c1657611c15611d02565b5b828203905092915050565b6000611c2c82611c52565b9050919050565b60008115159050919050565b6000819050611c4d82611dcf565b919050565b600073ffffffffffffffffffffffffffffffffffffffff82169050919050565b6000819050919050565b6000611c8782611c3f565b9050919050565b82818337600083830152505050565b60005b83811015611cbb578082015181840152602081019050611ca0565b83811115611cca576000848401525b50505050565b60006002820490506001821680611ce857607f821691505b60208210811415611cfc57611cfb611d60565b5b50919050565b7f4e487b7100000000000000000000000000000000000000000000000000000000600052601160045260246000fd5b7f4e487b7100000000000000000000000000000000000000000000000000000000600052602160045260246000fd5b7f4e487b7100000000000000000000000000000000000000000000000000000000600052602260045260246000fd5b7f4e487b7100000000000000000000000000000000000000000000000000000000600052604160045260246000fd5b6000601f19601f8301169050919050565b60098110611de057611ddf611d31565b5b50565b611dec81611c21565b8114611df757600080fd5b50565b611e0381611c72565b8114611e0e57600080fd5b5056fea2646970667358221220b277efc5b99a9499448c8ed222e76b479ee82fe465da707109362fc28606b0ee64736f6c63430008000033",
  "linkReferences": {},
  "deployedLinkReferences": {}
}