{
  "_format": "hh-sol-artifact-1",
  "contractName": "SupplyChainStep9",
  "sourceName": "contracts/SupplyChainStep9.sol",
  "abi": [
    {
      "anonymous": false,
      "inputs": [
        {
          "indexed": false,
          "internalType": "uint256",
          "name": "uid",
          "type": "uint256"
        }
      ],
      "name": "Manufactured",
      "type": "event"
    },
    {
      "anonymous": false,
      "inputs": [
        {
          "indexed": true,
          "internalType": "address",
          "name": "_account",
          "type": "address"
        }
      ],
      "name": "ManufacturerAdded",
      "type": "event"
    },
    {
      "anonymous": false,
      "inputs": [
        {
          "indexed": false,
          "internalType": "uint256",
          "name": "uid",
          "type": "uint256"
        }
      ],
      "name": "PurchasedByCustomer",
      "type": "event"
    },
    {
      "anonymous": false,
      "inputs": [
        {
          "indexed": false,
          "internalType": "uint256",
          "name": "uid",
          "type": "uint256"
        }
      ],
      "name": "PurchasedByThirdParty",
      "type": "event"
    },
    {
      "anonymous": false,
      "inputs": [
        {
          "indexed": false,
          "internalType": "uint256",
          "name": "uid",
          "type": "uint256"
        }
      ],
      "name": "ReceivedByCustomer",
      "type": "event"
    },
    {
      "anonymous": false,
      "inputs": [
        {
          "indexed": false,
          "internalType": "uint256",
          "name": "uid",
          "type": "uint256"
        }
      ],
      "name": "ReceivedByDeliveryHub",
      "type": "event"
    },
    {
      "anonymous": false,
      "inputs": [
        {
          "indexed": false,
          "internalType": "uint256",
          "name": "uid",
          "type": "uint256"
        }
      ],
      "name": "ReceivedByThirdParty",
      "type": "event"
    },
    {
      "anonymous": false,
      "inputs": [
        {
          "indexed": false,
          "internalType": "uint256",
          "name": "uid",
          "type": "uint256"
        }
      ],
      "name": "ShippedByDeliveryHub",
      "type": "event"
    },
    {
      "anonymous": false,
      "inputs": [
        {
          "indexed": false,
          "internalType": "uint256",
          "name": "uid",
          "type": "uint256"
        }
      ],
      "name": "ShippedByManufacturer",
      "type": "event"
    },
    {
      "anonymous": false,
      "inputs": [
        {
          "indexed": false,
          "internalType": "uint256",
          "name": "uid",
          "type": "uint256"
        }
      ],
      "name": "ShippedByThirdParty",
      "type": "event"
    },
    {
      "inputs": [
        {
          "internalType": "address",
          "name": "_account",
          "type": "address"
        }
      ],
      "name": "addCustomerRole",
      "outputs": [],
      "stateMutability": "nonpayable",
      "type": "function"
    },
    {
      "inputs": [
        {
          "internalType": "address",
          "name": "_account",
          "type": "address"
        }
      ],
      "name": "addDeliveryHubRole",
      "outputs": [],
      "stateMutability": "nonpayable",
      "type": "function"
    },
    {
      "inputs": [
        {
          "internalType": "address",
          "name": "_account",
          "type": "address"
        }
      ],
      "name": "addManufacturerRole",
      "outputs": [],
      "stateMutability": "nonpayable",
      "type": "function"
    },
    {
      "inputs": [
        {
          "internalType": "address",
          "name": "_account",
          "type": "address"
        }
      ],
      "name": "addThirdPartyRole",
      "outputs": [],
      "stateMutability": "nonpayable",
      "type": "function"
    },
    {
      "inputs": [],
      "name": "fetchProductCount",
      "outputs": [
        {
          "internalType": "uint256",
          "name": "",
          "type": "uint256"
        }
      ],
      "stateMutability": "view",
      "type": "function"
    },
    {
      "inputs": [
        {
          "internalType": "uint256",
          "name": "_uid",
          "type": "uint256"
        }
      ],
      "name": "fetchProductHistoryLength",
      "outputs": [
        {
          "internalType": "uint256",
          "name": "",
          "type": "uint256"
        }
      ],
      "stateMutability": "view",
      "type": "function"
    },
    {
      "inputs": [
        {
          "internalType": "uint256",
          "name": "_uid",
          "type": "uint256"
        },
        {
          "internalType": "string",
          "name": "_type",
          "type": "string"
        },
        {
          "internalType": "uint256",
          "name": "i",
          "type": "uint256"
        }
      ],
      "name": "fetchProductPart1",
      "outputs": [
        {
          "internalType": "uint256",
          "name": "",
          "type": "uint256"
        },
        {
          "internalType": "uint256",
          "name": "",
          "type": "uint256"
        },
        {
          "internalType": "address",
          "name": "",
          "type": "address"
        },
        {
          "internalType": "address",
          "name": "",
          "type": "address"
        },
        {
          "internalType": "string",
          "name": "",
          "type": "string"
        },
        {
          "internalType": "string",
          "name": "",
          "type": "string"
        },
        {
          "internalType": "string",
          "name": "",
          "type": "string"
        },
        {
          "internalType": "string",
          "name": "",
          "type": "string"
        }
      ],
      "stateMutability": "view",
      "type": "function"
    },
    {
      "inputs": [
        {
          "internalType": "uint256",
          "name": "_uid",
          "type": "uint256"
        },
        {
          "internalType": "string",
          "name": "_type",
          "type": "string"
        },
        {
          "internalType": "uint256",
          "name": "i",
          "type": "uint256"
        }
      ],
      "name": "fetchProductPart2",
      "outputs": [
        {
          "internalType": "uint256",
          "name": "",
          "type": "uint256"
        },
        {
          "internalType": "string",
          "name": "",
          "type": "string"
        },
        {
          "internalType": "uint256",
          "name": "",
          "type": "uint256"
        },
        {
          "internalType": "uint256",
          "name": "",
          "type": "uint256"
        },
        {
          "internalType": "string",
          "name": "",
          "type": "string"
        },
        {
          "internalType": "enum Structure.State",
          "name": "",
          "type": "uint8"
        },
        {
          "internalType": "address",
          "name": "",
          "type": "address"
        },
        {
          "internalType": "string",
          "name": "",
          "type": "string"
        }
      ],
      "stateMutability": "view",
      "type": "function"
    },
    {
      "inputs": [
        {
          "internalType": "uint256",
          "name": "_uid",
          "type": "uint256"
        },
        {
          "internalType": "string",
          "name": "_type",
          "type": "string"
        },
        {
          "internalType": "uint256",
          "name": "i",
          "type": "uint256"
        }
      ],
      "name": "fetchProductPart3",
      "outputs": [
        {
          "internalType": "string",
          "name": "",
          "type": "string"
        },
        {
          "internalType": "address",
          "name": "",
          "type": "address"
        },
        {
          "internalType": "string",
          "name": "",
          "type": "string"
        },
        {
          "internalType": "string",
          "name": "",
          "type": "string"
        },
        {
          "internalType": "address",
          "name": "",
          "type": "address"
        },
        {
          "internalType": "string",
          "name": "",
          "type": "string"
        }
      ],
      "stateMutability": "view",
      "type": "function"
    },
    {
      "inputs": [
        {
          "internalType": "uint256",
          "name": "_uid",
          "type": "uint256"
        }
      ],
      "name": "fetchProductState",
      "outputs": [
        {
          "internalType": "enum Structure.State",
          "name": "",
          "type": "uint8"
        }
      ],
      "stateMutability": "view",
      "type": "function"
    },
    {
      "inputs": [
        {
          "internalType": "address",
          "name": "_account",
          "type": "address"
        }
      ],
      "name": "hasCustomerRole",
      "outputs": [
        {
          "internalType": "bool",
          "name": "",
          "type": "bool"
        }
      ],
      "stateMutability": "view",
      "type": "function"
    },
    {
      "inputs": [
        {
          "internalType": "address",
          "name": "_account",
          "type": "address"
        }
      ],
      "name": "hasDeliveryHubRole",
      "outputs": [
        {
          "internalType": "bool",
          "name": "",
          "type": "bool"
        }
      ],
      "stateMutability": "view",
      "type": "function"
    },
    {
      "inputs": [
        {
          "internalType": "address",
          "name": "_account",
          "type": "address"
        }
      ],
      "name": "hasManufacturerRole",
      "outputs": [
        {
          "internalType": "bool",
          "name": "",
          "type": "bool"
        }
      ],
      "stateMutability": "view",
      "type": "function"
    },
    {
      "inputs": [
        {
          "internalType": "address",
          "name": "_account",
          "type": "address"
        }
      ],
      "name": "hasThirdPartyRole",
      "outputs": [
        {
          "internalType": "bool",
          "name": "",
          "type": "bool"
        }
      ],
      "stateMutability": "view",
      "type": "function"
    },
    {
      "inputs": [
        {
          "internalType": "uint256",
          "name": "_uid",
          "type": "uint256"
        }
      ],
      "name": "receiveByCustomer",
      "outputs": [],
      "stateMutability": "nonpayable",
      "type": "function"
    },
    {
      "inputs": [
        {
          "internalType": "uint256",
          "name": "_uid",
          "type": "uint256"
        },
        {
          "internalType": "string",
          "name": "tran",
          "type": "string"
        }
      ],
      "name": "setTransactionHash",
      "outputs": [],
      "stateMutability": "nonpayable",
      "type": "function"
    },
    {
      "inputs": [
        {
          "internalType": "string",
          "name": "tran",
          "type": "string"
        }
      ],
      "name": "setTransactionHashOnManufacture",
      "outputs": [],
      "stateMutability": "nonpayable",
      "type": "function"
    },
    {
      "inputs": [],
      "name": "testFunctionCall",
      "outputs": [
        {
          "internalType": "string",
          "name": "",
          "type": "string"
        }
      ],
      "stateMutability": "pure",
      "type": "function"
    },
    {
      "inputs": [],
      "name": "uid",
      "outputs": [
        {
          "internalType": "uint256",
          "name": "",
          "type": "uint256"
        }
      ],
      "stateMutability": "view",
      "type": "function"
    }
  ],
  "bytecode": "0x608060405234801561001057600080fd5b5033600260006101000a81548173ffffffffffffffffffffffffffffffffffffffff021916908373ffffffffffffffffffffffffffffffffffffffff160217905550600180819055506001600081905550612587806100706000396000f3fe608060405234801561001057600080fd5b50600436106101215760003560e01c80638290f859116100ad578063e55128ea11610071578063e55128ea14610375578063f16791b314610391578063f4121b67146103af578063f514ce36146103cb578063fb0c5ea3146103e957610121565b80638290f8591461029457806398c95889146102b0578063cd2885e0146102e5578063d44bebcc14610315578063e2f1fe141461034557610121565b80636000ada1116100f45780636000ada1146101be578063658db497146101ee5780636f1fe8d71461022557806372df397e1461025c578063786ea1611461027857610121565b8063024edf9a14610126578063405ba7ef14610156578063453dd4af146101865780635212e510146101a2575b600080fd5b610140600480360381019061013b9190611ed0565b610407565b60405161014d9190612093565b60405180910390f35b610170600480360381019061016b9190611f3a565b610499565b60405161017d9190612168565b60405180910390f35b6101a0600480360381019061019b9190611ed0565b6104bc565b005b6101bc60048036038101906101b79190611ed0565b610567565b005b6101d860048036038101906101d39190611ed0565b610612565b6040516101e59190612093565b60405180910390f35b61020860048036038101906102039190611fb7565b6106a4565b60405161021c989796959493929190612216565b60405180910390f35b61023f600480360381019061023a9190611fb7565b610ab7565b604051610253989796959493929190612183565b60405180910390f35b61027660048036038101906102719190611f3a565b610e34565b005b610292600480360381019061028d9190611f63565b6114c0565b005b6102ae60048036038101906102a99190611ed0565b611563565b005b6102ca60048036038101906102c59190611fb7565b61160e565b6040516102dc969594939291906120eb565b60405180910390f35b6102ff60048036038101906102fa9190611ed0565b611a0e565b60405161030c9190612093565b60405180910390f35b61032f600480360381019061032a9190611ed0565b611aa0565b60405161033c9190612093565b60405180910390f35b61035f600480360381019061035a9190611f3a565b611b32565b60405161036c91906120ae565b60405180910390f35b61038f600480360381019061038a9190611ef9565b611b5f565b005b610399611c17565b6040516103a69190612168565b60405180910390f35b6103c960048036038101906103c49190611ed0565b611c20565b005b6103d3611ccb565b6040516103e09190612168565b60405180910390f35b6103f1611cd1565b6040516103fe91906120c9565b60405180910390f35b60008073ffffffffffffffffffffffffffffffffffffffff168273ffffffffffffffffffffffffffffffffffffffff16141561044257600080fd5b600560008373ffffffffffffffffffffffffffffffffffffffff1673ffffffffffffffffffffffffffffffffffffffff16815260200190815260200160002060000160039054906101000a900460ff169050919050565b600060046000838152602001908152602001600020600001805490509050919050565b600073ffffffffffffffffffffffffffffffffffffffff168173ffffffffffffffffffffffffffffffffffffffff1614156104f657600080fd5b6104ff81611aa0565b1561050957600080fd5b6001600560008373ffffffffffffffffffffffffffffffffffffffff1673ffffffffffffffffffffffffffffffffffffffff16815260200190815260200160002060000160036101000a81548160ff02191690831515021790555050565b600073ffffffffffffffffffffffffffffffffffffffff168173ffffffffffffffffffffffffffffffffffffffff1614156105a157600080fd5b6105aa81611a0e565b156105b457600080fd5b6001600560008373ffffffffffffffffffffffffffffffffffffffff1673ffffffffffffffffffffffffffffffffffffffff16815260200190815260200160002060000160016101000a81548160ff02191690831515021790555050565b60008073ffffffffffffffffffffffffffffffffffffffff168273ffffffffffffffffffffffffffffffffffffffff16141561064d57600080fd5b600560008373ffffffffffffffffffffffffffffffffffffffff1673ffffffffffffffffffffffffffffffffffffffff16815260200190815260200160002060000160009054906101000a900460ff169050919050565b6000806000806060806060806000600360008d81526020019081526020016000206000015414156106d457600080fd5b6000600360008d815260200190815260200160002090506040518060400160405280600781526020017f70726f6475637400000000000000000000000000000000000000000000000000815250805190602001208b80519060200120141561074c57600360008d815260200190815260200160002090505b6040518060400160405280600781526020017f686973746f727900000000000000000000000000000000000000000000000000815250805190602001208b8051906020012014156107f657600460008d81526020019081526020016000206000018a815481106107e5577f4e487b7100000000000000000000000000000000000000000000000000000000600052603260045260246000fd5b906000526020600020906015020190505b806000015481600101548260020160009054906101000a900473ffffffffffffffffffffffffffffffffffffffff168360030160000160009054906101000a900473ffffffffffffffffffffffffffffffffffffffff168460030160010185600301600201866003016003018760030160040183805461087590612410565b80601f01602080910402602001604051908101604052809291908181526020018280546108a190612410565b80156108ee5780601f106108c3576101008083540402835291602001916108ee565b820191906000526020600020905b8154815290600101906020018083116108d157829003601f168201915b5050505050935082805461090190612410565b80601f016020809104026020016040519081016040528092919081815260200182805461092d90612410565b801561097a5780601f1061094f5761010080835404028352916020019161097a565b820191906000526020600020905b81548152906001019060200180831161095d57829003601f168201915b5050505050925081805461098d90612410565b80601f01602080910402602001604051908101604052809291908181526020018280546109b990612410565b8015610a065780601f106109db57610100808354040283529160200191610a06565b820191906000526020600020905b8154815290600101906020018083116109e957829003601f168201915b50505050509150808054610a1990612410565b80601f0160208091040260200160405190810160405280929190818152602001828054610a4590612410565b8015610a925780601f10610a6757610100808354040283529160200191610a92565b820191906000526020600020905b815481529060010190602001808311610a7557829003601f168201915b5050505050905098509850985098509850985098509850509397509397509397509397565b60006060600080606060008060606000600360008d8152602001908152602001600020600001541415610ae957600080fd5b6000600360008d815260200190815260200160002090506040518060400160405280600781526020017f70726f6475637400000000000000000000000000000000000000000000000000815250805190602001208b805190602001201415610b6157600360008d815260200190815260200160002090505b6040518060400160405280600781526020017f686973746f727900000000000000000000000000000000000000000000000000815250805190602001208b805190602001201415610c0b57600460008d81526020019081526020016000206000018a81548110610bfa577f4e487b7100000000000000000000000000000000000000000000000000000000600052603260045260246000fd5b906000526020600020906015020190505b806003016005015481600c0160000182600c016001015483600c016002015484600c016003018560020160149054906101000a900460ff168660090160000160009054906101000a900473ffffffffffffffffffffffffffffffffffffffff1687600901600101868054610c7e90612410565b80601f0160208091040260200160405190810160405280929190818152602001828054610caa90612410565b8015610cf75780601f10610ccc57610100808354040283529160200191610cf7565b820191906000526020600020905b815481529060010190602001808311610cda57829003601f168201915b50505050509650838054610d0a90612410565b80601f0160208091040260200160405190810160405280929190818152602001828054610d3690612410565b8015610d835780601f10610d5857610100808354040283529160200191610d83565b820191906000526020600020905b815481529060010190602001808311610d6657829003601f168201915b50505050509350808054610d9690612410565b80601f0160208091040260200160405190810160405280929190818152602001828054610dc290612410565b8015610e0f5780601f10610de457610100808354040283529160200191610e0f565b820191906000526020600020905b815481529060010190602001808311610df257829003601f168201915b5050505050905098509850985098509850985098509850509397509397509397509397565b8060076008811115610e6f577f4e487b7100000000000000000000000000000000000000000000000000000000600052602160045260246000fd5b6003600083815260200190815260200160002060020160149054906101000a900460ff166008811115610ecb577f4e487b7100000000000000000000000000000000000000000000000000000000600052602160045260246000fd5b14610ed557600080fd5b6003600083815260200190815260200160002060130160009054906101000a900473ffffffffffffffffffffffffffffffffffffffff168073ffffffffffffffffffffffffffffffffffffffff163373ffffffffffffffffffffffffffffffffffffffff1614610f4457600080fd5b610f4d33610407565b610f5657600080fd5b336003600085815260200190815260200160002060020160006101000a81548173ffffffffffffffffffffffffffffffffffffffff021916908373ffffffffffffffffffffffffffffffffffffffff16021790555060086003600085815260200190815260200160002060020160146101000a81548160ff0219169083600881111561100b577f4e487b7100000000000000000000000000000000000000000000000000000000600052602160045260246000fd5b02179055506004600084815260200190815260200160002060000160036000858152602001908152602001600020908060018154018082558091505060019003906000526020600020906015020160009091909190915060008201548160000155600182015481600101556002820160009054906101000a900473ffffffffffffffffffffffffffffffffffffffff168160020160006101000a81548173ffffffffffffffffffffffffffffffffffffffff021916908373ffffffffffffffffffffffffffffffffffffffff1602179055506002820160149054906101000a900460ff168160020160146101000a81548160ff0219169083600881111561113b577f4e487b7100000000000000000000000000000000000000000000000000000000600052602160045260246000fd5b021790555060038201816003016000820160009054906101000a900473ffffffffffffffffffffffffffffffffffffffff168160000160006101000a81548173ffffffffffffffffffffffffffffffffffffffff021916908373ffffffffffffffffffffffffffffffffffffffff16021790555060018201816001019080546111c390612410565b6111ce929190611d0e565b5060028201816002019080546111e390612410565b6111ee929190611d0e565b50600382018160030190805461120390612410565b61120e929190611d0e565b50600482018160040190805461122390612410565b61122e929190611d0e565b5060058201548160050155505060098201816009016000820160009054906101000a900473ffffffffffffffffffffffffffffffffffffffff168160000160006101000a81548173ffffffffffffffffffffffffffffffffffffffff021916908373ffffffffffffffffffffffffffffffffffffffff16021790555060018201816001019080546112be90612410565b6112c9929190611d0e565b5060028201816002019080546112de90612410565b6112e9929190611d0e565b505050600c820181600c01600082018160000190805461130890612410565b611313929190611d0e565b506001820154816001015560028201548160020155600382018160030190805461133c90612410565b611347929190611d0e565b50505060108201816010016000820160009054906101000a900473ffffffffffffffffffffffffffffffffffffffff168160000160006101000a81548173ffffffffffffffffffffffffffffffffffffffff021916908373ffffffffffffffffffffffffffffffffffffffff16021790555060018201816001019080546113cd90612410565b6113d8929190611d0e565b5060028201816002019080546113ed90612410565b6113f8929190611d0e565b5050506013820160009054906101000a900473ffffffffffffffffffffffffffffffffffffffff168160130160006101000a81548173ffffffffffffffffffffffffffffffffffffffff021916908373ffffffffffffffffffffffffffffffffffffffff160217905550601482018160140190805461147690612410565b611481929190611d0e565b5050507f8a746d5b91a9a334d1abbeee7d031aac6d5c59ea6e982ac06aef4346cce5749e836040516114b39190612168565b60405180910390a1505050565b600060046000848152602001908152602001600020600001600160046000868152602001908152602001600020600001805490506114fe919061232d565b81548110611535577f4e487b7100000000000000000000000000000000000000000000000000000000600052603260045260246000fd5b906000526020600020906015020190508181601401908051906020019061155d929190611d9b565b50505050565b600073ffffffffffffffffffffffffffffffffffffffff168173ffffffffffffffffffffffffffffffffffffffff16141561159d57600080fd5b6115a681610612565b156115b057600080fd5b6001600560008373ffffffffffffffffffffffffffffffffffffffff1673ffffffffffffffffffffffffffffffffffffffff16815260200190815260200160002060000160006101000a81548160ff02191690831515021790555050565b60606000606080600060606000600360008b815260200190815260200160002060000154141561163d57600080fd5b6000600360008b815260200190815260200160002090506040518060400160405280600781526020017f70726f647563740000000000000000000000000000000000000000000000000081525080519060200120898051906020012014156116b557600360008b815260200190815260200160002090505b6040518060400160405280600781526020017f686973746f727900000000000000000000000000000000000000000000000000815250805190602001208980519060200120141561175f57600460008b8152602001908152602001600020600001888154811061174e577f4e487b7100000000000000000000000000000000000000000000000000000000600052603260045260246000fd5b906000526020600020906015020190505b806009016002018160100160000160009054906101000a900473ffffffffffffffffffffffffffffffffffffffff1682601001600101836010016002018460130160009054906101000a900473ffffffffffffffffffffffffffffffffffffffff16856014018580546117d190612410565b80601f01602080910402602001604051908101604052809291908181526020018280546117fd90612410565b801561184a5780601f1061181f5761010080835404028352916020019161184a565b820191906000526020600020905b81548152906001019060200180831161182d57829003601f168201915b5050505050955083805461185d90612410565b80601f016020809104026020016040519081016040528092919081815260200182805461188990612410565b80156118d65780601f106118ab576101008083540402835291602001916118d6565b820191906000526020600020905b8154815290600101906020018083116118b957829003601f168201915b505050505093508280546118e990612410565b80601f016020809104026020016040519081016040528092919081815260200182805461191590612410565b80156119625780601f1061193757610100808354040283529160200191611962565b820191906000526020600020905b81548152906001019060200180831161194557829003601f168201915b5050505050925080805461197590612410565b80601f01602080910402602001604051908101604052809291908181526020018280546119a190612410565b80156119ee5780601f106119c3576101008083540402835291602001916119ee565b820191906000526020600020905b8154815290600101906020018083116119d157829003601f168201915b505050505090509650965096509650965096505093975093979195509350565b60008073ffffffffffffffffffffffffffffffffffffffff168273ffffffffffffffffffffffffffffffffffffffff161415611a4957600080fd5b600560008373ffffffffffffffffffffffffffffffffffffffff1673ffffffffffffffffffffffffffffffffffffffff16815260200190815260200160002060000160019054906101000a900460ff169050919050565b60008073ffffffffffffffffffffffffffffffffffffffff168273ffffffffffffffffffffffffffffffffffffffff161415611adb57600080fd5b600560008373ffffffffffffffffffffffffffffffffffffffff1673ffffffffffffffffffffffffffffffffffffffff16815260200190815260200160002060000160029054906101000a900460ff169050919050565b60006003600083815260200190815260200160002060020160149054906101000a900460ff169050919050565b80600460006001600054611b73919061232d565b81526020019081526020016000206000016001600460006001600054611b99919061232d565b815260200190815260200160002060000180549050611bb8919061232d565b81548110611bef577f4e487b7100000000000000000000000000000000000000000000000000000000600052603260045260246000fd5b90600052602060002090601502016014019080519060200190611c13929190611d9b565b5050565b60008054905090565b600073ffffffffffffffffffffffffffffffffffffffff168173ffffffffffffffffffffffffffffffffffffffff161415611c5a57600080fd5b611c6381611aa0565b15611c6d57600080fd5b6001600560008373ffffffffffffffffffffffffffffffffffffffff1673ffffffffffffffffffffffffffffffffffffffff16815260200190815260200160002060000160026101000a81548160ff02191690831515021790555050565b60005481565b60606040518060400160405280601d81526020017f48656c6c6f2066726f6d207465737446756e6374696f6e43616c6c2829000000815250905090565b828054611d1a90612410565b90600052602060002090601f016020900481019282611d3c5760008555611d8a565b82601f10611d4d5780548555611d8a565b82800160010185558215611d8a57600052602060002091601f016020900482015b82811115611d89578254825591600101919060010190611d6e565b5b509050611d979190611e21565b5090565b828054611da790612410565b90600052602060002090601f016020900481019282611dc95760008555611e10565b82601f10611de257805160ff1916838001178555611e10565b82800160010185558215611e10579182015b82811115611e0f578251825591602001919060010190611df4565b5b509050611e1d9190611e21565b5090565b5b80821115611e3a576000816000905550600101611e22565b5090565b6000611e51611e4c846122e1565b6122b0565b905082815260208101848484011115611e6957600080fd5b611e748482856123ce565b509392505050565b600081359050611e8b81612523565b92915050565b600082601f830112611ea257600080fd5b8135611eb2848260208601611e3e565b91505092915050565b600081359050611eca8161253a565b92915050565b600060208284031215611ee257600080fd5b6000611ef084828501611e7c565b91505092915050565b600060208284031215611f0b57600080fd5b600082013567ffffffffffffffff811115611f2557600080fd5b611f3184828501611e91565b91505092915050565b600060208284031215611f4c57600080fd5b6000611f5a84828501611ebb565b91505092915050565b60008060408385031215611f7657600080fd5b6000611f8485828601611ebb565b925050602083013567ffffffffffffffff811115611fa157600080fd5b611fad85828601611e91565b9150509250929050565b600080600060608486031215611fcc57600080fd5b6000611fda86828701611ebb565b935050602084013567ffffffffffffffff811115611ff757600080fd5b61200386828701611e91565b925050604061201486828701611ebb565b9150509250925092565b61202781612361565b82525050565b61203681612373565b82525050565b612045816123bc565b82525050565b600061205682612311565b612060818561231c565b93506120708185602086016123dd565b612079816124fe565b840191505092915050565b61208d816123b2565b82525050565b60006020820190506120a8600083018461202d565b92915050565b60006020820190506120c3600083018461203c565b92915050565b600060208201905081810360008301526120e3818461204b565b905092915050565b600060c0820190508181036000830152612105818961204b565b9050612114602083018861201e565b8181036040830152612126818761204b565b9050818103606083015261213a818661204b565b9050612149608083018561201e565b81810360a083015261215b818461204b565b9050979650505050505050565b600060208201905061217d6000830184612084565b92915050565b600061010082019050612199600083018b612084565b81810360208301526121ab818a61204b565b90506121ba6040830189612084565b6121c76060830188612084565b81810360808301526121d9818761204b565b90506121e860a083018661203c565b6121f560c083018561201e565b81810360e0830152612207818461204b565b90509998505050505050505050565b60006101008201905061222c600083018b612084565b612239602083018a612084565b612246604083018961201e565b612253606083018861201e565b8181036080830152612265818761204b565b905081810360a0830152612279818661204b565b905081810360c083015261228d818561204b565b905081810360e08301526122a1818461204b565b90509998505050505050505050565b6000604051905081810181811067ffffffffffffffff821117156122d7576122d66124cf565b5b8060405250919050565b600067ffffffffffffffff8211156122fc576122fb6124cf565b5b601f19601f8301169050602081019050919050565b600081519050919050565b600082825260208201905092915050565b6000612338826123b2565b9150612343836123b2565b92508282101561235657612355612442565b5b828203905092915050565b600061236c82612392565b9050919050565b60008115159050919050565b600081905061238d8261250f565b919050565b600073ffffffffffffffffffffffffffffffffffffffff82169050919050565b6000819050919050565b60006123c78261237f565b9050919050565b82818337600083830152505050565b60005b838110156123fb5780820151818401526020810190506123e0565b8381111561240a576000848401525b50505050565b6000600282049050600182168061242857607f821691505b6020821081141561243c5761243b6124a0565b5b50919050565b7f4e487b7100000000000000000000000000000000000000000000000000000000600052601160045260246000fd5b7f4e487b7100000000000000000000000000000000000000000000000000000000600052602160045260246000fd5b7f4e487b7100000000000000000000000000000000000000000000000000000000600052602260045260246000fd5b7f4e487b7100000000000000000000000000000000000000000000000000000000600052604160045260246000fd5b6000601f19601f8301169050919050565b600981106125205761251f612471565b5b50565b61252c81612361565b811461253757600080fd5b50565b612543816123b2565b811461254e57600080fd5b5056fea264697066735822122035376d73fa5d4358bd0cf43f9ba10a234ca0a4b40c62a809d00b7ca2b2d51f0264736f6c63430008000033",
  "linkReferences": {},
  "deployedLinkReferences": {}
}