{
  "_format": "hh-sol-artifact-1",
  "contractName": "SupplyChainStep1",
  "sourceName": "contracts/SupplyChainStep1.sol",
  "abi": [
    {
      "anonymous": false,
      "inputs": [
        {
          "indexed": false,
          "internalType": "uint256",
          "name": "uid",
          "type": "uint256"
        }
      ],
      "name": "Manufactured",
      "type": "event"
    },
    {
      "anonymous": false,
      "inputs": [
        {
          "indexed": true,
          "internalType": "address",
          "name": "_account",
          "type": "address"
        }
      ],
      "name": "ManufacturerAdded",
      "type": "event"
    },
    {
      "anonymous": false,
      "inputs": [
        {
          "indexed": false,
          "internalType": "uint256",
          "name": "uid",
          "type": "uint256"
        }
      ],
      "name": "PurchasedByCustomer",
      "type": "event"
    },
    {
      "anonymous": false,
      "inputs": [
        {
          "indexed": false,
          "internalType": "uint256",
          "name": "uid",
          "type": "uint256"
        }
      ],
      "name": "PurchasedByThirdParty",
      "type": "event"
    },
    {
      "anonymous": false,
      "inputs": [
        {
          "indexed": false,
          "internalType": "uint256",
          "name": "uid",
          "type": "uint256"
        }
      ],
      "name": "ReceivedByCustomer",
      "type": "event"
    },
    {
      "anonymous": false,
      "inputs": [
        {
          "indexed": false,
          "internalType": "uint256",
          "name": "uid",
          "type": "uint256"
        }
      ],
      "name": "ReceivedByDeliveryHub",
      "type": "event"
    },
    {
      "anonymous": false,
      "inputs": [
        {
          "indexed": false,
          "internalType": "uint256",
          "name": "uid",
          "type": "uint256"
        }
      ],
      "name": "ReceivedByThirdParty",
      "type": "event"
    },
    {
      "anonymous": false,
      "inputs": [
        {
          "indexed": false,
          "internalType": "uint256",
          "name": "uid",
          "type": "uint256"
        }
      ],
      "name": "ShippedByDeliveryHub",
      "type": "event"
    },
    {
      "anonymous": false,
      "inputs": [
        {
          "indexed": false,
          "internalType": "uint256",
          "name": "uid",
          "type": "uint256"
        }
      ],
      "name": "ShippedByManufacturer",
      "type": "event"
    },
    {
      "anonymous": false,
      "inputs": [
        {
          "indexed": false,
          "internalType": "uint256",
          "name": "uid",
          "type": "uint256"
        }
      ],
      "name": "ShippedByThirdParty",
      "type": "event"
    },
    {
      "inputs": [
        {
          "internalType": "address",
          "name": "_account",
          "type": "address"
        }
      ],
      "name": "addCustomerRole",
      "outputs": [],
      "stateMutability": "nonpayable",
      "type": "function"
    },
    {
      "inputs": [
        {
          "internalType": "address",
          "name": "_account",
          "type": "address"
        }
      ],
      "name": "addDeliveryHubRole",
      "outputs": [],
      "stateMutability": "nonpayable",
      "type": "function"
    },
    {
      "inputs": [
        {
          "internalType": "address",
          "name": "_account",
          "type": "address"
        }
      ],
      "name": "addManufacturerRole",
      "outputs": [],
      "stateMutability": "nonpayable",
      "type": "function"
    },
    {
      "inputs": [
        {
          "internalType": "address",
          "name": "_account",
          "type": "address"
        }
      ],
      "name": "addThirdPartyRole",
      "outputs": [],
      "stateMutability": "nonpayable",
      "type": "function"
    },
    {
      "inputs": [],
      "name": "fetchProductCount",
      "outputs": [
        {
          "internalType": "uint256",
          "name": "",
          "type": "uint256"
        }
      ],
      "stateMutability": "view",
      "type": "function"
    },
    {
      "inputs": [
        {
          "internalType": "uint256",
          "name": "_uid",
          "type": "uint256"
        }
      ],
      "name": "fetchProductHistoryLength",
      "outputs": [
        {
          "internalType": "uint256",
          "name": "",
          "type": "uint256"
        }
      ],
      "stateMutability": "view",
      "type": "function"
    },
    {
      "inputs": [
        {
          "internalType": "uint256",
          "name": "_uid",
          "type": "uint256"
        },
        {
          "internalType": "string",
          "name": "_type",
          "type": "string"
        },
        {
          "internalType": "uint256",
          "name": "i",
          "type": "uint256"
        }
      ],
      "name": "fetchProductPart1",
      "outputs": [
        {
          "internalType": "uint256",
          "name": "",
          "type": "uint256"
        },
        {
          "internalType": "uint256",
          "name": "",
          "type": "uint256"
        },
        {
          "internalType": "address",
          "name": "",
          "type": "address"
        },
        {
          "internalType": "address",
          "name": "",
          "type": "address"
        },
        {
          "internalType": "string",
          "name": "",
          "type": "string"
        },
        {
          "internalType": "string",
          "name": "",
          "type": "string"
        },
        {
          "internalType": "string",
          "name": "",
          "type": "string"
        },
        {
          "internalType": "string",
          "name": "",
          "type": "string"
        }
      ],
      "stateMutability": "view",
      "type": "function"
    },
    {
      "inputs": [
        {
          "internalType": "uint256",
          "name": "_uid",
          "type": "uint256"
        },
        {
          "internalType": "string",
          "name": "_type",
          "type": "string"
        },
        {
          "internalType": "uint256",
          "name": "i",
          "type": "uint256"
        }
      ],
      "name": "fetchProductPart2",
      "outputs": [
        {
          "internalType": "uint256",
          "name": "",
          "type": "uint256"
        },
        {
          "internalType": "string",
          "name": "",
          "type": "string"
        },
        {
          "internalType": "uint256",
          "name": "",
          "type": "uint256"
        },
        {
          "internalType": "uint256",
          "name": "",
          "type": "uint256"
        },
        {
          "internalType": "string",
          "name": "",
          "type": "string"
        },
        {
          "internalType": "enum Structure.State",
          "name": "",
          "type": "uint8"
        },
        {
          "internalType": "address",
          "name": "",
          "type": "address"
        },
        {
          "internalType": "string",
          "name": "",
          "type": "string"
        }
      ],
      "stateMutability": "view",
      "type": "function"
    },
    {
      "inputs": [
        {
          "internalType": "uint256",
          "name": "_uid",
          "type": "uint256"
        },
        {
          "internalType": "string",
          "name": "_type",
          "type": "string"
        },
        {
          "internalType": "uint256",
          "name": "i",
          "type": "uint256"
        }
      ],
      "name": "fetchProductPart3",
      "outputs": [
        {
          "internalType": "string",
          "name": "",
          "type": "string"
        },
        {
          "internalType": "address",
          "name": "",
          "type": "address"
        },
        {
          "internalType": "string",
          "name": "",
          "type": "string"
        },
        {
          "internalType": "string",
          "name": "",
          "type": "string"
        },
        {
          "internalType": "address",
          "name": "",
          "type": "address"
        },
        {
          "internalType": "string",
          "name": "",
          "type": "string"
        }
      ],
      "stateMutability": "view",
      "type": "function"
    },
    {
      "inputs": [
        {
          "internalType": "uint256",
          "name": "_uid",
          "type": "uint256"
        }
      ],
      "name": "fetchProductState",
      "outputs": [
        {
          "internalType": "enum Structure.State",
          "name": "",
          "type": "uint8"
        }
      ],
      "stateMutability": "view",
      "type": "function"
    },
    {
      "inputs": [
        {
          "internalType": "address",
          "name": "_account",
          "type": "address"
        }
      ],
      "name": "hasCustomerRole",
      "outputs": [
        {
          "internalType": "bool",
          "name": "",
          "type": "bool"
        }
      ],
      "stateMutability": "view",
      "type": "function"
    },
    {
      "inputs": [
        {
          "internalType": "address",
          "name": "_account",
          "type": "address"
        }
      ],
      "name": "hasDeliveryHubRole",
      "outputs": [
        {
          "internalType": "bool",
          "name": "",
          "type": "bool"
        }
      ],
      "stateMutability": "view",
      "type": "function"
    },
    {
      "inputs": [
        {
          "internalType": "address",
          "name": "_account",
          "type": "address"
        }
      ],
      "name": "hasManufacturerRole",
      "outputs": [
        {
          "internalType": "bool",
          "name": "",
          "type": "bool"
        }
      ],
      "stateMutability": "view",
      "type": "function"
    },
    {
      "inputs": [
        {
          "internalType": "address",
          "name": "_account",
          "type": "address"
        }
      ],
      "name": "hasThirdPartyRole",
      "outputs": [
        {
          "internalType": "bool",
          "name": "",
          "type": "bool"
        }
      ],
      "stateMutability": "view",
      "type": "function"
    },
    {
      "inputs": [
        {
          "internalType": "string",
          "name": "manufacturerName",
          "type": "string"
        },
        {
          "internalType": "string",
          "name": "manufacturerDetails",
          "type": "string"
        },
        {
          "internalType": "string",
          "name": "manufacturerLongitude",
          "type": "string"
        },
        {
          "internalType": "string",
          "name": "manufacturerLatitude",
          "type": "string"
        },
        {
          "internalType": "string",
          "name": "productName",
          "type": "string"
        },
        {
          "internalType": "uint256",
          "name": "productCode",
          "type": "uint256"
        },
        {
          "internalType": "uint256",
          "name": "productPrice",
          "type": "uint256"
        },
        {
          "internalType": "string",
          "name": "productCategory",
          "type": "string"
        }
      ],
      "name": "manufactureProduct",
      "outputs": [],
      "stateMutability": "nonpayable",
      "type": "function"
    },
    {
      "inputs": [
        {
          "internalType": "uint256",
          "name": "_uid",
          "type": "uint256"
        },
        {
          "internalType": "string",
          "name": "tran",
          "type": "string"
        }
      ],
      "name": "setTransactionHash",
      "outputs": [],
      "stateMutability": "nonpayable",
      "type": "function"
    },
    {
      "inputs": [
        {
          "internalType": "string",
          "name": "tran",
          "type": "string"
        }
      ],
      "name": "setTransactionHashOnManufacture",
      "outputs": [],
      "stateMutability": "nonpayable",
      "type": "function"
    },
    {
      "inputs": [],
      "name": "testFunctionCall",
      "outputs": [
        {
          "internalType": "string",
          "name": "",
          "type": "string"
        }
      ],
      "stateMutability": "pure",
      "type": "function"
    },
    {
      "inputs": [],
      "name": "uid",
      "outputs": [
        {
          "internalType": "uint256",
          "name": "",
          "type": "uint256"
        }
      ],
      "stateMutability": "view",
      "type": "function"
    }
  ],
  "bytecode": "0x608060405234801561001057600080fd5b5033600260006101000a81548173ffffffffffffffffffffffffffffffffffffffff021916908373ffffffffffffffffffffffffffffffffffffffff160217905550600180819055506001600081905550612c3c806100706000396000f3fe608060405234801561001057600080fd5b50600436106101205760003560e01c80638290f859116100ad578063e55128ea11610071578063e55128ea14610374578063f16791b314610390578063f4121b67146103ae578063f514ce36146103ca578063fb0c5ea3146103e857610120565b80638290f8591461029357806398c95889146102af578063cd2885e0146102e4578063d44bebcc14610314578063e2f1fe141461034457610120565b80635212e510116100f45780635212e510146101bd5780636000ada1146101d9578063658db497146102095780636f1fe8d714610240578063786ea1611461027757610120565b80623375b714610125578063024edf9a14610141578063405ba7ef14610171578063453dd4af146101a1575b600080fd5b61013f600480360381019061013a919061240e565b610406565b005b61015b600480360381019061015691906123a4565b610cfe565b60405161016891906126a9565b60405180910390f35b61018b60048036038101906101869190612550565b610d90565b604051610198919061277e565b60405180910390f35b6101bb60048036038101906101b691906123a4565b610db3565b005b6101d760048036038101906101d291906123a4565b610e5e565b005b6101f360048036038101906101ee91906123a4565b610f09565b60405161020091906126a9565b60405180910390f35b610223600480360381019061021e91906125cd565b610f9b565b60405161023798979695949392919061282c565b60405180910390f35b61025a600480360381019061025591906125cd565b6113ae565b60405161026e989796959493929190612799565b60405180910390f35b610291600480360381019061028c9190612579565b61172b565b005b6102ad60048036038101906102a891906123a4565b6117ce565b005b6102c960048036038101906102c491906125cd565b611879565b6040516102db96959493929190612701565b60405180910390f35b6102fe60048036038101906102f991906123a4565b611c79565b60405161030b91906126a9565b60405180910390f35b61032e600480360381019061032991906123a4565b611d0b565b60405161033b91906126a9565b60405180910390f35b61035e60048036038101906103599190612550565b611d9d565b60405161036b91906126c4565b60405180910390f35b61038e600480360381019061038991906123cd565b611dca565b005b610398611e82565b6040516103a5919061277e565b60405180910390f35b6103c860048036038101906103c391906123a4565b611e8b565b005b6103d2611f36565b6040516103df919061277e565b60405180910390f35b6103f0611f3c565b6040516103fd91906126df565b60405180910390f35b61040f33610f09565b61041857600080fd5b6000805490506104266120be565b600154816020018181525050818160000181815250508981608001516020018190525088816080015160400181905250878160800151606001819052508681608001516080018190525042816080015160a001818152505033816040019073ffffffffffffffffffffffffffffffffffffffff16908173ffffffffffffffffffffffffffffffffffffffff16815250503381608001516000019073ffffffffffffffffffffffffffffffffffffffff16908173ffffffffffffffffffffffffffffffffffffffff16815250506104fb81611f79565b60008160600190600881111561053a577f4e487b7100000000000000000000000000000000000000000000000000000000600052602160045260246000fd5b90816008811115610574577f4e487b7100000000000000000000000000000000000000000000000000000000600052602160045260246000fd5b815250506105858187878787612081565b8060036000848152602001908152602001600020600082015181600001556020820151816001015560408201518160020160006101000a81548173ffffffffffffffffffffffffffffffffffffffff021916908373ffffffffffffffffffffffffffffffffffffffff16021790555060608201518160020160146101000a81548160ff02191690836008811115610645577f4e487b7100000000000000000000000000000000000000000000000000000000600052602160045260246000fd5b021790555060808201518160030160008201518160000160006101000a81548173ffffffffffffffffffffffffffffffffffffffff021916908373ffffffffffffffffffffffffffffffffffffffff16021790555060208201518160010190805190602001906106b692919061218d565b5060408201518160020190805190602001906106d392919061218d565b5060608201518160030190805190602001906106f092919061218d565b50608082015181600401908051906020019061070d92919061218d565b5060a08201518160050155505060a08201518160090160008201518160000160006101000a81548173ffffffffffffffffffffffffffffffffffffffff021916908373ffffffffffffffffffffffffffffffffffffffff160217905550602082015181600101908051906020019061078692919061218d565b5060408201518160020190805190602001906107a392919061218d565b50505060c082015181600c0160008201518160000190805190602001906107cb92919061218d565b50602082015181600101556040820151816002015560608201518160030190805190602001906107fc92919061218d565b50505060e08201518160100160008201518160000160006101000a81548173ffffffffffffffffffffffffffffffffffffffff021916908373ffffffffffffffffffffffffffffffffffffffff160217905550602082015181600101908051906020019061086b92919061218d565b50604082015181600201908051906020019061088892919061218d565b5050506101008201518160130160006101000a81548173ffffffffffffffffffffffffffffffffffffffff021916908373ffffffffffffffffffffffffffffffffffffffff1602179055506101208201518160140190805190602001906108f092919061218d565b5090505060046000838152602001908152602001600020600001819080600181540180825580915050600190039060005260206000209060150201600090919091909150600082015181600001556020820151816001015560408201518160020160006101000a81548173ffffffffffffffffffffffffffffffffffffffff021916908373ffffffffffffffffffffffffffffffffffffffff16021790555060608201518160020160146101000a81548160ff021916908360088111156109e0577f4e487b7100000000000000000000000000000000000000000000000000000000600052602160045260246000fd5b021790555060808201518160030160008201518160000160006101000a81548173ffffffffffffffffffffffffffffffffffffffff021916908373ffffffffffffffffffffffffffffffffffffffff1602179055506020820151816001019080519060200190610a5192919061218d565b506040820151816002019080519060200190610a6e92919061218d565b506060820151816003019080519060200190610a8b92919061218d565b506080820151816004019080519060200190610aa892919061218d565b5060a08201518160050155505060a08201518160090160008201518160000160006101000a81548173ffffffffffffffffffffffffffffffffffffffff021916908373ffffffffffffffffffffffffffffffffffffffff1602179055506020820151816001019080519060200190610b2192919061218d565b506040820151816002019080519060200190610b3e92919061218d565b50505060c082015181600c016000820151816000019080519060200190610b6692919061218d565b5060208201518160010155604082015181600201556060820151816003019080519060200190610b9792919061218d565b50505060e08201518160100160008201518160000160006101000a81548173ffffffffffffffffffffffffffffffffffffffff021916908373ffffffffffffffffffffffffffffffffffffffff1602179055506020820151816001019080519060200190610c0692919061218d565b506040820151816002019080519060200190610c2392919061218d565b5050506101008201518160130160006101000a81548173ffffffffffffffffffffffffffffffffffffffff021916908373ffffffffffffffffffffffffffffffffffffffff160217905550610120820151816014019080519060200190610c8b92919061218d565b50505060016000815480929190610ca190612aae565b91905055506001600054610cb59190612943565b6000819055507fd29d8a68ca7c8c74be5579719d445aabfe230ed6e6a83aff475a663500eb760982604051610cea919061277e565b60405180910390a150505050505050505050565b60008073ffffffffffffffffffffffffffffffffffffffff168273ffffffffffffffffffffffffffffffffffffffff161415610d3957600080fd5b600560008373ffffffffffffffffffffffffffffffffffffffff1673ffffffffffffffffffffffffffffffffffffffff16815260200190815260200160002060000160039054906101000a900460ff169050919050565b600060046000838152602001908152602001600020600001805490509050919050565b600073ffffffffffffffffffffffffffffffffffffffff168173ffffffffffffffffffffffffffffffffffffffff161415610ded57600080fd5b610df681611d0b565b15610e0057600080fd5b6001600560008373ffffffffffffffffffffffffffffffffffffffff1673ffffffffffffffffffffffffffffffffffffffff16815260200190815260200160002060000160036101000a81548160ff02191690831515021790555050565b600073ffffffffffffffffffffffffffffffffffffffff168173ffffffffffffffffffffffffffffffffffffffff161415610e9857600080fd5b610ea181611c79565b15610eab57600080fd5b6001600560008373ffffffffffffffffffffffffffffffffffffffff1673ffffffffffffffffffffffffffffffffffffffff16815260200190815260200160002060000160016101000a81548160ff02191690831515021790555050565b60008073ffffffffffffffffffffffffffffffffffffffff168273ffffffffffffffffffffffffffffffffffffffff161415610f4457600080fd5b600560008373ffffffffffffffffffffffffffffffffffffffff1673ffffffffffffffffffffffffffffffffffffffff16815260200190815260200160002060000160009054906101000a900460ff169050919050565b6000806000806060806060806000600360008d8152602001908152602001600020600001541415610fcb57600080fd5b6000600360008d815260200190815260200160002090506040518060400160405280600781526020017f70726f6475637400000000000000000000000000000000000000000000000000815250805190602001208b80519060200120141561104357600360008d815260200190815260200160002090505b6040518060400160405280600781526020017f686973746f727900000000000000000000000000000000000000000000000000815250805190602001208b8051906020012014156110ed57600460008d81526020019081526020016000206000018a815481106110dc577f4e487b7100000000000000000000000000000000000000000000000000000000600052603260045260246000fd5b906000526020600020906015020190505b806000015481600101548260020160009054906101000a900473ffffffffffffffffffffffffffffffffffffffff168360030160000160009054906101000a900473ffffffffffffffffffffffffffffffffffffffff168460030160010185600301600201866003016003018760030160040183805461116c90612a7c565b80601f016020809104026020016040519081016040528092919081815260200182805461119890612a7c565b80156111e55780601f106111ba576101008083540402835291602001916111e5565b820191906000526020600020905b8154815290600101906020018083116111c857829003601f168201915b505050505093508280546111f890612a7c565b80601f016020809104026020016040519081016040528092919081815260200182805461122490612a7c565b80156112715780601f1061124657610100808354040283529160200191611271565b820191906000526020600020905b81548152906001019060200180831161125457829003601f168201915b5050505050925081805461128490612a7c565b80601f01602080910402602001604051908101604052809291908181526020018280546112b090612a7c565b80156112fd5780601f106112d2576101008083540402835291602001916112fd565b820191906000526020600020905b8154815290600101906020018083116112e057829003601f168201915b5050505050915080805461131090612a7c565b80601f016020809104026020016040519081016040528092919081815260200182805461133c90612a7c565b80156113895780601f1061135e57610100808354040283529160200191611389565b820191906000526020600020905b81548152906001019060200180831161136c57829003601f168201915b5050505050905098509850985098509850985098509850509397509397509397509397565b60006060600080606060008060606000600360008d81526020019081526020016000206000015414156113e057600080fd5b6000600360008d815260200190815260200160002090506040518060400160405280600781526020017f70726f6475637400000000000000000000000000000000000000000000000000815250805190602001208b80519060200120141561145857600360008d815260200190815260200160002090505b6040518060400160405280600781526020017f686973746f727900000000000000000000000000000000000000000000000000815250805190602001208b80519060200120141561150257600460008d81526020019081526020016000206000018a815481106114f1577f4e487b7100000000000000000000000000000000000000000000000000000000600052603260045260246000fd5b906000526020600020906015020190505b806003016005015481600c0160000182600c016001015483600c016002015484600c016003018560020160149054906101000a900460ff168660090160000160009054906101000a900473ffffffffffffffffffffffffffffffffffffffff168760090160010186805461157590612a7c565b80601f01602080910402602001604051908101604052809291908181526020018280546115a190612a7c565b80156115ee5780601f106115c3576101008083540402835291602001916115ee565b820191906000526020600020905b8154815290600101906020018083116115d157829003601f168201915b5050505050965083805461160190612a7c565b80601f016020809104026020016040519081016040528092919081815260200182805461162d90612a7c565b801561167a5780601f1061164f5761010080835404028352916020019161167a565b820191906000526020600020905b81548152906001019060200180831161165d57829003601f168201915b5050505050935080805461168d90612a7c565b80601f01602080910402602001604051908101604052809291908181526020018280546116b990612a7c565b80156117065780601f106116db57610100808354040283529160200191611706565b820191906000526020600020905b8154815290600101906020018083116116e957829003601f168201915b5050505050905098509850985098509850985098509850509397509397509397509397565b600060046000848152602001908152602001600020600001600160046000868152602001908152602001600020600001805490506117699190612999565b815481106117a0577f4e487b7100000000000000000000000000000000000000000000000000000000600052603260045260246000fd5b90600052602060002090601502019050818160140190805190602001906117c892919061218d565b50505050565b600073ffffffffffffffffffffffffffffffffffffffff168173ffffffffffffffffffffffffffffffffffffffff16141561180857600080fd5b61181181610f09565b1561181b57600080fd5b6001600560008373ffffffffffffffffffffffffffffffffffffffff1673ffffffffffffffffffffffffffffffffffffffff16815260200190815260200160002060000160006101000a81548160ff02191690831515021790555050565b60606000606080600060606000600360008b81526020019081526020016000206000015414156118a857600080fd5b6000600360008b815260200190815260200160002090506040518060400160405280600781526020017f70726f6475637400000000000000000000000000000000000000000000000000815250805190602001208980519060200120141561192057600360008b815260200190815260200160002090505b6040518060400160405280600781526020017f686973746f72790000000000000000000000000000000000000000000000000081525080519060200120898051906020012014156119ca57600460008b815260200190815260200160002060000188815481106119b9577f4e487b7100000000000000000000000000000000000000000000000000000000600052603260045260246000fd5b906000526020600020906015020190505b806009016002018160100160000160009054906101000a900473ffffffffffffffffffffffffffffffffffffffff1682601001600101836010016002018460130160009054906101000a900473ffffffffffffffffffffffffffffffffffffffff1685601401858054611a3c90612a7c565b80601f0160208091040260200160405190810160405280929190818152602001828054611a6890612a7c565b8015611ab55780601f10611a8a57610100808354040283529160200191611ab5565b820191906000526020600020905b815481529060010190602001808311611a9857829003601f168201915b50505050509550838054611ac890612a7c565b80601f0160208091040260200160405190810160405280929190818152602001828054611af490612a7c565b8015611b415780601f10611b1657610100808354040283529160200191611b41565b820191906000526020600020905b815481529060010190602001808311611b2457829003601f168201915b50505050509350828054611b5490612a7c565b80601f0160208091040260200160405190810160405280929190818152602001828054611b8090612a7c565b8015611bcd5780601f10611ba257610100808354040283529160200191611bcd565b820191906000526020600020905b815481529060010190602001808311611bb057829003601f168201915b50505050509250808054611be090612a7c565b80601f0160208091040260200160405190810160405280929190818152602001828054611c0c90612a7c565b8015611c595780601f10611c2e57610100808354040283529160200191611c59565b820191906000526020600020905b815481529060010190602001808311611c3c57829003601f168201915b505050505090509650965096509650965096505093975093979195509350565b60008073ffffffffffffffffffffffffffffffffffffffff168273ffffffffffffffffffffffffffffffffffffffff161415611cb457600080fd5b600560008373ffffffffffffffffffffffffffffffffffffffff1673ffffffffffffffffffffffffffffffffffffffff16815260200190815260200160002060000160019054906101000a900460ff169050919050565b60008073ffffffffffffffffffffffffffffffffffffffff168273ffffffffffffffffffffffffffffffffffffffff161415611d4657600080fd5b600560008373ffffffffffffffffffffffffffffffffffffffff1673ffffffffffffffffffffffffffffffffffffffff16815260200190815260200160002060000160029054906101000a900460ff169050919050565b60006003600083815260200190815260200160002060020160149054906101000a900460ff169050919050565b80600460006001600054611dde9190612999565b81526020019081526020016000206000016001600460006001600054611e049190612999565b815260200190815260200160002060000180549050611e239190612999565b81548110611e5a577f4e487b7100000000000000000000000000000000000000000000000000000000600052603260045260246000fd5b90600052602060002090601502016014019080519060200190611e7e92919061218d565b5050565b60008054905090565b600073ffffffffffffffffffffffffffffffffffffffff168173ffffffffffffffffffffffffffffffffffffffff161415611ec557600080fd5b611ece81611d0b565b15611ed857600080fd5b6001600560008373ffffffffffffffffffffffffffffffffffffffff1673ffffffffffffffffffffffffffffffffffffffff16815260200190815260200160002060000160026101000a81548160ff02191690831515021790555050565b60005481565b60606040518060400160405280601d81526020017f48656c6c6f2066726f6d207465737446756e6374696f6e43616c6c2829000000815250905090565b6000606080606060006060806000878960a001516000019073ffffffffffffffffffffffffffffffffffffffff16908173ffffffffffffffffffffffffffffffffffffffff1681525050858960a0015160200181905250848960a0015160400181905250838960e001516000019073ffffffffffffffffffffffffffffffffffffffff16908173ffffffffffffffffffffffffffffffffffffffff1681525050828960e0015160200181905250818960e00151604001819052508089610100019073ffffffffffffffffffffffffffffffffffffffff16908173ffffffffffffffffffffffffffffffffffffffff168152505086896101200181905250505050505050505050565b838560c0015160000181905250828560c001516020018181525050818560c001516040018181525050808560c00151606001819052505050505050565b6040518061014001604052806000815260200160008152602001600073ffffffffffffffffffffffffffffffffffffffff1681526020016000600881111561212f577f4e487b7100000000000000000000000000000000000000000000000000000000600052602160045260246000fd5b815260200161213c612213565b815260200161214961225f565b8152602001612156612296565b81526020016121636122be565b8152602001600073ffffffffffffffffffffffffffffffffffffffff168152602001606081525090565b82805461219990612a7c565b90600052602060002090601f0160209004810192826121bb5760008555612202565b82601f106121d457805160ff1916838001178555612202565b82800160010185558215612202579182015b828111156122015782518255916020019190600101906121e6565b5b50905061220f91906122f5565b5090565b6040518060c00160405280600073ffffffffffffffffffffffffffffffffffffffff16815260200160608152602001606081526020016060815260200160608152602001600081525090565b6040518060600160405280600073ffffffffffffffffffffffffffffffffffffffff16815260200160608152602001606081525090565b6040518060800160405280606081526020016000815260200160008152602001606081525090565b6040518060600160405280600073ffffffffffffffffffffffffffffffffffffffff16815260200160608152602001606081525090565b5b8082111561230e5760008160009055506001016122f6565b5090565b6000612325612320846128f7565b6128c6565b90508281526020810184848401111561233d57600080fd5b612348848285612a3a565b509392505050565b60008135905061235f81612bd8565b92915050565b600082601f83011261237657600080fd5b8135612386848260208601612312565b91505092915050565b60008135905061239e81612bef565b92915050565b6000602082840312156123b657600080fd5b60006123c484828501612350565b91505092915050565b6000602082840312156123df57600080fd5b600082013567ffffffffffffffff8111156123f957600080fd5b61240584828501612365565b91505092915050565b600080600080600080600080610100898b03121561242b57600080fd5b600089013567ffffffffffffffff81111561244557600080fd5b6124518b828c01612365565b985050602089013567ffffffffffffffff81111561246e57600080fd5b61247a8b828c01612365565b975050604089013567ffffffffffffffff81111561249757600080fd5b6124a38b828c01612365565b965050606089013567ffffffffffffffff8111156124c057600080fd5b6124cc8b828c01612365565b955050608089013567ffffffffffffffff8111156124e957600080fd5b6124f58b828c01612365565b94505060a06125068b828c0161238f565b93505060c06125178b828c0161238f565b92505060e089013567ffffffffffffffff81111561253457600080fd5b6125408b828c01612365565b9150509295985092959890939650565b60006020828403121561256257600080fd5b60006125708482850161238f565b91505092915050565b6000806040838503121561258c57600080fd5b600061259a8582860161238f565b925050602083013567ffffffffffffffff8111156125b757600080fd5b6125c385828601612365565b9150509250929050565b6000806000606084860312156125e257600080fd5b60006125f08682870161238f565b935050602084013567ffffffffffffffff81111561260d57600080fd5b61261986828701612365565b925050604061262a8682870161238f565b9150509250925092565b61263d816129cd565b82525050565b61264c816129df565b82525050565b61265b81612a28565b82525050565b600061266c82612927565b6126768185612932565b9350612686818560208601612a49565b61268f81612bb3565b840191505092915050565b6126a381612a1e565b82525050565b60006020820190506126be6000830184612643565b92915050565b60006020820190506126d96000830184612652565b92915050565b600060208201905081810360008301526126f98184612661565b905092915050565b600060c082019050818103600083015261271b8189612661565b905061272a6020830188612634565b818103604083015261273c8187612661565b905081810360608301526127508186612661565b905061275f6080830185612634565b81810360a08301526127718184612661565b9050979650505050505050565b6000602082019050612793600083018461269a565b92915050565b6000610100820190506127af600083018b61269a565b81810360208301526127c1818a612661565b90506127d0604083018961269a565b6127dd606083018861269a565b81810360808301526127ef8187612661565b90506127fe60a0830186612652565b61280b60c0830185612634565b81810360e083015261281d8184612661565b90509998505050505050505050565b600061010082019050612842600083018b61269a565b61284f602083018a61269a565b61285c6040830189612634565b6128696060830188612634565b818103608083015261287b8187612661565b905081810360a083015261288f8186612661565b905081810360c08301526128a38185612661565b905081810360e08301526128b78184612661565b90509998505050505050505050565b6000604051905081810181811067ffffffffffffffff821117156128ed576128ec612b84565b5b8060405250919050565b600067ffffffffffffffff82111561291257612911612b84565b5b601f19601f8301169050602081019050919050565b600081519050919050565b600082825260208201905092915050565b600061294e82612a1e565b915061295983612a1e565b9250827fffffffffffffffffffffffffffffffffffffffffffffffffffffffffffffffff0382111561298e5761298d612af7565b5b828201905092915050565b60006129a482612a1e565b91506129af83612a1e565b9250828210156129c2576129c1612af7565b5b828203905092915050565b60006129d8826129fe565b9050919050565b60008115159050919050565b60008190506129f982612bc4565b919050565b600073ffffffffffffffffffffffffffffffffffffffff82169050919050565b6000819050919050565b6000612a33826129eb565b9050919050565b82818337600083830152505050565b60005b83811015612a67578082015181840152602081019050612a4c565b83811115612a76576000848401525b50505050565b60006002820490506001821680612a9457607f821691505b60208210811415612aa857612aa7612b55565b5b50919050565b6000612ab982612a1e565b91507fffffffffffffffffffffffffffffffffffffffffffffffffffffffffffffffff821415612aec57612aeb612af7565b5b600182019050919050565b7f4e487b7100000000000000000000000000000000000000000000000000000000600052601160045260246000fd5b7f4e487b7100000000000000000000000000000000000000000000000000000000600052602160045260246000fd5b7f4e487b7100000000000000000000000000000000000000000000000000000000600052602260045260246000fd5b7f4e487b7100000000000000000000000000000000000000000000000000000000600052604160045260246000fd5b6000601f19601f8301169050919050565b60098110612bd557612bd4612b26565b5b50565b612be1816129cd565b8114612bec57600080fd5b50565b612bf881612a1e565b8114612c0357600080fd5b5056fea2646970667358221220a601dd00babd9cccfcfc6c28a31e484eddaf3563be600e4a7dfdee0c9855cbe264736f6c63430008000033",
  "linkReferences": {},
  "deployedLinkReferences": {}
}