{
  "_format": "hh-sol-artifact-1",
  "contractName": "SupplyChainStep8",
  "sourceName": "contracts/SupplyChainStep8.sol",
  "abi": [
    {
      "anonymous": false,
      "inputs": [
        {
          "indexed": false,
          "internalType": "uint256",
          "name": "uid",
          "type": "uint256"
        }
      ],
      "name": "Manufactured",
      "type": "event"
    },
    {
      "anonymous": false,
      "inputs": [
        {
          "indexed": true,
          "internalType": "address",
          "name": "_account",
          "type": "address"
        }
      ],
      "name": "ManufacturerAdded",
      "type": "event"
    },
    {
      "anonymous": false,
      "inputs": [
        {
          "indexed": false,
          "internalType": "uint256",
          "name": "uid",
          "type": "uint256"
        }
      ],
      "name": "PurchasedByCustomer",
      "type": "event"
    },
    {
      "anonymous": false,
      "inputs": [
        {
          "indexed": false,
          "internalType": "uint256",
          "name": "uid",
          "type": "uint256"
        }
      ],
      "name": "PurchasedByThirdParty",
      "type": "event"
    },
    {
      "anonymous": false,
      "inputs": [
        {
          "indexed": false,
          "internalType": "uint256",
          "name": "uid",
          "type": "uint256"
        }
      ],
      "name": "ReceivedByCustomer",
      "type": "event"
    },
    {
      "anonymous": false,
      "inputs": [
        {
          "indexed": false,
          "internalType": "uint256",
          "name": "uid",
          "type": "uint256"
        }
      ],
      "name": "ReceivedByDeliveryHub",
      "type": "event"
    },
    {
      "anonymous": false,
      "inputs": [
        {
          "indexed": false,
          "internalType": "uint256",
          "name": "uid",
          "type": "uint256"
        }
      ],
      "name": "ReceivedByThirdParty",
      "type": "event"
    },
    {
      "anonymous": false,
      "inputs": [
        {
          "indexed": false,
          "internalType": "uint256",
          "name": "uid",
          "type": "uint256"
        }
      ],
      "name": "ShippedByDeliveryHub",
      "type": "event"
    },
    {
      "anonymous": false,
      "inputs": [
        {
          "indexed": false,
          "internalType": "uint256",
          "name": "uid",
          "type": "uint256"
        }
      ],
      "name": "ShippedByManufacturer",
      "type": "event"
    },
    {
      "anonymous": false,
      "inputs": [
        {
          "indexed": false,
          "internalType": "uint256",
          "name": "uid",
          "type": "uint256"
        }
      ],
      "name": "ShippedByThirdParty",
      "type": "event"
    },
    {
      "inputs": [
        {
          "internalType": "address",
          "name": "_account",
          "type": "address"
        }
      ],
      "name": "addCustomerRole",
      "outputs": [],
      "stateMutability": "nonpayable",
      "type": "function"
    },
    {
      "inputs": [
        {
          "internalType": "address",
          "name": "_account",
          "type": "address"
        }
      ],
      "name": "addDeliveryHubRole",
      "outputs": [],
      "stateMutability": "nonpayable",
      "type": "function"
    },
    {
      "inputs": [
        {
          "internalType": "address",
          "name": "_account",
          "type": "address"
        }
      ],
      "name": "addManufacturerRole",
      "outputs": [],
      "stateMutability": "nonpayable",
      "type": "function"
    },
    {
      "inputs": [
        {
          "internalType": "address",
          "name": "_account",
          "type": "address"
        }
      ],
      "name": "addThirdPartyRole",
      "outputs": [],
      "stateMutability": "nonpayable",
      "type": "function"
    },
    {
      "inputs": [],
      "name": "fetchProductCount",
      "outputs": [
        {
          "internalType": "uint256",
          "name": "",
          "type": "uint256"
        }
      ],
      "stateMutability": "view",
      "type": "function"
    },
    {
      "inputs": [
        {
          "internalType": "uint256",
          "name": "_uid",
          "type": "uint256"
        }
      ],
      "name": "fetchProductHistoryLength",
      "outputs": [
        {
          "internalType": "uint256",
          "name": "",
          "type": "uint256"
        }
      ],
      "stateMutability": "view",
      "type": "function"
    },
    {
      "inputs": [
        {
          "internalType": "uint256",
          "name": "_uid",
          "type": "uint256"
        },
        {
          "internalType": "string",
          "name": "_type",
          "type": "string"
        },
        {
          "internalType": "uint256",
          "name": "i",
          "type": "uint256"
        }
      ],
      "name": "fetchProductPart1",
      "outputs": [
        {
          "internalType": "uint256",
          "name": "",
          "type": "uint256"
        },
        {
          "internalType": "uint256",
          "name": "",
          "type": "uint256"
        },
        {
          "internalType": "address",
          "name": "",
          "type": "address"
        },
        {
          "internalType": "address",
          "name": "",
          "type": "address"
        },
        {
          "internalType": "string",
          "name": "",
          "type": "string"
        },
        {
          "internalType": "string",
          "name": "",
          "type": "string"
        },
        {
          "internalType": "string",
          "name": "",
          "type": "string"
        },
        {
          "internalType": "string",
          "name": "",
          "type": "string"
        }
      ],
      "stateMutability": "view",
      "type": "function"
    },
    {
      "inputs": [
        {
          "internalType": "uint256",
          "name": "_uid",
          "type": "uint256"
        },
        {
          "internalType": "string",
          "name": "_type",
          "type": "string"
        },
        {
          "internalType": "uint256",
          "name": "i",
          "type": "uint256"
        }
      ],
      "name": "fetchProductPart2",
      "outputs": [
        {
          "internalType": "uint256",
          "name": "",
          "type": "uint256"
        },
        {
          "internalType": "string",
          "name": "",
          "type": "string"
        },
        {
          "internalType": "uint256",
          "name": "",
          "type": "uint256"
        },
        {
          "internalType": "uint256",
          "name": "",
          "type": "uint256"
        },
        {
          "internalType": "string",
          "name": "",
          "type": "string"
        },
        {
          "internalType": "enum Structure.State",
          "name": "",
          "type": "uint8"
        },
        {
          "internalType": "address",
          "name": "",
          "type": "address"
        },
        {
          "internalType": "string",
          "name": "",
          "type": "string"
        }
      ],
      "stateMutability": "view",
      "type": "function"
    },
    {
      "inputs": [
        {
          "internalType": "uint256",
          "name": "_uid",
          "type": "uint256"
        },
        {
          "internalType": "string",
          "name": "_type",
          "type": "string"
        },
        {
          "internalType": "uint256",
          "name": "i",
          "type": "uint256"
        }
      ],
      "name": "fetchProductPart3",
      "outputs": [
        {
          "internalType": "string",
          "name": "",
          "type": "string"
        },
        {
          "internalType": "address",
          "name": "",
          "type": "address"
        },
        {
          "internalType": "string",
          "name": "",
          "type": "string"
        },
        {
          "internalType": "string",
          "name": "",
          "type": "string"
        },
        {
          "internalType": "address",
          "name": "",
          "type": "address"
        },
        {
          "internalType": "string",
          "name": "",
          "type": "string"
        }
      ],
      "stateMutability": "view",
      "type": "function"
    },
    {
      "inputs": [
        {
          "internalType": "uint256",
          "name": "_uid",
          "type": "uint256"
        }
      ],
      "name": "fetchProductState",
      "outputs": [
        {
          "internalType": "enum Structure.State",
          "name": "",
          "type": "uint8"
        }
      ],
      "stateMutability": "view",
      "type": "function"
    },
    {
      "inputs": [
        {
          "internalType": "address",
          "name": "_account",
          "type": "address"
        }
      ],
      "name": "hasCustomerRole",
      "outputs": [
        {
          "internalType": "bool",
          "name": "",
          "type": "bool"
        }
      ],
      "stateMutability": "view",
      "type": "function"
    },
    {
      "inputs": [
        {
          "internalType": "address",
          "name": "_account",
          "type": "address"
        }
      ],
      "name": "hasDeliveryHubRole",
      "outputs": [
        {
          "internalType": "bool",
          "name": "",
          "type": "bool"
        }
      ],
      "stateMutability": "view",
      "type": "function"
    },
    {
      "inputs": [
        {
          "internalType": "address",
          "name": "_account",
          "type": "address"
        }
      ],
      "name": "hasManufacturerRole",
      "outputs": [
        {
          "internalType": "bool",
          "name": "",
          "type": "bool"
        }
      ],
      "stateMutability": "view",
      "type": "function"
    },
    {
      "inputs": [
        {
          "internalType": "address",
          "name": "_account",
          "type": "address"
        }
      ],
      "name": "hasThirdPartyRole",
      "outputs": [
        {
          "internalType": "bool",
          "name": "",
          "type": "bool"
        }
      ],
      "stateMutability": "view",
      "type": "function"
    },
    {
      "inputs": [
        {
          "internalType": "string",
          "name": "manufacturerName",
          "type": "string"
        },
        {
          "internalType": "string",
          "name": "manufacturerDetails",
          "type": "string"
        },
        {
          "internalType": "string",
          "name": "manufacturerLongitude",
          "type": "string"
        },
        {
          "internalType": "string",
          "name": "manufacturerLatitude",
          "type": "string"
        },
        {
          "internalType": "string",
          "name": "productName",
          "type": "string"
        },
        {
          "internalType": "uint256",
          "name": "productCode",
          "type": "uint256"
        },
        {
          "internalType": "uint256",
          "name": "productPrice",
          "type": "uint256"
        },
        {
          "internalType": "string",
          "name": "productCategory",
          "type": "string"
        }
      ],
      "name": "manufactureProduct",
      "outputs": [],
      "stateMutability": "nonpayable",
      "type": "function"
    },
    {
      "inputs": [
        {
          "internalType": "uint256",
          "name": "_uid",
          "type": "uint256"
        }
      ],
      "name": "purchaseByCustomer",
      "outputs": [],
      "stateMutability": "nonpayable",
      "type": "function"
    },
    {
      "inputs": [
        {
          "internalType": "uint256",
          "name": "_uid",
          "type": "uint256"
        }
      ],
      "name": "purchaseByThirdParty",
      "outputs": [],
      "stateMutability": "nonpayable",
      "type": "function"
    },
    {
      "inputs": [
        {
          "internalType": "uint256",
          "name": "_uid",
          "type": "uint256"
        }
      ],
      "name": "receiveByCustomer",
      "outputs": [],
      "stateMutability": "nonpayable",
      "type": "function"
    },
    {
      "inputs": [
        {
          "internalType": "uint256",
          "name": "_uid",
          "type": "uint256"
        },
        {
          "internalType": "string",
          "name": "deliveryHubLongitude",
          "type": "string"
        },
        {
          "internalType": "string",
          "name": "deliveryHubLatitude",
          "type": "string"
        }
      ],
      "name": "receiveByDeliveryHub",
      "outputs": [],
      "stateMutability": "nonpayable",
      "type": "function"
    },
    {
      "inputs": [
        {
          "internalType": "uint256",
          "name": "_uid",
          "type": "uint256"
        },
        {
          "internalType": "string",
          "name": "thirdPartyLongitude",
          "type": "string"
        },
        {
          "internalType": "string",
          "name": "thirdPartyLatitude",
          "type": "string"
        }
      ],
      "name": "receiveByThirdParty",
      "outputs": [],
      "stateMutability": "nonpayable",
      "type": "function"
    },
    {
      "inputs": [
        {
          "internalType": "uint256",
          "name": "_uid",
          "type": "uint256"
        },
        {
          "internalType": "string",
          "name": "tran",
          "type": "string"
        }
      ],
      "name": "setTransactionHash",
      "outputs": [],
      "stateMutability": "nonpayable",
      "type": "function"
    },
    {
      "inputs": [
        {
          "internalType": "string",
          "name": "tran",
          "type": "string"
        }
      ],
      "name": "setTransactionHashOnManufacture",
      "outputs": [],
      "stateMutability": "nonpayable",
      "type": "function"
    },
    {
      "inputs": [
        {
          "internalType": "uint256",
          "name": "_uid",
          "type": "uint256"
        }
      ],
      "name": "shipByDeliveryHub",
      "outputs": [],
      "stateMutability": "nonpayable",
      "type": "function"
    },
    {
      "inputs": [
        {
          "internalType": "uint256",
          "name": "_uid",
          "type": "uint256"
        }
      ],
      "name": "shipByThirdParty",
      "outputs": [],
      "stateMutability": "nonpayable",
      "type": "function"
    },
    {
      "inputs": [
        {
          "internalType": "uint256",
          "name": "_uid",
          "type": "uint256"
        }
      ],
      "name": "shipToThirdParty",
      "outputs": [],
      "stateMutability": "nonpayable",
      "type": "function"
    },
    {
      "inputs": [],
      "name": "testFunctionCall",
      "outputs": [
        {
          "internalType": "string",
          "name": "",
          "type": "string"
        }
      ],
      "stateMutability": "pure",
      "type": "function"
    },
    {
      "inputs": [],
      "name": "uid",
      "outputs": [
        {
          "internalType": "uint256",
          "name": "",
          "type": "uint256"
        }
      ],
      "stateMutability": "view",
      "type": "function"
    }
  ],
  "bytecode": "0x608060405234801561001057600080fd5b5033600260006101000a81548173ffffffffffffffffffffffffffffffffffffffff021916908373ffffffffffffffffffffffffffffffffffffffff160217905550600180819055506001600081905550613ad6806100706000396000f3fe608060405234801561001057600080fd5b50600436106101a85760003560e01c8063786ea161116100f9578063e2f1fe1411610097578063f16791b311610071578063f16791b3146104f8578063f4121b6714610516578063f514ce3614610532578063fb0c5ea314610550576101a8565b8063e2f1fe1414610490578063e55128ea146104c0578063ee707c1e146104dc576101a8565b806398c95889116100d357806398c95889146103df578063b843bdee14610414578063cd2885e014610430578063d44bebcc14610460576101a8565b8063786ea1611461038b5780638290f859146103a75780638eee90ea146103c3576101a8565b80635212e510116101665780636cf07e24116101405780636cf07e24146103005780636f1fe8d71461031c5780637217eb2e1461035357806372df397e1461036f576101a8565b80635212e5101461027d5780636000ada114610299578063658db497146102c9576101a8565b80623375b7146101ad578063024edf9a146101c95780630a036e25146101f95780633334529e14610215578063405ba7ef14610231578063453dd4af14610261575b600080fd5b6101c760048036038101906101c29190613229565b61056e565b005b6101e360048036038101906101de91906131bf565b610e66565b6040516101f09190613543565b60405180910390f35b610213600480360381019061020e919061336b565b610ef8565b005b61022f600480360381019061022a91906133e8565b610f6e565b005b61024b6004803603810190610246919061336b565b611088565b6040516102589190613618565b60405180910390f35b61027b600480360381019061027691906131bf565b6110ab565b005b610297600480360381019061029291906131bf565b611156565b005b6102b360048036038101906102ae91906131bf565b611201565b6040516102c09190613543565b60405180910390f35b6102e360048036038101906102de9190613467565b611293565b6040516102f79897969594939291906136c6565b60405180910390f35b61031a6004803603810190610315919061336b565b6116a6565b005b61033660048036038101906103319190613467565b61182e565b60405161034a989796959493929190613633565b60405180910390f35b61036d6004803603810190610368919061336b565b611bab565b005b6103896004803603810190610384919061336b565b611c50565b005b6103a560048036038101906103a09190613394565b611d65565b005b6103c160048036038101906103bc91906131bf565b611e08565b005b6103dd60048036038101906103d891906133e8565b611eb3565b005b6103f960048036038101906103f49190613467565b611f5a565b60405161040b9695949392919061359b565b60405180910390f35b61042e6004803603810190610429919061336b565b61235a565b005b61044a600480360381019061044591906131bf565b6123ff565b6040516104579190613543565b60405180910390f35b61047a600480360381019061047591906131bf565b612491565b6040516104879190613543565b60405180910390f35b6104aa60048036038101906104a5919061336b565b612523565b6040516104b7919061355e565b60405180910390f35b6104da60048036038101906104d591906131e8565b612550565b005b6104f660048036038101906104f1919061336b565b612608565b005b610500612c10565b60405161050d9190613618565b60405180910390f35b610530600480360381019061052b91906131bf565b612c19565b005b61053a612cc4565b6040516105479190613618565b60405180910390f35b610558612cca565b6040516105659190613579565b60405180910390f35b61057733611201565b61058057600080fd5b60008054905061058e612e4c565b600154816020018181525050818160000181815250508981608001516020018190525088816080015160400181905250878160800151606001819052508681608001516080018190525042816080015160a001818152505033816040019073ffffffffffffffffffffffffffffffffffffffff16908173ffffffffffffffffffffffffffffffffffffffff16815250503381608001516000019073ffffffffffffffffffffffffffffffffffffffff16908173ffffffffffffffffffffffffffffffffffffffff168152505061066381612d07565b6000816060019060088111156106a2577f4e487b7100000000000000000000000000000000000000000000000000000000600052602160045260246000fd5b908160088111156106dc577f4e487b7100000000000000000000000000000000000000000000000000000000600052602160045260246000fd5b815250506106ed8187878787612e0f565b8060036000848152602001908152602001600020600082015181600001556020820151816001015560408201518160020160006101000a81548173ffffffffffffffffffffffffffffffffffffffff021916908373ffffffffffffffffffffffffffffffffffffffff16021790555060608201518160020160146101000a81548160ff021916908360088111156107ad577f4e487b7100000000000000000000000000000000000000000000000000000000600052602160045260246000fd5b021790555060808201518160030160008201518160000160006101000a81548173ffffffffffffffffffffffffffffffffffffffff021916908373ffffffffffffffffffffffffffffffffffffffff160217905550602082015181600101908051906020019061081e929190612f1b565b50604082015181600201908051906020019061083b929190612f1b565b506060820151816003019080519060200190610858929190612f1b565b506080820151816004019080519060200190610875929190612f1b565b5060a08201518160050155505060a08201518160090160008201518160000160006101000a81548173ffffffffffffffffffffffffffffffffffffffff021916908373ffffffffffffffffffffffffffffffffffffffff16021790555060208201518160010190805190602001906108ee929190612f1b565b50604082015181600201908051906020019061090b929190612f1b565b50505060c082015181600c016000820151816000019080519060200190610933929190612f1b565b5060208201518160010155604082015181600201556060820151816003019080519060200190610964929190612f1b565b50505060e08201518160100160008201518160000160006101000a81548173ffffffffffffffffffffffffffffffffffffffff021916908373ffffffffffffffffffffffffffffffffffffffff16021790555060208201518160010190805190602001906109d3929190612f1b565b5060408201518160020190805190602001906109f0929190612f1b565b5050506101008201518160130160006101000a81548173ffffffffffffffffffffffffffffffffffffffff021916908373ffffffffffffffffffffffffffffffffffffffff160217905550610120820151816014019080519060200190610a58929190612f1b565b5090505060046000838152602001908152602001600020600001819080600181540180825580915050600190039060005260206000209060150201600090919091909150600082015181600001556020820151816001015560408201518160020160006101000a81548173ffffffffffffffffffffffffffffffffffffffff021916908373ffffffffffffffffffffffffffffffffffffffff16021790555060608201518160020160146101000a81548160ff02191690836008811115610b48577f4e487b7100000000000000000000000000000000000000000000000000000000600052602160045260246000fd5b021790555060808201518160030160008201518160000160006101000a81548173ffffffffffffffffffffffffffffffffffffffff021916908373ffffffffffffffffffffffffffffffffffffffff1602179055506020820151816001019080519060200190610bb9929190612f1b565b506040820151816002019080519060200190610bd6929190612f1b565b506060820151816003019080519060200190610bf3929190612f1b565b506080820151816004019080519060200190610c10929190612f1b565b5060a08201518160050155505060a08201518160090160008201518160000160006101000a81548173ffffffffffffffffffffffffffffffffffffffff021916908373ffffffffffffffffffffffffffffffffffffffff1602179055506020820151816001019080519060200190610c89929190612f1b565b506040820151816002019080519060200190610ca6929190612f1b565b50505060c082015181600c016000820151816000019080519060200190610cce929190612f1b565b5060208201518160010155604082015181600201556060820151816003019080519060200190610cff929190612f1b565b50505060e08201518160100160008201518160000160006101000a81548173ffffffffffffffffffffffffffffffffffffffff021916908373ffffffffffffffffffffffffffffffffffffffff1602179055506020820151816001019080519060200190610d6e929190612f1b565b506040820151816002019080519060200190610d8b929190612f1b565b5050506101008201518160130160006101000a81548173ffffffffffffffffffffffffffffffffffffffff021916908373ffffffffffffffffffffffffffffffffffffffff160217905550610120820151816014019080519060200190610df3929190612f1b565b50505060016000815480929190610e0990613948565b91905055506001600054610e1d91906137dd565b6000819055507fd29d8a68ca7c8c74be5579719d445aabfe230ed6e6a83aff475a663500eb760982604051610e529190613618565b60405180910390a150505050505050505050565b60008073ffffffffffffffffffffffffffffffffffffffff168273ffffffffffffffffffffffffffffffffffffffff161415610ea157600080fd5b600560008373ffffffffffffffffffffffffffffffffffffffff1673ffffffffffffffffffffffffffffffffffffffff16815260200190815260200160002060000160039054906101000a900460ff169050919050565b6003600082815260200190815260200160002060030160000160009054906101000a900473ffffffffffffffffffffffffffffffffffffffff168073ffffffffffffffffffffffffffffffffffffffff163373ffffffffffffffffffffffffffffffffffffffff1614610f6a57600080fd5b5050565b8260026008811115610fa9577f4e487b7100000000000000000000000000000000000000000000000000000000600052602160045260246000fd5b6003600083815260200190815260200160002060020160149054906101000a900460ff166008811115611005577f4e487b7100000000000000000000000000000000000000000000000000000000600052602160045260246000fd5b1461100f57600080fd5b6003600085815260200190815260200160002060090160000160009054906101000a900473ffffffffffffffffffffffffffffffffffffffff168073ffffffffffffffffffffffffffffffffffffffff163373ffffffffffffffffffffffffffffffffffffffff161461108157600080fd5b5050505050565b600060046000838152602001908152602001600020600001805490509050919050565b600073ffffffffffffffffffffffffffffffffffffffff168173ffffffffffffffffffffffffffffffffffffffff1614156110e557600080fd5b6110ee81612491565b156110f857600080fd5b6001600560008373ffffffffffffffffffffffffffffffffffffffff1673ffffffffffffffffffffffffffffffffffffffff16815260200190815260200160002060000160036101000a81548160ff02191690831515021790555050565b600073ffffffffffffffffffffffffffffffffffffffff168173ffffffffffffffffffffffffffffffffffffffff16141561119057600080fd5b611199816123ff565b156111a357600080fd5b6001600560008373ffffffffffffffffffffffffffffffffffffffff1673ffffffffffffffffffffffffffffffffffffffff16815260200190815260200160002060000160016101000a81548160ff02191690831515021790555050565b60008073ffffffffffffffffffffffffffffffffffffffff168273ffffffffffffffffffffffffffffffffffffffff16141561123c57600080fd5b600560008373ffffffffffffffffffffffffffffffffffffffff1673ffffffffffffffffffffffffffffffffffffffff16815260200190815260200160002060000160009054906101000a900460ff169050919050565b6000806000806060806060806000600360008d81526020019081526020016000206000015414156112c357600080fd5b6000600360008d815260200190815260200160002090506040518060400160405280600781526020017f70726f6475637400000000000000000000000000000000000000000000000000815250805190602001208b80519060200120141561133b57600360008d815260200190815260200160002090505b6040518060400160405280600781526020017f686973746f727900000000000000000000000000000000000000000000000000815250805190602001208b8051906020012014156113e557600460008d81526020019081526020016000206000018a815481106113d4577f4e487b7100000000000000000000000000000000000000000000000000000000600052603260045260246000fd5b906000526020600020906015020190505b806000015481600101548260020160009054906101000a900473ffffffffffffffffffffffffffffffffffffffff168360030160000160009054906101000a900473ffffffffffffffffffffffffffffffffffffffff168460030160010185600301600201866003016003018760030160040183805461146490613916565b80601f016020809104026020016040519081016040528092919081815260200182805461149090613916565b80156114dd5780601f106114b2576101008083540402835291602001916114dd565b820191906000526020600020905b8154815290600101906020018083116114c057829003601f168201915b505050505093508280546114f090613916565b80601f016020809104026020016040519081016040528092919081815260200182805461151c90613916565b80156115695780601f1061153e57610100808354040283529160200191611569565b820191906000526020600020905b81548152906001019060200180831161154c57829003601f168201915b5050505050925081805461157c90613916565b80601f01602080910402602001604051908101604052809291908181526020018280546115a890613916565b80156115f55780601f106115ca576101008083540402835291602001916115f5565b820191906000526020600020905b8154815290600101906020018083116115d857829003601f168201915b5050505050915080805461160890613916565b80601f016020809104026020016040519081016040528092919081815260200182805461163490613916565b80156116815780601f1061165657610100808354040283529160200191611681565b820191906000526020600020905b81548152906001019060200180831161166457829003601f168201915b5050505050905098509850985098509850985098509850509397509397509397509397565b80600660088111156116e1577f4e487b7100000000000000000000000000000000000000000000000000000000600052602160045260246000fd5b6003600083815260200190815260200160002060020160149054906101000a900460ff16600881111561173d577f4e487b7100000000000000000000000000000000000000000000000000000000600052602160045260246000fd5b1461174757600080fd5b6003600083815260200190815260200160002060020160009054906101000a900473ffffffffffffffffffffffffffffffffffffffff168073ffffffffffffffffffffffffffffffffffffffff163373ffffffffffffffffffffffffffffffffffffffff16146117b657600080fd5b6003600084815260200190815260200160002060100160000160009054906101000a900473ffffffffffffffffffffffffffffffffffffffff168073ffffffffffffffffffffffffffffffffffffffff163373ffffffffffffffffffffffffffffffffffffffff161461182857600080fd5b50505050565b60006060600080606060008060606000600360008d815260200190815260200160002060000154141561186057600080fd5b6000600360008d815260200190815260200160002090506040518060400160405280600781526020017f70726f6475637400000000000000000000000000000000000000000000000000815250805190602001208b8051906020012014156118d857600360008d815260200190815260200160002090505b6040518060400160405280600781526020017f686973746f727900000000000000000000000000000000000000000000000000815250805190602001208b80519060200120141561198257600460008d81526020019081526020016000206000018a81548110611971577f4e487b7100000000000000000000000000000000000000000000000000000000600052603260045260246000fd5b906000526020600020906015020190505b806003016005015481600c0160000182600c016001015483600c016002015484600c016003018560020160149054906101000a900460ff168660090160000160009054906101000a900473ffffffffffffffffffffffffffffffffffffffff16876009016001018680546119f590613916565b80601f0160208091040260200160405190810160405280929190818152602001828054611a2190613916565b8015611a6e5780601f10611a4357610100808354040283529160200191611a6e565b820191906000526020600020905b815481529060010190602001808311611a5157829003601f168201915b50505050509650838054611a8190613916565b80601f0160208091040260200160405190810160405280929190818152602001828054611aad90613916565b8015611afa5780601f10611acf57610100808354040283529160200191611afa565b820191906000526020600020905b815481529060010190602001808311611add57829003601f168201915b50505050509350808054611b0d90613916565b80601f0160208091040260200160405190810160405280929190818152602001828054611b3990613916565b8015611b865780601f10611b5b57610100808354040283529160200191611b86565b820191906000526020600020905b815481529060010190602001808311611b6957829003601f168201915b5050505050905098509850985098509850985098509850509397509397509397509397565b8060036008811115611be6577f4e487b7100000000000000000000000000000000000000000000000000000000600052602160045260246000fd5b6003600083815260200190815260200160002060020160149054906101000a900460ff166008811115611c42577f4e487b7100000000000000000000000000000000000000000000000000000000600052602160045260246000fd5b14611c4c57600080fd5b5050565b8060076008811115611c8b577f4e487b7100000000000000000000000000000000000000000000000000000000600052602160045260246000fd5b6003600083815260200190815260200160002060020160149054906101000a900460ff166008811115611ce7577f4e487b7100000000000000000000000000000000000000000000000000000000600052602160045260246000fd5b14611cf157600080fd5b6003600083815260200190815260200160002060130160009054906101000a900473ffffffffffffffffffffffffffffffffffffffff168073ffffffffffffffffffffffffffffffffffffffff163373ffffffffffffffffffffffffffffffffffffffff1614611d6057600080fd5b505050565b60006004600084815260200190815260200160002060000160016004600086815260200190815260200160002060000180549050611da39190613833565b81548110611dda577f4e487b7100000000000000000000000000000000000000000000000000000000600052603260045260246000fd5b9060005260206000209060150201905081816014019080519060200190611e02929190612f1b565b50505050565b600073ffffffffffffffffffffffffffffffffffffffff168173ffffffffffffffffffffffffffffffffffffffff161415611e4257600080fd5b611e4b81611201565b15611e5557600080fd5b6001600560008373ffffffffffffffffffffffffffffffffffffffff1673ffffffffffffffffffffffffffffffffffffffff16815260200190815260200160002060000160006101000a81548160ff02191690831515021790555050565b8260056008811115611eee577f4e487b7100000000000000000000000000000000000000000000000000000000600052602160045260246000fd5b6003600083815260200190815260200160002060020160149054906101000a900460ff166008811115611f4a577f4e487b7100000000000000000000000000000000000000000000000000000000600052602160045260246000fd5b14611f5457600080fd5b50505050565b60606000606080600060606000600360008b8152602001908152602001600020600001541415611f8957600080fd5b6000600360008b815260200190815260200160002090506040518060400160405280600781526020017f70726f6475637400000000000000000000000000000000000000000000000000815250805190602001208980519060200120141561200157600360008b815260200190815260200160002090505b6040518060400160405280600781526020017f686973746f72790000000000000000000000000000000000000000000000000081525080519060200120898051906020012014156120ab57600460008b8152602001908152602001600020600001888154811061209a577f4e487b7100000000000000000000000000000000000000000000000000000000600052603260045260246000fd5b906000526020600020906015020190505b806009016002018160100160000160009054906101000a900473ffffffffffffffffffffffffffffffffffffffff1682601001600101836010016002018460130160009054906101000a900473ffffffffffffffffffffffffffffffffffffffff168560140185805461211d90613916565b80601f016020809104026020016040519081016040528092919081815260200182805461214990613916565b80156121965780601f1061216b57610100808354040283529160200191612196565b820191906000526020600020905b81548152906001019060200180831161217957829003601f168201915b505050505095508380546121a990613916565b80601f01602080910402602001604051908101604052809291908181526020018280546121d590613916565b80156122225780601f106121f757610100808354040283529160200191612222565b820191906000526020600020905b81548152906001019060200180831161220557829003601f168201915b5050505050935082805461223590613916565b80601f016020809104026020016040519081016040528092919081815260200182805461226190613916565b80156122ae5780601f10612283576101008083540402835291602001916122ae565b820191906000526020600020905b81548152906001019060200180831161229157829003601f168201915b505050505092508080546122c190613916565b80601f01602080910402602001604051908101604052809291908181526020018280546122ed90613916565b801561233a5780601f1061230f5761010080835404028352916020019161233a565b820191906000526020600020905b81548152906001019060200180831161231d57829003601f168201915b505050505090509650965096509650965096505093975093979195509350565b8060006008811115612395577f4e487b7100000000000000000000000000000000000000000000000000000000600052602160045260246000fd5b6003600083815260200190815260200160002060020160149054906101000a900460ff1660088111156123f1577f4e487b7100000000000000000000000000000000000000000000000000000000600052602160045260246000fd5b146123fb57600080fd5b5050565b60008073ffffffffffffffffffffffffffffffffffffffff168273ffffffffffffffffffffffffffffffffffffffff16141561243a57600080fd5b600560008373ffffffffffffffffffffffffffffffffffffffff1673ffffffffffffffffffffffffffffffffffffffff16815260200190815260200160002060000160019054906101000a900460ff169050919050565b60008073ffffffffffffffffffffffffffffffffffffffff168273ffffffffffffffffffffffffffffffffffffffff1614156124cc57600080fd5b600560008373ffffffffffffffffffffffffffffffffffffffff1673ffffffffffffffffffffffffffffffffffffffff16815260200190815260200160002060000160029054906101000a900460ff169050919050565b60006003600083815260200190815260200160002060020160149054906101000a900460ff169050919050565b806004600060016000546125649190613833565b8152602001908152602001600020600001600160046000600160005461258a9190613833565b8152602001908152602001600020600001805490506125a99190613833565b815481106125e0577f4e487b7100000000000000000000000000000000000000000000000000000000600052603260045260246000fd5b90600052602060002090601502016014019080519060200190612604929190612f1b565b5050565b6003600082815260200190815260200160002060020160009054906101000a900473ffffffffffffffffffffffffffffffffffffffff168073ffffffffffffffffffffffffffffffffffffffff163373ffffffffffffffffffffffffffffffffffffffff161461267757600080fd5b6003600083815260200190815260200160002060090160000160009054906101000a900473ffffffffffffffffffffffffffffffffffffffff168073ffffffffffffffffffffffffffffffffffffffff163373ffffffffffffffffffffffffffffffffffffffff16146126e957600080fd5b6126f2336123ff565b6126fb57600080fd5b60056003600085815260200190815260200160002060020160146101000a81548160ff0219169083600881111561275b577f4e487b7100000000000000000000000000000000000000000000000000000000600052602160045260246000fd5b02179055506004600084815260200190815260200160002060000160036000858152602001908152602001600020908060018154018082558091505060019003906000526020600020906015020160009091909190915060008201548160000155600182015481600101556002820160009054906101000a900473ffffffffffffffffffffffffffffffffffffffff168160020160006101000a81548173ffffffffffffffffffffffffffffffffffffffff021916908373ffffffffffffffffffffffffffffffffffffffff1602179055506002820160149054906101000a900460ff168160020160146101000a81548160ff0219169083600881111561288b577f4e487b7100000000000000000000000000000000000000000000000000000000600052602160045260246000fd5b021790555060038201816003016000820160009054906101000a900473ffffffffffffffffffffffffffffffffffffffff168160000160006101000a81548173ffffffffffffffffffffffffffffffffffffffff021916908373ffffffffffffffffffffffffffffffffffffffff160217905550600182018160010190805461291390613916565b61291e929190612fa1565b50600282018160020190805461293390613916565b61293e929190612fa1565b50600382018160030190805461295390613916565b61295e929190612fa1565b50600482018160040190805461297390613916565b61297e929190612fa1565b5060058201548160050155505060098201816009016000820160009054906101000a900473ffffffffffffffffffffffffffffffffffffffff168160000160006101000a81548173ffffffffffffffffffffffffffffffffffffffff021916908373ffffffffffffffffffffffffffffffffffffffff1602179055506001820181600101908054612a0e90613916565b612a19929190612fa1565b506002820181600201908054612a2e90613916565b612a39929190612fa1565b505050600c820181600c016000820181600001908054612a5890613916565b612a63929190612fa1565b5060018201548160010155600282015481600201556003820181600301908054612a8c90613916565b612a97929190612fa1565b50505060108201816010016000820160009054906101000a900473ffffffffffffffffffffffffffffffffffffffff168160000160006101000a81548173ffffffffffffffffffffffffffffffffffffffff021916908373ffffffffffffffffffffffffffffffffffffffff1602179055506001820181600101908054612b1d90613916565b612b28929190612fa1565b506002820181600201908054612b3d90613916565b612b48929190612fa1565b5050506013820160009054906101000a900473ffffffffffffffffffffffffffffffffffffffff168160130160006101000a81548173ffffffffffffffffffffffffffffffffffffffff021916908373ffffffffffffffffffffffffffffffffffffffff1602179055506014820181601401908054612bc690613916565b612bd1929190612fa1565b5050507ff2452d569e5bc407d222a6bcad7d4bb8bac5fae64ce52fa183bd77e34e0cc14783604051612c039190613618565b60405180910390a1505050565b60008054905090565b600073ffffffffffffffffffffffffffffffffffffffff168173ffffffffffffffffffffffffffffffffffffffff161415612c5357600080fd5b612c5c81612491565b15612c6657600080fd5b6001600560008373ffffffffffffffffffffffffffffffffffffffff1673ffffffffffffffffffffffffffffffffffffffff16815260200190815260200160002060000160026101000a81548160ff02191690831515021790555050565b60005481565b60606040518060400160405280601d81526020017f48656c6c6f2066726f6d207465737446756e6374696f6e43616c6c2829000000815250905090565b6000606080606060006060806000878960a001516000019073ffffffffffffffffffffffffffffffffffffffff16908173ffffffffffffffffffffffffffffffffffffffff1681525050858960a0015160200181905250848960a0015160400181905250838960e001516000019073ffffffffffffffffffffffffffffffffffffffff16908173ffffffffffffffffffffffffffffffffffffffff1681525050828960e0015160200181905250818960e00151604001819052508089610100019073ffffffffffffffffffffffffffffffffffffffff16908173ffffffffffffffffffffffffffffffffffffffff168152505086896101200181905250505050505050505050565b838560c0015160000181905250828560c001516020018181525050818560c001516040018181525050808560c00151606001819052505050505050565b6040518061014001604052806000815260200160008152602001600073ffffffffffffffffffffffffffffffffffffffff16815260200160006008811115612ebd577f4e487b7100000000000000000000000000000000000000000000000000000000600052602160045260246000fd5b8152602001612eca61302e565b8152602001612ed761307a565b8152602001612ee46130b1565b8152602001612ef16130d9565b8152602001600073ffffffffffffffffffffffffffffffffffffffff168152602001606081525090565b828054612f2790613916565b90600052602060002090601f016020900481019282612f495760008555612f90565b82601f10612f6257805160ff1916838001178555612f90565b82800160010185558215612f90579182015b82811115612f8f578251825591602001919060010190612f74565b5b509050612f9d9190613110565b5090565b828054612fad90613916565b90600052602060002090601f016020900481019282612fcf576000855561301d565b82601f10612fe0578054855561301d565b8280016001018555821561301d57600052602060002091601f016020900482015b8281111561301c578254825591600101919060010190613001565b5b50905061302a9190613110565b5090565b6040518060c00160405280600073ffffffffffffffffffffffffffffffffffffffff16815260200160608152602001606081526020016060815260200160608152602001600081525090565b6040518060600160405280600073ffffffffffffffffffffffffffffffffffffffff16815260200160608152602001606081525090565b6040518060800160405280606081526020016000815260200160008152602001606081525090565b6040518060600160405280600073ffffffffffffffffffffffffffffffffffffffff16815260200160608152602001606081525090565b5b80821115613129576000816000905550600101613111565b5090565b600061314061313b84613791565b613760565b90508281526020810184848401111561315857600080fd5b6131638482856138d4565b509392505050565b60008135905061317a81613a72565b92915050565b600082601f83011261319157600080fd5b81356131a184826020860161312d565b91505092915050565b6000813590506131b981613a89565b92915050565b6000602082840312156131d157600080fd5b60006131df8482850161316b565b91505092915050565b6000602082840312156131fa57600080fd5b600082013567ffffffffffffffff81111561321457600080fd5b61322084828501613180565b91505092915050565b600080600080600080600080610100898b03121561324657600080fd5b600089013567ffffffffffffffff81111561326057600080fd5b61326c8b828c01613180565b985050602089013567ffffffffffffffff81111561328957600080fd5b6132958b828c01613180565b975050604089013567ffffffffffffffff8111156132b257600080fd5b6132be8b828c01613180565b965050606089013567ffffffffffffffff8111156132db57600080fd5b6132e78b828c01613180565b955050608089013567ffffffffffffffff81111561330457600080fd5b6133108b828c01613180565b94505060a06133218b828c016131aa565b93505060c06133328b828c016131aa565b92505060e089013567ffffffffffffffff81111561334f57600080fd5b61335b8b828c01613180565b9150509295985092959890939650565b60006020828403121561337d57600080fd5b600061338b848285016131aa565b91505092915050565b600080604083850312156133a757600080fd5b60006133b5858286016131aa565b925050602083013567ffffffffffffffff8111156133d257600080fd5b6133de85828601613180565b9150509250929050565b6000806000606084860312156133fd57600080fd5b600061340b868287016131aa565b935050602084013567ffffffffffffffff81111561342857600080fd5b61343486828701613180565b925050604084013567ffffffffffffffff81111561345157600080fd5b61345d86828701613180565b9150509250925092565b60008060006060848603121561347c57600080fd5b600061348a868287016131aa565b935050602084013567ffffffffffffffff8111156134a757600080fd5b6134b386828701613180565b92505060406134c4868287016131aa565b9150509250925092565b6134d781613867565b82525050565b6134e681613879565b82525050565b6134f5816138c2565b82525050565b6000613506826137c1565b61351081856137cc565b93506135208185602086016138e3565b61352981613a4d565b840191505092915050565b61353d816138b8565b82525050565b600060208201905061355860008301846134dd565b92915050565b600060208201905061357360008301846134ec565b92915050565b6000602082019050818103600083015261359381846134fb565b905092915050565b600060c08201905081810360008301526135b581896134fb565b90506135c460208301886134ce565b81810360408301526135d681876134fb565b905081810360608301526135ea81866134fb565b90506135f960808301856134ce565b81810360a083015261360b81846134fb565b9050979650505050505050565b600060208201905061362d6000830184613534565b92915050565b600061010082019050613649600083018b613534565b818103602083015261365b818a6134fb565b905061366a6040830189613534565b6136776060830188613534565b818103608083015261368981876134fb565b905061369860a08301866134ec565b6136a560c08301856134ce565b81810360e08301526136b781846134fb565b90509998505050505050505050565b6000610100820190506136dc600083018b613534565b6136e9602083018a613534565b6136f660408301896134ce565b61370360608301886134ce565b818103608083015261371581876134fb565b905081810360a083015261372981866134fb565b905081810360c083015261373d81856134fb565b905081810360e083015261375181846134fb565b90509998505050505050505050565b6000604051905081810181811067ffffffffffffffff8211171561378757613786613a1e565b5b8060405250919050565b600067ffffffffffffffff8211156137ac576137ab613a1e565b5b601f19601f8301169050602081019050919050565b600081519050919050565b600082825260208201905092915050565b60006137e8826138b8565b91506137f3836138b8565b9250827fffffffffffffffffffffffffffffffffffffffffffffffffffffffffffffffff0382111561382857613827613991565b5b828201905092915050565b600061383e826138b8565b9150613849836138b8565b92508282101561385c5761385b613991565b5b828203905092915050565b600061387282613898565b9050919050565b60008115159050919050565b600081905061389382613a5e565b919050565b600073ffffffffffffffffffffffffffffffffffffffff82169050919050565b6000819050919050565b60006138cd82613885565b9050919050565b82818337600083830152505050565b60005b838110156139015780820151818401526020810190506138e6565b83811115613910576000848401525b50505050565b6000600282049050600182168061392e57607f821691505b60208210811415613942576139416139ef565b5b50919050565b6000613953826138b8565b91507fffffffffffffffffffffffffffffffffffffffffffffffffffffffffffffffff82141561398657613985613991565b5b600182019050919050565b7f4e487b7100000000000000000000000000000000000000000000000000000000600052601160045260246000fd5b7f4e487b7100000000000000000000000000000000000000000000000000000000600052602160045260246000fd5b7f4e487b7100000000000000000000000000000000000000000000000000000000600052602260045260246000fd5b7f4e487b7100000000000000000000000000000000000000000000000000000000600052604160045260246000fd5b6000601f19601f8301169050919050565b60098110613a6f57613a6e6139c0565b5b50565b613a7b81613867565b8114613a8657600080fd5b50565b613a92816138b8565b8114613a9d57600080fd5b5056fea26469706673582212205734f2ba0de4043774e0737d6b190a64f60b1d2b7adec5a917b2446fdb4b2c8064736f6c63430008000033",
  "linkReferences": {},
  "deployedLinkReferences": {}
}