{
  "_format": "hh-sol-artifact-1",
  "contractName": "SupplyChainStep6",
  "sourceName": "contracts/SupplyChainStep6.sol",
  "abi": [
    {
      "anonymous": false,
      "inputs": [
        {
          "indexed": false,
          "internalType": "uint256",
          "name": "uid",
          "type": "uint256"
        }
      ],
      "name": "Manufactured",
      "type": "event"
    },
    {
      "anonymous": false,
      "inputs": [
        {
          "indexed": true,
          "internalType": "address",
          "name": "_account",
          "type": "address"
        }
      ],
      "name": "ManufacturerAdded",
      "type": "event"
    },
    {
      "anonymous": false,
      "inputs": [
        {
          "indexed": false,
          "internalType": "uint256",
          "name": "uid",
          "type": "uint256"
        }
      ],
      "name": "PurchasedByCustomer",
      "type": "event"
    },
    {
      "anonymous": false,
      "inputs": [
        {
          "indexed": false,
          "internalType": "uint256",
          "name": "uid",
          "type": "uint256"
        }
      ],
      "name": "PurchasedByThirdParty",
      "type": "event"
    },
    {
      "anonymous": false,
      "inputs": [
        {
          "indexed": false,
          "internalType": "uint256",
          "name": "uid",
          "type": "uint256"
        }
      ],
      "name": "ReceivedByCustomer",
      "type": "event"
    },
    {
      "anonymous": false,
      "inputs": [
        {
          "indexed": false,
          "internalType": "uint256",
          "name": "uid",
          "type": "uint256"
        }
      ],
      "name": "ReceivedByDeliveryHub",
      "type": "event"
    },
    {
      "anonymous": false,
      "inputs": [
        {
          "indexed": false,
          "internalType": "uint256",
          "name": "uid",
          "type": "uint256"
        }
      ],
      "name": "ReceivedByThirdParty",
      "type": "event"
    },
    {
      "anonymous": false,
      "inputs": [
        {
          "indexed": false,
          "internalType": "uint256",
          "name": "uid",
          "type": "uint256"
        }
      ],
      "name": "ShippedByDeliveryHub",
      "type": "event"
    },
    {
      "anonymous": false,
      "inputs": [
        {
          "indexed": false,
          "internalType": "uint256",
          "name": "uid",
          "type": "uint256"
        }
      ],
      "name": "ShippedByManufacturer",
      "type": "event"
    },
    {
      "anonymous": false,
      "inputs": [
        {
          "indexed": false,
          "internalType": "uint256",
          "name": "uid",
          "type": "uint256"
        }
      ],
      "name": "ShippedByThirdParty",
      "type": "event"
    },
    {
      "inputs": [
        {
          "internalType": "address",
          "name": "_account",
          "type": "address"
        }
      ],
      "name": "addCustomerRole",
      "outputs": [],
      "stateMutability": "nonpayable",
      "type": "function"
    },
    {
      "inputs": [
        {
          "internalType": "address",
          "name": "_account",
          "type": "address"
        }
      ],
      "name": "addDeliveryHubRole",
      "outputs": [],
      "stateMutability": "nonpayable",
      "type": "function"
    },
    {
      "inputs": [
        {
          "internalType": "address",
          "name": "_account",
          "type": "address"
        }
      ],
      "name": "addManufacturerRole",
      "outputs": [],
      "stateMutability": "nonpayable",
      "type": "function"
    },
    {
      "inputs": [
        {
          "internalType": "address",
          "name": "_account",
          "type": "address"
        }
      ],
      "name": "addThirdPartyRole",
      "outputs": [],
      "stateMutability": "nonpayable",
      "type": "function"
    },
    {
      "inputs": [],
      "name": "fetchProductCount",
      "outputs": [
        {
          "internalType": "uint256",
          "name": "",
          "type": "uint256"
        }
      ],
      "stateMutability": "view",
      "type": "function"
    },
    {
      "inputs": [
        {
          "internalType": "uint256",
          "name": "_uid",
          "type": "uint256"
        }
      ],
      "name": "fetchProductHistoryLength",
      "outputs": [
        {
          "internalType": "uint256",
          "name": "",
          "type": "uint256"
        }
      ],
      "stateMutability": "view",
      "type": "function"
    },
    {
      "inputs": [
        {
          "internalType": "uint256",
          "name": "_uid",
          "type": "uint256"
        },
        {
          "internalType": "string",
          "name": "_type",
          "type": "string"
        },
        {
          "internalType": "uint256",
          "name": "i",
          "type": "uint256"
        }
      ],
      "name": "fetchProductPart1",
      "outputs": [
        {
          "internalType": "uint256",
          "name": "",
          "type": "uint256"
        },
        {
          "internalType": "uint256",
          "name": "",
          "type": "uint256"
        },
        {
          "internalType": "address",
          "name": "",
          "type": "address"
        },
        {
          "internalType": "address",
          "name": "",
          "type": "address"
        },
        {
          "internalType": "string",
          "name": "",
          "type": "string"
        },
        {
          "internalType": "string",
          "name": "",
          "type": "string"
        },
        {
          "internalType": "string",
          "name": "",
          "type": "string"
        },
        {
          "internalType": "string",
          "name": "",
          "type": "string"
        }
      ],
      "stateMutability": "view",
      "type": "function"
    },
    {
      "inputs": [
        {
          "internalType": "uint256",
          "name": "_uid",
          "type": "uint256"
        },
        {
          "internalType": "string",
          "name": "_type",
          "type": "string"
        },
        {
          "internalType": "uint256",
          "name": "i",
          "type": "uint256"
        }
      ],
      "name": "fetchProductPart2",
      "outputs": [
        {
          "internalType": "uint256",
          "name": "",
          "type": "uint256"
        },
        {
          "internalType": "string",
          "name": "",
          "type": "string"
        },
        {
          "internalType": "uint256",
          "name": "",
          "type": "uint256"
        },
        {
          "internalType": "uint256",
          "name": "",
          "type": "uint256"
        },
        {
          "internalType": "string",
          "name": "",
          "type": "string"
        },
        {
          "internalType": "enum Structure.State",
          "name": "",
          "type": "uint8"
        },
        {
          "internalType": "address",
          "name": "",
          "type": "address"
        },
        {
          "internalType": "string",
          "name": "",
          "type": "string"
        }
      ],
      "stateMutability": "view",
      "type": "function"
    },
    {
      "inputs": [
        {
          "internalType": "uint256",
          "name": "_uid",
          "type": "uint256"
        },
        {
          "internalType": "string",
          "name": "_type",
          "type": "string"
        },
        {
          "internalType": "uint256",
          "name": "i",
          "type": "uint256"
        }
      ],
      "name": "fetchProductPart3",
      "outputs": [
        {
          "internalType": "string",
          "name": "",
          "type": "string"
        },
        {
          "internalType": "address",
          "name": "",
          "type": "address"
        },
        {
          "internalType": "string",
          "name": "",
          "type": "string"
        },
        {
          "internalType": "string",
          "name": "",
          "type": "string"
        },
        {
          "internalType": "address",
          "name": "",
          "type": "address"
        },
        {
          "internalType": "string",
          "name": "",
          "type": "string"
        }
      ],
      "stateMutability": "view",
      "type": "function"
    },
    {
      "inputs": [
        {
          "internalType": "uint256",
          "name": "_uid",
          "type": "uint256"
        }
      ],
      "name": "fetchProductState",
      "outputs": [
        {
          "internalType": "enum Structure.State",
          "name": "",
          "type": "uint8"
        }
      ],
      "stateMutability": "view",
      "type": "function"
    },
    {
      "inputs": [
        {
          "internalType": "address",
          "name": "_account",
          "type": "address"
        }
      ],
      "name": "hasCustomerRole",
      "outputs": [
        {
          "internalType": "bool",
          "name": "",
          "type": "bool"
        }
      ],
      "stateMutability": "view",
      "type": "function"
    },
    {
      "inputs": [
        {
          "internalType": "address",
          "name": "_account",
          "type": "address"
        }
      ],
      "name": "hasDeliveryHubRole",
      "outputs": [
        {
          "internalType": "bool",
          "name": "",
          "type": "bool"
        }
      ],
      "stateMutability": "view",
      "type": "function"
    },
    {
      "inputs": [
        {
          "internalType": "address",
          "name": "_account",
          "type": "address"
        }
      ],
      "name": "hasManufacturerRole",
      "outputs": [
        {
          "internalType": "bool",
          "name": "",
          "type": "bool"
        }
      ],
      "stateMutability": "view",
      "type": "function"
    },
    {
      "inputs": [
        {
          "internalType": "address",
          "name": "_account",
          "type": "address"
        }
      ],
      "name": "hasThirdPartyRole",
      "outputs": [
        {
          "internalType": "bool",
          "name": "",
          "type": "bool"
        }
      ],
      "stateMutability": "view",
      "type": "function"
    },
    {
      "inputs": [
        {
          "internalType": "uint256",
          "name": "_uid",
          "type": "uint256"
        },
        {
          "internalType": "string",
          "name": "tran",
          "type": "string"
        }
      ],
      "name": "setTransactionHash",
      "outputs": [],
      "stateMutability": "nonpayable",
      "type": "function"
    },
    {
      "inputs": [
        {
          "internalType": "string",
          "name": "tran",
          "type": "string"
        }
      ],
      "name": "setTransactionHashOnManufacture",
      "outputs": [],
      "stateMutability": "nonpayable",
      "type": "function"
    },
    {
      "inputs": [
        {
          "internalType": "uint256",
          "name": "_uid",
          "type": "uint256"
        }
      ],
      "name": "shipByThirdParty",
      "outputs": [],
      "stateMutability": "nonpayable",
      "type": "function"
    },
    {
      "inputs": [],
      "name": "testFunctionCall",
      "outputs": [
        {
          "internalType": "string",
          "name": "",
          "type": "string"
        }
      ],
      "stateMutability": "pure",
      "type": "function"
    },
    {
      "inputs": [],
      "name": "uid",
      "outputs": [
        {
          "internalType": "uint256",
          "name": "",
          "type": "uint256"
        }
      ],
      "stateMutability": "view",
      "type": "function"
    }
  ],
  "bytecode": "0x608060405234801561001057600080fd5b5033600260006101000a81548173ffffffffffffffffffffffffffffffffffffffff021916908373ffffffffffffffffffffffffffffffffffffffff160217905550600180819055506001600081905550612503806100706000396000f3fe608060405234801561001057600080fd5b50600436106101215760003560e01c806398c95889116100ad578063ee707c1e11610071578063ee707c1e14610375578063f16791b314610391578063f4121b67146103af578063f514ce36146103cb578063fb0c5ea3146103e957610121565b806398c9588914610294578063cd2885e0146102c9578063d44bebcc146102f9578063e2f1fe1414610329578063e55128ea1461035957610121565b80636000ada1116100f45780636000ada1146101be578063658db497146101ee5780636f1fe8d714610225578063786ea1611461025c5780638290f8591461027857610121565b8063024edf9a14610126578063405ba7ef14610156578063453dd4af146101865780635212e510146101a2575b600080fd5b610140600480360381019061013b9190611e4c565b610407565b60405161014d919061200f565b60405180910390f35b610170600480360381019061016b9190611eb6565b610499565b60405161017d91906120e4565b60405180910390f35b6101a0600480360381019061019b9190611e4c565b6104bc565b005b6101bc60048036038101906101b79190611e4c565b610567565b005b6101d860048036038101906101d39190611e4c565b610612565b6040516101e5919061200f565b60405180910390f35b61020860048036038101906102039190611f33565b6106a4565b60405161021c989796959493929190612192565b60405180910390f35b61023f600480360381019061023a9190611f33565b610ab7565b6040516102539897969594939291906120ff565b60405180910390f35b61027660048036038101906102719190611edf565b610e34565b005b610292600480360381019061028d9190611e4c565b610ed7565b005b6102ae60048036038101906102a99190611f33565b610f82565b6040516102c096959493929190612067565b60405180910390f35b6102e360048036038101906102de9190611e4c565b611382565b6040516102f0919061200f565b60405180910390f35b610313600480360381019061030e9190611e4c565b611414565b604051610320919061200f565b60405180910390f35b610343600480360381019061033e9190611eb6565b6114a6565b604051610350919061202a565b60405180910390f35b610373600480360381019061036e9190611e75565b6114d3565b005b61038f600480360381019061038a9190611eb6565b61158b565b005b610399611b93565b6040516103a691906120e4565b60405180910390f35b6103c960048036038101906103c49190611e4c565b611b9c565b005b6103d3611c47565b6040516103e091906120e4565b60405180910390f35b6103f1611c4d565b6040516103fe9190612045565b60405180910390f35b60008073ffffffffffffffffffffffffffffffffffffffff168273ffffffffffffffffffffffffffffffffffffffff16141561044257600080fd5b600560008373ffffffffffffffffffffffffffffffffffffffff1673ffffffffffffffffffffffffffffffffffffffff16815260200190815260200160002060000160039054906101000a900460ff169050919050565b600060046000838152602001908152602001600020600001805490509050919050565b600073ffffffffffffffffffffffffffffffffffffffff168173ffffffffffffffffffffffffffffffffffffffff1614156104f657600080fd5b6104ff81611414565b1561050957600080fd5b6001600560008373ffffffffffffffffffffffffffffffffffffffff1673ffffffffffffffffffffffffffffffffffffffff16815260200190815260200160002060000160036101000a81548160ff02191690831515021790555050565b600073ffffffffffffffffffffffffffffffffffffffff168173ffffffffffffffffffffffffffffffffffffffff1614156105a157600080fd5b6105aa81611382565b156105b457600080fd5b6001600560008373ffffffffffffffffffffffffffffffffffffffff1673ffffffffffffffffffffffffffffffffffffffff16815260200190815260200160002060000160016101000a81548160ff02191690831515021790555050565b60008073ffffffffffffffffffffffffffffffffffffffff168273ffffffffffffffffffffffffffffffffffffffff16141561064d57600080fd5b600560008373ffffffffffffffffffffffffffffffffffffffff1673ffffffffffffffffffffffffffffffffffffffff16815260200190815260200160002060000160009054906101000a900460ff169050919050565b6000806000806060806060806000600360008d81526020019081526020016000206000015414156106d457600080fd5b6000600360008d815260200190815260200160002090506040518060400160405280600781526020017f70726f6475637400000000000000000000000000000000000000000000000000815250805190602001208b80519060200120141561074c57600360008d815260200190815260200160002090505b6040518060400160405280600781526020017f686973746f727900000000000000000000000000000000000000000000000000815250805190602001208b8051906020012014156107f657600460008d81526020019081526020016000206000018a815481106107e5577f4e487b7100000000000000000000000000000000000000000000000000000000600052603260045260246000fd5b906000526020600020906015020190505b806000015481600101548260020160009054906101000a900473ffffffffffffffffffffffffffffffffffffffff168360030160000160009054906101000a900473ffffffffffffffffffffffffffffffffffffffff16846003016001018560030160020186600301600301876003016004018380546108759061238c565b80601f01602080910402602001604051908101604052809291908181526020018280546108a19061238c565b80156108ee5780601f106108c3576101008083540402835291602001916108ee565b820191906000526020600020905b8154815290600101906020018083116108d157829003601f168201915b505050505093508280546109019061238c565b80601f016020809104026020016040519081016040528092919081815260200182805461092d9061238c565b801561097a5780601f1061094f5761010080835404028352916020019161097a565b820191906000526020600020905b81548152906001019060200180831161095d57829003601f168201915b5050505050925081805461098d9061238c565b80601f01602080910402602001604051908101604052809291908181526020018280546109b99061238c565b8015610a065780601f106109db57610100808354040283529160200191610a06565b820191906000526020600020905b8154815290600101906020018083116109e957829003601f168201915b50505050509150808054610a199061238c565b80601f0160208091040260200160405190810160405280929190818152602001828054610a459061238c565b8015610a925780601f10610a6757610100808354040283529160200191610a92565b820191906000526020600020905b815481529060010190602001808311610a7557829003601f168201915b5050505050905098509850985098509850985098509850509397509397509397509397565b60006060600080606060008060606000600360008d8152602001908152602001600020600001541415610ae957600080fd5b6000600360008d815260200190815260200160002090506040518060400160405280600781526020017f70726f6475637400000000000000000000000000000000000000000000000000815250805190602001208b805190602001201415610b6157600360008d815260200190815260200160002090505b6040518060400160405280600781526020017f686973746f727900000000000000000000000000000000000000000000000000815250805190602001208b805190602001201415610c0b57600460008d81526020019081526020016000206000018a81548110610bfa577f4e487b7100000000000000000000000000000000000000000000000000000000600052603260045260246000fd5b906000526020600020906015020190505b806003016005015481600c0160000182600c016001015483600c016002015484600c016003018560020160149054906101000a900460ff168660090160000160009054906101000a900473ffffffffffffffffffffffffffffffffffffffff1687600901600101868054610c7e9061238c565b80601f0160208091040260200160405190810160405280929190818152602001828054610caa9061238c565b8015610cf75780601f10610ccc57610100808354040283529160200191610cf7565b820191906000526020600020905b815481529060010190602001808311610cda57829003601f168201915b50505050509650838054610d0a9061238c565b80601f0160208091040260200160405190810160405280929190818152602001828054610d369061238c565b8015610d835780601f10610d5857610100808354040283529160200191610d83565b820191906000526020600020905b815481529060010190602001808311610d6657829003601f168201915b50505050509350808054610d969061238c565b80601f0160208091040260200160405190810160405280929190818152602001828054610dc29061238c565b8015610e0f5780601f10610de457610100808354040283529160200191610e0f565b820191906000526020600020905b815481529060010190602001808311610df257829003601f168201915b5050505050905098509850985098509850985098509850509397509397509397509397565b60006004600084815260200190815260200160002060000160016004600086815260200190815260200160002060000180549050610e7291906122a9565b81548110610ea9577f4e487b7100000000000000000000000000000000000000000000000000000000600052603260045260246000fd5b9060005260206000209060150201905081816014019080519060200190610ed1929190611c8a565b50505050565b600073ffffffffffffffffffffffffffffffffffffffff168173ffffffffffffffffffffffffffffffffffffffff161415610f1157600080fd5b610f1a81610612565b15610f2457600080fd5b6001600560008373ffffffffffffffffffffffffffffffffffffffff1673ffffffffffffffffffffffffffffffffffffffff16815260200190815260200160002060000160006101000a81548160ff02191690831515021790555050565b60606000606080600060606000600360008b8152602001908152602001600020600001541415610fb157600080fd5b6000600360008b815260200190815260200160002090506040518060400160405280600781526020017f70726f6475637400000000000000000000000000000000000000000000000000815250805190602001208980519060200120141561102957600360008b815260200190815260200160002090505b6040518060400160405280600781526020017f686973746f72790000000000000000000000000000000000000000000000000081525080519060200120898051906020012014156110d357600460008b815260200190815260200160002060000188815481106110c2577f4e487b7100000000000000000000000000000000000000000000000000000000600052603260045260246000fd5b906000526020600020906015020190505b806009016002018160100160000160009054906101000a900473ffffffffffffffffffffffffffffffffffffffff1682601001600101836010016002018460130160009054906101000a900473ffffffffffffffffffffffffffffffffffffffff16856014018580546111459061238c565b80601f01602080910402602001604051908101604052809291908181526020018280546111719061238c565b80156111be5780601f10611193576101008083540402835291602001916111be565b820191906000526020600020905b8154815290600101906020018083116111a157829003601f168201915b505050505095508380546111d19061238c565b80601f01602080910402602001604051908101604052809291908181526020018280546111fd9061238c565b801561124a5780601f1061121f5761010080835404028352916020019161124a565b820191906000526020600020905b81548152906001019060200180831161122d57829003601f168201915b5050505050935082805461125d9061238c565b80601f01602080910402602001604051908101604052809291908181526020018280546112899061238c565b80156112d65780601f106112ab576101008083540402835291602001916112d6565b820191906000526020600020905b8154815290600101906020018083116112b957829003601f168201915b505050505092508080546112e99061238c565b80601f01602080910402602001604051908101604052809291908181526020018280546113159061238c565b80156113625780601f1061133757610100808354040283529160200191611362565b820191906000526020600020905b81548152906001019060200180831161134557829003601f168201915b505050505090509650965096509650965096505093975093979195509350565b60008073ffffffffffffffffffffffffffffffffffffffff168273ffffffffffffffffffffffffffffffffffffffff1614156113bd57600080fd5b600560008373ffffffffffffffffffffffffffffffffffffffff1673ffffffffffffffffffffffffffffffffffffffff16815260200190815260200160002060000160019054906101000a900460ff169050919050565b60008073ffffffffffffffffffffffffffffffffffffffff168273ffffffffffffffffffffffffffffffffffffffff16141561144f57600080fd5b600560008373ffffffffffffffffffffffffffffffffffffffff1673ffffffffffffffffffffffffffffffffffffffff16815260200190815260200160002060000160029054906101000a900460ff169050919050565b60006003600083815260200190815260200160002060020160149054906101000a900460ff169050919050565b806004600060016000546114e791906122a9565b8152602001908152602001600020600001600160046000600160005461150d91906122a9565b81526020019081526020016000206000018054905061152c91906122a9565b81548110611563577f4e487b7100000000000000000000000000000000000000000000000000000000600052603260045260246000fd5b90600052602060002090601502016014019080519060200190611587929190611c8a565b5050565b6003600082815260200190815260200160002060020160009054906101000a900473ffffffffffffffffffffffffffffffffffffffff168073ffffffffffffffffffffffffffffffffffffffff163373ffffffffffffffffffffffffffffffffffffffff16146115fa57600080fd5b6003600083815260200190815260200160002060090160000160009054906101000a900473ffffffffffffffffffffffffffffffffffffffff168073ffffffffffffffffffffffffffffffffffffffff163373ffffffffffffffffffffffffffffffffffffffff161461166c57600080fd5b61167533611382565b61167e57600080fd5b60056003600085815260200190815260200160002060020160146101000a81548160ff021916908360088111156116de577f4e487b7100000000000000000000000000000000000000000000000000000000600052602160045260246000fd5b02179055506004600084815260200190815260200160002060000160036000858152602001908152602001600020908060018154018082558091505060019003906000526020600020906015020160009091909190915060008201548160000155600182015481600101556002820160009054906101000a900473ffffffffffffffffffffffffffffffffffffffff168160020160006101000a81548173ffffffffffffffffffffffffffffffffffffffff021916908373ffffffffffffffffffffffffffffffffffffffff1602179055506002820160149054906101000a900460ff168160020160146101000a81548160ff0219169083600881111561180e577f4e487b7100000000000000000000000000000000000000000000000000000000600052602160045260246000fd5b021790555060038201816003016000820160009054906101000a900473ffffffffffffffffffffffffffffffffffffffff168160000160006101000a81548173ffffffffffffffffffffffffffffffffffffffff021916908373ffffffffffffffffffffffffffffffffffffffff16021790555060018201816001019080546118969061238c565b6118a1929190611d10565b5060028201816002019080546118b69061238c565b6118c1929190611d10565b5060038201816003019080546118d69061238c565b6118e1929190611d10565b5060048201816004019080546118f69061238c565b611901929190611d10565b5060058201548160050155505060098201816009016000820160009054906101000a900473ffffffffffffffffffffffffffffffffffffffff168160000160006101000a81548173ffffffffffffffffffffffffffffffffffffffff021916908373ffffffffffffffffffffffffffffffffffffffff16021790555060018201816001019080546119919061238c565b61199c929190611d10565b5060028201816002019080546119b19061238c565b6119bc929190611d10565b505050600c820181600c0160008201816000019080546119db9061238c565b6119e6929190611d10565b5060018201548160010155600282015481600201556003820181600301908054611a0f9061238c565b611a1a929190611d10565b50505060108201816010016000820160009054906101000a900473ffffffffffffffffffffffffffffffffffffffff168160000160006101000a81548173ffffffffffffffffffffffffffffffffffffffff021916908373ffffffffffffffffffffffffffffffffffffffff1602179055506001820181600101908054611aa09061238c565b611aab929190611d10565b506002820181600201908054611ac09061238c565b611acb929190611d10565b5050506013820160009054906101000a900473ffffffffffffffffffffffffffffffffffffffff168160130160006101000a81548173ffffffffffffffffffffffffffffffffffffffff021916908373ffffffffffffffffffffffffffffffffffffffff1602179055506014820181601401908054611b499061238c565b611b54929190611d10565b5050507ff2452d569e5bc407d222a6bcad7d4bb8bac5fae64ce52fa183bd77e34e0cc14783604051611b8691906120e4565b60405180910390a1505050565b60008054905090565b600073ffffffffffffffffffffffffffffffffffffffff168173ffffffffffffffffffffffffffffffffffffffff161415611bd657600080fd5b611bdf81611414565b15611be957600080fd5b6001600560008373ffffffffffffffffffffffffffffffffffffffff1673ffffffffffffffffffffffffffffffffffffffff16815260200190815260200160002060000160026101000a81548160ff02191690831515021790555050565b60005481565b60606040518060400160405280601d81526020017f48656c6c6f2066726f6d207465737446756e6374696f6e43616c6c2829000000815250905090565b828054611c969061238c565b90600052602060002090601f016020900481019282611cb85760008555611cff565b82601f10611cd157805160ff1916838001178555611cff565b82800160010185558215611cff579182015b82811115611cfe578251825591602001919060010190611ce3565b5b509050611d0c9190611d9d565b5090565b828054611d1c9061238c565b90600052602060002090601f016020900481019282611d3e5760008555611d8c565b82601f10611d4f5780548555611d8c565b82800160010185558215611d8c57600052602060002091601f016020900482015b82811115611d8b578254825591600101919060010190611d70565b5b509050611d999190611d9d565b5090565b5b80821115611db6576000816000905550600101611d9e565b5090565b6000611dcd611dc88461225d565b61222c565b905082815260208101848484011115611de557600080fd5b611df084828561234a565b509392505050565b600081359050611e078161249f565b92915050565b600082601f830112611e1e57600080fd5b8135611e2e848260208601611dba565b91505092915050565b600081359050611e46816124b6565b92915050565b600060208284031215611e5e57600080fd5b6000611e6c84828501611df8565b91505092915050565b600060208284031215611e8757600080fd5b600082013567ffffffffffffffff811115611ea157600080fd5b611ead84828501611e0d565b91505092915050565b600060208284031215611ec857600080fd5b6000611ed684828501611e37565b91505092915050565b60008060408385031215611ef257600080fd5b6000611f0085828601611e37565b925050602083013567ffffffffffffffff811115611f1d57600080fd5b611f2985828601611e0d565b9150509250929050565b600080600060608486031215611f4857600080fd5b6000611f5686828701611e37565b935050602084013567ffffffffffffffff811115611f7357600080fd5b611f7f86828701611e0d565b9250506040611f9086828701611e37565b9150509250925092565b611fa3816122dd565b82525050565b611fb2816122ef565b82525050565b611fc181612338565b82525050565b6000611fd28261228d565b611fdc8185612298565b9350611fec818560208601612359565b611ff58161247a565b840191505092915050565b6120098161232e565b82525050565b60006020820190506120246000830184611fa9565b92915050565b600060208201905061203f6000830184611fb8565b92915050565b6000602082019050818103600083015261205f8184611fc7565b905092915050565b600060c08201905081810360008301526120818189611fc7565b90506120906020830188611f9a565b81810360408301526120a28187611fc7565b905081810360608301526120b68186611fc7565b90506120c56080830185611f9a565b81810360a08301526120d78184611fc7565b9050979650505050505050565b60006020820190506120f96000830184612000565b92915050565b600061010082019050612115600083018b612000565b8181036020830152612127818a611fc7565b90506121366040830189612000565b6121436060830188612000565b81810360808301526121558187611fc7565b905061216460a0830186611fb8565b61217160c0830185611f9a565b81810360e08301526121838184611fc7565b90509998505050505050505050565b6000610100820190506121a8600083018b612000565b6121b5602083018a612000565b6121c26040830189611f9a565b6121cf6060830188611f9a565b81810360808301526121e18187611fc7565b905081810360a08301526121f58186611fc7565b905081810360c08301526122098185611fc7565b905081810360e083015261221d8184611fc7565b90509998505050505050505050565b6000604051905081810181811067ffffffffffffffff821117156122535761225261244b565b5b8060405250919050565b600067ffffffffffffffff8211156122785761227761244b565b5b601f19601f8301169050602081019050919050565b600081519050919050565b600082825260208201905092915050565b60006122b48261232e565b91506122bf8361232e565b9250828210156122d2576122d16123be565b5b828203905092915050565b60006122e88261230e565b9050919050565b60008115159050919050565b60008190506123098261248b565b919050565b600073ffffffffffffffffffffffffffffffffffffffff82169050919050565b6000819050919050565b6000612343826122fb565b9050919050565b82818337600083830152505050565b60005b8381101561237757808201518184015260208101905061235c565b83811115612386576000848401525b50505050565b600060028204905060018216806123a457607f821691505b602082108114156123b8576123b761241c565b5b50919050565b7f4e487b7100000000000000000000000000000000000000000000000000000000600052601160045260246000fd5b7f4e487b7100000000000000000000000000000000000000000000000000000000600052602160045260246000fd5b7f4e487b7100000000000000000000000000000000000000000000000000000000600052602260045260246000fd5b7f4e487b7100000000000000000000000000000000000000000000000000000000600052604160045260246000fd5b6000601f19601f8301169050919050565b6009811061249c5761249b6123ed565b5b50565b6124a8816122dd565b81146124b357600080fd5b50565b6124bf8161232e565b81146124ca57600080fd5b5056fea2646970667358221220048053b50b80bf3a57807992f1662dad2abdf5a411d064d6a9d2459620272dba64736f6c63430008000033",
  "linkReferences": {},
  "deployedLinkReferences": {}
}