{
  "_format": "hh-sol-artifact-1",
  "contractName": "SupplyChainStep4",
  "sourceName": "contracts/SupplyChainStep4.sol",
  "abi": [
    {
      "anonymous": false,
      "inputs": [
        {
          "indexed": false,
          "internalType": "uint256",
          "name": "uid",
          "type": "uint256"
        }
      ],
      "name": "Manufactured",
      "type": "event"
    },
    {
      "anonymous": false,
      "inputs": [
        {
          "indexed": true,
          "internalType": "address",
          "name": "_account",
          "type": "address"
        }
      ],
      "name": "ManufacturerAdded",
      "type": "event"
    },
    {
      "anonymous": false,
      "inputs": [
        {
          "indexed": false,
          "internalType": "uint256",
          "name": "uid",
          "type": "uint256"
        }
      ],
      "name": "PurchasedByCustomer",
      "type": "event"
    },
    {
      "anonymous": false,
      "inputs": [
        {
          "indexed": false,
          "internalType": "uint256",
          "name": "uid",
          "type": "uint256"
        }
      ],
      "name": "PurchasedByThirdParty",
      "type": "event"
    },
    {
      "anonymous": false,
      "inputs": [
        {
          "indexed": false,
          "internalType": "uint256",
          "name": "uid",
          "type": "uint256"
        }
      ],
      "name": "ReceivedByCustomer",
      "type": "event"
    },
    {
      "anonymous": false,
      "inputs": [
        {
          "indexed": false,
          "internalType": "uint256",
          "name": "uid",
          "type": "uint256"
        }
      ],
      "name": "ReceivedByDeliveryHub",
      "type": "event"
    },
    {
      "anonymous": false,
      "inputs": [
        {
          "indexed": false,
          "internalType": "uint256",
          "name": "uid",
          "type": "uint256"
        }
      ],
      "name": "ReceivedByThirdParty",
      "type": "event"
    },
    {
      "anonymous": false,
      "inputs": [
        {
          "indexed": false,
          "internalType": "uint256",
          "name": "uid",
          "type": "uint256"
        }
      ],
      "name": "ShippedByDeliveryHub",
      "type": "event"
    },
    {
      "anonymous": false,
      "inputs": [
        {
          "indexed": false,
          "internalType": "uint256",
          "name": "uid",
          "type": "uint256"
        }
      ],
      "name": "ShippedByManufacturer",
      "type": "event"
    },
    {
      "anonymous": false,
      "inputs": [
        {
          "indexed": false,
          "internalType": "uint256",
          "name": "uid",
          "type": "uint256"
        }
      ],
      "name": "ShippedByThirdParty",
      "type": "event"
    },
    {
      "inputs": [
        {
          "internalType": "address",
          "name": "_account",
          "type": "address"
        }
      ],
      "name": "addCustomerRole",
      "outputs": [],
      "stateMutability": "nonpayable",
      "type": "function"
    },
    {
      "inputs": [
        {
          "internalType": "address",
          "name": "_account",
          "type": "address"
        }
      ],
      "name": "addDeliveryHubRole",
      "outputs": [],
      "stateMutability": "nonpayable",
      "type": "function"
    },
    {
      "inputs": [
        {
          "internalType": "address",
          "name": "_account",
          "type": "address"
        }
      ],
      "name": "addManufacturerRole",
      "outputs": [],
      "stateMutability": "nonpayable",
      "type": "function"
    },
    {
      "inputs": [
        {
          "internalType": "address",
          "name": "_account",
          "type": "address"
        }
      ],
      "name": "addThirdPartyRole",
      "outputs": [],
      "stateMutability": "nonpayable",
      "type": "function"
    },
    {
      "inputs": [],
      "name": "fetchProductCount",
      "outputs": [
        {
          "internalType": "uint256",
          "name": "",
          "type": "uint256"
        }
      ],
      "stateMutability": "view",
      "type": "function"
    },
    {
      "inputs": [
        {
          "internalType": "uint256",
          "name": "_uid",
          "type": "uint256"
        }
      ],
      "name": "fetchProductHistoryLength",
      "outputs": [
        {
          "internalType": "uint256",
          "name": "",
          "type": "uint256"
        }
      ],
      "stateMutability": "view",
      "type": "function"
    },
    {
      "inputs": [
        {
          "internalType": "uint256",
          "name": "_uid",
          "type": "uint256"
        },
        {
          "internalType": "string",
          "name": "_type",
          "type": "string"
        },
        {
          "internalType": "uint256",
          "name": "i",
          "type": "uint256"
        }
      ],
      "name": "fetchProductPart1",
      "outputs": [
        {
          "internalType": "uint256",
          "name": "",
          "type": "uint256"
        },
        {
          "internalType": "uint256",
          "name": "",
          "type": "uint256"
        },
        {
          "internalType": "address",
          "name": "",
          "type": "address"
        },
        {
          "internalType": "address",
          "name": "",
          "type": "address"
        },
        {
          "internalType": "string",
          "name": "",
          "type": "string"
        },
        {
          "internalType": "string",
          "name": "",
          "type": "string"
        },
        {
          "internalType": "string",
          "name": "",
          "type": "string"
        },
        {
          "internalType": "string",
          "name": "",
          "type": "string"
        }
      ],
      "stateMutability": "view",
      "type": "function"
    },
    {
      "inputs": [
        {
          "internalType": "uint256",
          "name": "_uid",
          "type": "uint256"
        },
        {
          "internalType": "string",
          "name": "_type",
          "type": "string"
        },
        {
          "internalType": "uint256",
          "name": "i",
          "type": "uint256"
        }
      ],
      "name": "fetchProductPart2",
      "outputs": [
        {
          "internalType": "uint256",
          "name": "",
          "type": "uint256"
        },
        {
          "internalType": "string",
          "name": "",
          "type": "string"
        },
        {
          "internalType": "uint256",
          "name": "",
          "type": "uint256"
        },
        {
          "internalType": "uint256",
          "name": "",
          "type": "uint256"
        },
        {
          "internalType": "string",
          "name": "",
          "type": "string"
        },
        {
          "internalType": "enum Structure.State",
          "name": "",
          "type": "uint8"
        },
        {
          "internalType": "address",
          "name": "",
          "type": "address"
        },
        {
          "internalType": "string",
          "name": "",
          "type": "string"
        }
      ],
      "stateMutability": "view",
      "type": "function"
    },
    {
      "inputs": [
        {
          "internalType": "uint256",
          "name": "_uid",
          "type": "uint256"
        },
        {
          "internalType": "string",
          "name": "_type",
          "type": "string"
        },
        {
          "internalType": "uint256",
          "name": "i",
          "type": "uint256"
        }
      ],
      "name": "fetchProductPart3",
      "outputs": [
        {
          "internalType": "string",
          "name": "",
          "type": "string"
        },
        {
          "internalType": "address",
          "name": "",
          "type": "address"
        },
        {
          "internalType": "string",
          "name": "",
          "type": "string"
        },
        {
          "internalType": "string",
          "name": "",
          "type": "string"
        },
        {
          "internalType": "address",
          "name": "",
          "type": "address"
        },
        {
          "internalType": "string",
          "name": "",
          "type": "string"
        }
      ],
      "stateMutability": "view",
      "type": "function"
    },
    {
      "inputs": [
        {
          "internalType": "uint256",
          "name": "_uid",
          "type": "uint256"
        }
      ],
      "name": "fetchProductState",
      "outputs": [
        {
          "internalType": "enum Structure.State",
          "name": "",
          "type": "uint8"
        }
      ],
      "stateMutability": "view",
      "type": "function"
    },
    {
      "inputs": [
        {
          "internalType": "address",
          "name": "_account",
          "type": "address"
        }
      ],
      "name": "hasCustomerRole",
      "outputs": [
        {
          "internalType": "bool",
          "name": "",
          "type": "bool"
        }
      ],
      "stateMutability": "view",
      "type": "function"
    },
    {
      "inputs": [
        {
          "internalType": "address",
          "name": "_account",
          "type": "address"
        }
      ],
      "name": "hasDeliveryHubRole",
      "outputs": [
        {
          "internalType": "bool",
          "name": "",
          "type": "bool"
        }
      ],
      "stateMutability": "view",
      "type": "function"
    },
    {
      "inputs": [
        {
          "internalType": "address",
          "name": "_account",
          "type": "address"
        }
      ],
      "name": "hasManufacturerRole",
      "outputs": [
        {
          "internalType": "bool",
          "name": "",
          "type": "bool"
        }
      ],
      "stateMutability": "view",
      "type": "function"
    },
    {
      "inputs": [
        {
          "internalType": "address",
          "name": "_account",
          "type": "address"
        }
      ],
      "name": "hasThirdPartyRole",
      "outputs": [
        {
          "internalType": "bool",
          "name": "",
          "type": "bool"
        }
      ],
      "stateMutability": "view",
      "type": "function"
    },
    {
      "inputs": [
        {
          "internalType": "uint256",
          "name": "_uid",
          "type": "uint256"
        },
        {
          "internalType": "string",
          "name": "thirdPartyLongitude",
          "type": "string"
        },
        {
          "internalType": "string",
          "name": "thirdPartyLatitude",
          "type": "string"
        }
      ],
      "name": "receiveByThirdParty",
      "outputs": [],
      "stateMutability": "nonpayable",
      "type": "function"
    },
    {
      "inputs": [
        {
          "internalType": "uint256",
          "name": "_uid",
          "type": "uint256"
        },
        {
          "internalType": "string",
          "name": "tran",
          "type": "string"
        }
      ],
      "name": "setTransactionHash",
      "outputs": [],
      "stateMutability": "nonpayable",
      "type": "function"
    },
    {
      "inputs": [
        {
          "internalType": "string",
          "name": "tran",
          "type": "string"
        }
      ],
      "name": "setTransactionHashOnManufacture",
      "outputs": [],
      "stateMutability": "nonpayable",
      "type": "function"
    },
    {
      "inputs": [],
      "name": "testFunctionCall",
      "outputs": [
        {
          "internalType": "string",
          "name": "",
          "type": "string"
        }
      ],
      "stateMutability": "pure",
      "type": "function"
    },
    {
      "inputs": [],
      "name": "uid",
      "outputs": [
        {
          "internalType": "uint256",
          "name": "",
          "type": "uint256"
        }
      ],
      "stateMutability": "view",
      "type": "function"
    }
  ],
  "bytecode": "0x608060405234801561001057600080fd5b5033600260006101000a81548173ffffffffffffffffffffffffffffffffffffffff021916908373ffffffffffffffffffffffffffffffffffffffff160217905550600180819055506001600081905550612666806100706000396000f3fe608060405234801561001057600080fd5b50600436106101215760003560e01c80638290f859116100ad578063e55128ea11610071578063e55128ea14610375578063f16791b314610391578063f4121b67146103af578063f514ce36146103cb578063fb0c5ea3146103e957610121565b80638290f8591461029457806398c95889146102b0578063cd2885e0146102e5578063d44bebcc14610315578063e2f1fe141461034557610121565b80635212e510116100f45780635212e510146101be5780636000ada1146101da578063658db4971461020a5780636f1fe8d714610241578063786ea1611461027857610121565b8063024edf9a146101265780633334529e14610156578063405ba7ef14610172578063453dd4af146101a2575b600080fd5b610140600480360381019061013b9190611f30565b610407565b60405161014d9190612172565b60405180910390f35b610170600480360381019061016b9190612017565b610499565b005b61018c60048036038101906101879190611f9a565b610b85565b6040516101999190612247565b60405180910390f35b6101bc60048036038101906101b79190611f30565b610ba8565b005b6101d860048036038101906101d39190611f30565b610c53565b005b6101f460048036038101906101ef9190611f30565b610cfe565b6040516102019190612172565b60405180910390f35b610224600480360381019061021f9190612096565b610d90565b6040516102389897969594939291906122f5565b60405180910390f35b61025b60048036038101906102569190612096565b6111a3565b60405161026f989796959493929190612262565b60405180910390f35b610292600480360381019061028d9190611fc3565b611520565b005b6102ae60048036038101906102a99190611f30565b6115c3565b005b6102ca60048036038101906102c59190612096565b61166e565b6040516102dc969594939291906121ca565b60405180910390f35b6102ff60048036038101906102fa9190611f30565b611a6e565b60405161030c9190612172565b60405180910390f35b61032f600480360381019061032a9190611f30565b611b00565b60405161033c9190612172565b60405180910390f35b61035f600480360381019061035a9190611f9a565b611b92565b60405161036c919061218d565b60405180910390f35b61038f600480360381019061038a9190611f59565b611bbf565b005b610399611c77565b6040516103a69190612247565b60405180910390f35b6103c960048036038101906103c49190611f30565b611c80565b005b6103d3611d2b565b6040516103e09190612247565b60405180910390f35b6103f1611d31565b6040516103fe91906121a8565b60405180910390f35b60008073ffffffffffffffffffffffffffffffffffffffff168273ffffffffffffffffffffffffffffffffffffffff16141561044257600080fd5b600560008373ffffffffffffffffffffffffffffffffffffffff1673ffffffffffffffffffffffffffffffffffffffff16815260200190815260200160002060000160039054906101000a900460ff169050919050565b82600260088111156104d4577f4e487b7100000000000000000000000000000000000000000000000000000000600052602160045260246000fd5b6003600083815260200190815260200160002060020160149054906101000a900460ff166008811115610530577f4e487b7100000000000000000000000000000000000000000000000000000000600052602160045260246000fd5b1461053a57600080fd5b6003600085815260200190815260200160002060090160000160009054906101000a900473ffffffffffffffffffffffffffffffffffffffff168073ffffffffffffffffffffffffffffffffffffffff163373ffffffffffffffffffffffffffffffffffffffff16146105ac57600080fd5b6105b533611a6e565b6105be57600080fd5b336003600087815260200190815260200160002060020160006101000a81548173ffffffffffffffffffffffffffffffffffffffff021916908373ffffffffffffffffffffffffffffffffffffffff16021790555083600360008781526020019081526020016000206009016001019080519060200190610640929190611d6e565b508260036000878152602001908152602001600020600901600201908051906020019061066e929190611d6e565b50600380600087815260200190815260200160002060020160146101000a81548160ff021916908360088111156106ce577f4e487b7100000000000000000000000000000000000000000000000000000000600052602160045260246000fd5b02179055506004600086815260200190815260200160002060000160036000878152602001908152602001600020908060018154018082558091505060019003906000526020600020906015020160009091909190915060008201548160000155600182015481600101556002820160009054906101000a900473ffffffffffffffffffffffffffffffffffffffff168160020160006101000a81548173ffffffffffffffffffffffffffffffffffffffff021916908373ffffffffffffffffffffffffffffffffffffffff1602179055506002820160149054906101000a900460ff168160020160146101000a81548160ff021916908360088111156107fe577f4e487b7100000000000000000000000000000000000000000000000000000000600052602160045260246000fd5b021790555060038201816003016000820160009054906101000a900473ffffffffffffffffffffffffffffffffffffffff168160000160006101000a81548173ffffffffffffffffffffffffffffffffffffffff021916908373ffffffffffffffffffffffffffffffffffffffff1602179055506001820181600101908054610886906124ef565b610891929190611df4565b5060028201816002019080546108a6906124ef565b6108b1929190611df4565b5060038201816003019080546108c6906124ef565b6108d1929190611df4565b5060048201816004019080546108e6906124ef565b6108f1929190611df4565b5060058201548160050155505060098201816009016000820160009054906101000a900473ffffffffffffffffffffffffffffffffffffffff168160000160006101000a81548173ffffffffffffffffffffffffffffffffffffffff021916908373ffffffffffffffffffffffffffffffffffffffff1602179055506001820181600101908054610981906124ef565b61098c929190611df4565b5060028201816002019080546109a1906124ef565b6109ac929190611df4565b505050600c820181600c0160008201816000019080546109cb906124ef565b6109d6929190611df4565b50600182015481600101556002820154816002015560038201816003019080546109ff906124ef565b610a0a929190611df4565b50505060108201816010016000820160009054906101000a900473ffffffffffffffffffffffffffffffffffffffff168160000160006101000a81548173ffffffffffffffffffffffffffffffffffffffff021916908373ffffffffffffffffffffffffffffffffffffffff1602179055506001820181600101908054610a90906124ef565b610a9b929190611df4565b506002820181600201908054610ab0906124ef565b610abb929190611df4565b5050506013820160009054906101000a900473ffffffffffffffffffffffffffffffffffffffff168160130160006101000a81548173ffffffffffffffffffffffffffffffffffffffff021916908373ffffffffffffffffffffffffffffffffffffffff1602179055506014820181601401908054610b39906124ef565b610b44929190611df4565b5050507fa22971300ba7d9ca2113cf57c3238cde86a32cfba0c31a13ad86a23bde3facf285604051610b769190612247565b60405180910390a15050505050565b600060046000838152602001908152602001600020600001805490509050919050565b600073ffffffffffffffffffffffffffffffffffffffff168173ffffffffffffffffffffffffffffffffffffffff161415610be257600080fd5b610beb81611b00565b15610bf557600080fd5b6001600560008373ffffffffffffffffffffffffffffffffffffffff1673ffffffffffffffffffffffffffffffffffffffff16815260200190815260200160002060000160036101000a81548160ff02191690831515021790555050565b600073ffffffffffffffffffffffffffffffffffffffff168173ffffffffffffffffffffffffffffffffffffffff161415610c8d57600080fd5b610c9681611a6e565b15610ca057600080fd5b6001600560008373ffffffffffffffffffffffffffffffffffffffff1673ffffffffffffffffffffffffffffffffffffffff16815260200190815260200160002060000160016101000a81548160ff02191690831515021790555050565b60008073ffffffffffffffffffffffffffffffffffffffff168273ffffffffffffffffffffffffffffffffffffffff161415610d3957600080fd5b600560008373ffffffffffffffffffffffffffffffffffffffff1673ffffffffffffffffffffffffffffffffffffffff16815260200190815260200160002060000160009054906101000a900460ff169050919050565b6000806000806060806060806000600360008d8152602001908152602001600020600001541415610dc057600080fd5b6000600360008d815260200190815260200160002090506040518060400160405280600781526020017f70726f6475637400000000000000000000000000000000000000000000000000815250805190602001208b805190602001201415610e3857600360008d815260200190815260200160002090505b6040518060400160405280600781526020017f686973746f727900000000000000000000000000000000000000000000000000815250805190602001208b805190602001201415610ee257600460008d81526020019081526020016000206000018a81548110610ed1577f4e487b7100000000000000000000000000000000000000000000000000000000600052603260045260246000fd5b906000526020600020906015020190505b806000015481600101548260020160009054906101000a900473ffffffffffffffffffffffffffffffffffffffff168360030160000160009054906101000a900473ffffffffffffffffffffffffffffffffffffffff1684600301600101856003016002018660030160030187600301600401838054610f61906124ef565b80601f0160208091040260200160405190810160405280929190818152602001828054610f8d906124ef565b8015610fda5780601f10610faf57610100808354040283529160200191610fda565b820191906000526020600020905b815481529060010190602001808311610fbd57829003601f168201915b50505050509350828054610fed906124ef565b80601f0160208091040260200160405190810160405280929190818152602001828054611019906124ef565b80156110665780601f1061103b57610100808354040283529160200191611066565b820191906000526020600020905b81548152906001019060200180831161104957829003601f168201915b50505050509250818054611079906124ef565b80601f01602080910402602001604051908101604052809291908181526020018280546110a5906124ef565b80156110f25780601f106110c7576101008083540402835291602001916110f2565b820191906000526020600020905b8154815290600101906020018083116110d557829003601f168201915b50505050509150808054611105906124ef565b80601f0160208091040260200160405190810160405280929190818152602001828054611131906124ef565b801561117e5780601f106111535761010080835404028352916020019161117e565b820191906000526020600020905b81548152906001019060200180831161116157829003601f168201915b5050505050905098509850985098509850985098509850509397509397509397509397565b60006060600080606060008060606000600360008d81526020019081526020016000206000015414156111d557600080fd5b6000600360008d815260200190815260200160002090506040518060400160405280600781526020017f70726f6475637400000000000000000000000000000000000000000000000000815250805190602001208b80519060200120141561124d57600360008d815260200190815260200160002090505b6040518060400160405280600781526020017f686973746f727900000000000000000000000000000000000000000000000000815250805190602001208b8051906020012014156112f757600460008d81526020019081526020016000206000018a815481106112e6577f4e487b7100000000000000000000000000000000000000000000000000000000600052603260045260246000fd5b906000526020600020906015020190505b806003016005015481600c0160000182600c016001015483600c016002015484600c016003018560020160149054906101000a900460ff168660090160000160009054906101000a900473ffffffffffffffffffffffffffffffffffffffff168760090160010186805461136a906124ef565b80601f0160208091040260200160405190810160405280929190818152602001828054611396906124ef565b80156113e35780601f106113b8576101008083540402835291602001916113e3565b820191906000526020600020905b8154815290600101906020018083116113c657829003601f168201915b505050505096508380546113f6906124ef565b80601f0160208091040260200160405190810160405280929190818152602001828054611422906124ef565b801561146f5780601f106114445761010080835404028352916020019161146f565b820191906000526020600020905b81548152906001019060200180831161145257829003601f168201915b50505050509350808054611482906124ef565b80601f01602080910402602001604051908101604052809291908181526020018280546114ae906124ef565b80156114fb5780601f106114d0576101008083540402835291602001916114fb565b820191906000526020600020905b8154815290600101906020018083116114de57829003601f168201915b5050505050905098509850985098509850985098509850509397509397509397509397565b6000600460008481526020019081526020016000206000016001600460008681526020019081526020016000206000018054905061155e919061240c565b81548110611595577f4e487b7100000000000000000000000000000000000000000000000000000000600052603260045260246000fd5b90600052602060002090601502019050818160140190805190602001906115bd929190611d6e565b50505050565b600073ffffffffffffffffffffffffffffffffffffffff168173ffffffffffffffffffffffffffffffffffffffff1614156115fd57600080fd5b61160681610cfe565b1561161057600080fd5b6001600560008373ffffffffffffffffffffffffffffffffffffffff1673ffffffffffffffffffffffffffffffffffffffff16815260200190815260200160002060000160006101000a81548160ff02191690831515021790555050565b60606000606080600060606000600360008b815260200190815260200160002060000154141561169d57600080fd5b6000600360008b815260200190815260200160002090506040518060400160405280600781526020017f70726f6475637400000000000000000000000000000000000000000000000000815250805190602001208980519060200120141561171557600360008b815260200190815260200160002090505b6040518060400160405280600781526020017f686973746f72790000000000000000000000000000000000000000000000000081525080519060200120898051906020012014156117bf57600460008b815260200190815260200160002060000188815481106117ae577f4e487b7100000000000000000000000000000000000000000000000000000000600052603260045260246000fd5b906000526020600020906015020190505b806009016002018160100160000160009054906101000a900473ffffffffffffffffffffffffffffffffffffffff1682601001600101836010016002018460130160009054906101000a900473ffffffffffffffffffffffffffffffffffffffff1685601401858054611831906124ef565b80601f016020809104026020016040519081016040528092919081815260200182805461185d906124ef565b80156118aa5780601f1061187f576101008083540402835291602001916118aa565b820191906000526020600020905b81548152906001019060200180831161188d57829003601f168201915b505050505095508380546118bd906124ef565b80601f01602080910402602001604051908101604052809291908181526020018280546118e9906124ef565b80156119365780601f1061190b57610100808354040283529160200191611936565b820191906000526020600020905b81548152906001019060200180831161191957829003601f168201915b50505050509350828054611949906124ef565b80601f0160208091040260200160405190810160405280929190818152602001828054611975906124ef565b80156119c25780601f10611997576101008083540402835291602001916119c2565b820191906000526020600020905b8154815290600101906020018083116119a557829003601f168201915b505050505092508080546119d5906124ef565b80601f0160208091040260200160405190810160405280929190818152602001828054611a01906124ef565b8015611a4e5780601f10611a2357610100808354040283529160200191611a4e565b820191906000526020600020905b815481529060010190602001808311611a3157829003601f168201915b505050505090509650965096509650965096505093975093979195509350565b60008073ffffffffffffffffffffffffffffffffffffffff168273ffffffffffffffffffffffffffffffffffffffff161415611aa957600080fd5b600560008373ffffffffffffffffffffffffffffffffffffffff1673ffffffffffffffffffffffffffffffffffffffff16815260200190815260200160002060000160019054906101000a900460ff169050919050565b60008073ffffffffffffffffffffffffffffffffffffffff168273ffffffffffffffffffffffffffffffffffffffff161415611b3b57600080fd5b600560008373ffffffffffffffffffffffffffffffffffffffff1673ffffffffffffffffffffffffffffffffffffffff16815260200190815260200160002060000160029054906101000a900460ff169050919050565b60006003600083815260200190815260200160002060020160149054906101000a900460ff169050919050565b80600460006001600054611bd3919061240c565b81526020019081526020016000206000016001600460006001600054611bf9919061240c565b815260200190815260200160002060000180549050611c18919061240c565b81548110611c4f577f4e487b7100000000000000000000000000000000000000000000000000000000600052603260045260246000fd5b90600052602060002090601502016014019080519060200190611c73929190611d6e565b5050565b60008054905090565b600073ffffffffffffffffffffffffffffffffffffffff168173ffffffffffffffffffffffffffffffffffffffff161415611cba57600080fd5b611cc381611b00565b15611ccd57600080fd5b6001600560008373ffffffffffffffffffffffffffffffffffffffff1673ffffffffffffffffffffffffffffffffffffffff16815260200190815260200160002060000160026101000a81548160ff02191690831515021790555050565b60005481565b60606040518060400160405280601d81526020017f48656c6c6f2066726f6d207465737446756e6374696f6e43616c6c2829000000815250905090565b828054611d7a906124ef565b90600052602060002090601f016020900481019282611d9c5760008555611de3565b82601f10611db557805160ff1916838001178555611de3565b82800160010185558215611de3579182015b82811115611de2578251825591602001919060010190611dc7565b5b509050611df09190611e81565b5090565b828054611e00906124ef565b90600052602060002090601f016020900481019282611e225760008555611e70565b82601f10611e335780548555611e70565b82800160010185558215611e7057600052602060002091601f016020900482015b82811115611e6f578254825591600101919060010190611e54565b5b509050611e7d9190611e81565b5090565b5b80821115611e9a576000816000905550600101611e82565b5090565b6000611eb1611eac846123c0565b61238f565b905082815260208101848484011115611ec957600080fd5b611ed48482856124ad565b509392505050565b600081359050611eeb81612602565b92915050565b600082601f830112611f0257600080fd5b8135611f12848260208601611e9e565b91505092915050565b600081359050611f2a81612619565b92915050565b600060208284031215611f4257600080fd5b6000611f5084828501611edc565b91505092915050565b600060208284031215611f6b57600080fd5b600082013567ffffffffffffffff811115611f8557600080fd5b611f9184828501611ef1565b91505092915050565b600060208284031215611fac57600080fd5b6000611fba84828501611f1b565b91505092915050565b60008060408385031215611fd657600080fd5b6000611fe485828601611f1b565b925050602083013567ffffffffffffffff81111561200157600080fd5b61200d85828601611ef1565b9150509250929050565b60008060006060848603121561202c57600080fd5b600061203a86828701611f1b565b935050602084013567ffffffffffffffff81111561205757600080fd5b61206386828701611ef1565b925050604084013567ffffffffffffffff81111561208057600080fd5b61208c86828701611ef1565b9150509250925092565b6000806000606084860312156120ab57600080fd5b60006120b986828701611f1b565b935050602084013567ffffffffffffffff8111156120d657600080fd5b6120e286828701611ef1565b92505060406120f386828701611f1b565b9150509250925092565b61210681612440565b82525050565b61211581612452565b82525050565b6121248161249b565b82525050565b6000612135826123f0565b61213f81856123fb565b935061214f8185602086016124bc565b612158816125dd565b840191505092915050565b61216c81612491565b82525050565b6000602082019050612187600083018461210c565b92915050565b60006020820190506121a2600083018461211b565b92915050565b600060208201905081810360008301526121c2818461212a565b905092915050565b600060c08201905081810360008301526121e4818961212a565b90506121f360208301886120fd565b8181036040830152612205818761212a565b90508181036060830152612219818661212a565b905061222860808301856120fd565b81810360a083015261223a818461212a565b9050979650505050505050565b600060208201905061225c6000830184612163565b92915050565b600061010082019050612278600083018b612163565b818103602083015261228a818a61212a565b90506122996040830189612163565b6122a66060830188612163565b81810360808301526122b8818761212a565b90506122c760a083018661211b565b6122d460c08301856120fd565b81810360e08301526122e6818461212a565b90509998505050505050505050565b60006101008201905061230b600083018b612163565b612318602083018a612163565b61232560408301896120fd565b61233260608301886120fd565b8181036080830152612344818761212a565b905081810360a0830152612358818661212a565b905081810360c083015261236c818561212a565b905081810360e0830152612380818461212a565b90509998505050505050505050565b6000604051905081810181811067ffffffffffffffff821117156123b6576123b56125ae565b5b8060405250919050565b600067ffffffffffffffff8211156123db576123da6125ae565b5b601f19601f8301169050602081019050919050565b600081519050919050565b600082825260208201905092915050565b600061241782612491565b915061242283612491565b92508282101561243557612434612521565b5b828203905092915050565b600061244b82612471565b9050919050565b60008115159050919050565b600081905061246c826125ee565b919050565b600073ffffffffffffffffffffffffffffffffffffffff82169050919050565b6000819050919050565b60006124a68261245e565b9050919050565b82818337600083830152505050565b60005b838110156124da5780820151818401526020810190506124bf565b838111156124e9576000848401525b50505050565b6000600282049050600182168061250757607f821691505b6020821081141561251b5761251a61257f565b5b50919050565b7f4e487b7100000000000000000000000000000000000000000000000000000000600052601160045260246000fd5b7f4e487b7100000000000000000000000000000000000000000000000000000000600052602160045260246000fd5b7f4e487b7100000000000000000000000000000000000000000000000000000000600052602260045260246000fd5b7f4e487b7100000000000000000000000000000000000000000000000000000000600052604160045260246000fd5b6000601f19601f8301169050919050565b600981106125ff576125fe612550565b5b50565b61260b81612440565b811461261657600080fd5b50565b61262281612491565b811461262d57600080fd5b5056fea2646970667358221220a67441a80b3dbe18313056af45ee11c3c5a81ad6717380cf6b4ddcdd537c9ff964736f6c63430008000033",
  "linkReferences": {},
  "deployedLinkReferences": {}
}