{
  "_format": "hh-sol-artifact-1",
  "contractName": "SupplyChainStep4",
  "sourceName": "contracts/SupplyChainStep4.sol",
  "abi": [
    {
      "anonymous": false,
      "inputs": [
        {
          "indexed": false,
          "internalType": "uint256",
          "name": "uid",
          "type": "uint256"
        }
      ],
      "name": "Manufactured",
      "type": "event"
    },
    {
      "anonymous": false,
      "inputs": [
        {
          "indexed": true,
          "internalType": "address",
          "name": "_account",
          "type": "address"
        }
      ],
      "name": "ManufacturerAdded",
      "type": "event"
    },
    {
      "anonymous": false,
      "inputs": [
        {
          "indexed": false,
          "internalType": "uint256",
          "name": "uid",
          "type": "uint256"
        }
      ],
      "name": "PurchasedByCustomer",
      "type": "event"
    },
    {
      "anonymous": false,
      "inputs": [
        {
          "indexed": false,
          "internalType": "uint256",
          "name": "uid",
          "type": "uint256"
        }
      ],
      "name": "PurchasedByThirdParty",
      "type": "event"
    },
    {
      "anonymous": false,
      "inputs": [
        {
          "indexed": false,
          "internalType": "uint256",
          "name": "uid",
          "type": "uint256"
        }
      ],
      "name": "ReceivedByCustomer",
      "type": "event"
    },
    {
      "anonymous": false,
      "inputs": [
        {
          "indexed": false,
          "internalType": "uint256",
          "name": "uid",
          "type": "uint256"
        }
      ],
      "name": "ReceivedByDeliveryHub",
      "type": "event"
    },
    {
      "anonymous": false,
      "inputs": [
        {
          "indexed": false,
          "internalType": "uint256",
          "name": "uid",
          "type": "uint256"
        }
      ],
      "name": "ReceivedByThirdParty",
      "type": "event"
    },
    {
      "anonymous": false,
      "inputs": [
        {
          "indexed": false,
          "internalType": "uint256",
          "name": "uid",
          "type": "uint256"
        }
      ],
      "name": "ShippedByDeliveryHub",
      "type": "event"
    },
    {
      "anonymous": false,
      "inputs": [
        {
          "indexed": false,
          "internalType": "uint256",
          "name": "uid",
          "type": "uint256"
        }
      ],
      "name": "ShippedByManufacturer",
      "type": "event"
    },
    {
      "anonymous": false,
      "inputs": [
        {
          "indexed": false,
          "internalType": "uint256",
          "name": "uid",
          "type": "uint256"
        }
      ],
      "name": "ShippedByThirdParty",
      "type": "event"
    },
    {
      "inputs": [
        {
          "internalType": "address",
          "name": "_account",
          "type": "address"
        }
      ],
      "name": "addCustomerRole",
      "outputs": [],
      "stateMutability": "nonpayable",
      "type": "function"
    },
    {
      "inputs": [
        {
          "internalType": "address",
          "name": "_account",
          "type": "address"
        }
      ],
      "name": "addDeliveryHubRole",
      "outputs": [],
      "stateMutability": "nonpayable",
      "type": "function"
    },
    {
      "inputs": [
        {
          "internalType": "address",
          "name": "_account",
          "type": "address"
        }
      ],
      "name": "addManufacturerRole",
      "outputs": [],
      "stateMutability": "nonpayable",
      "type": "function"
    },
    {
      "inputs": [
        {
          "internalType": "address",
          "name": "_account",
          "type": "address"
        }
      ],
      "name": "addThirdPartyRole",
      "outputs": [],
      "stateMutability": "nonpayable",
      "type": "function"
    },
    {
      "inputs": [],
      "name": "fetchProductCount",
      "outputs": [
        {
          "internalType": "uint256",
          "name": "",
          "type": "uint256"
        }
      ],
      "stateMutability": "view",
      "type": "function"
    },
    {
      "inputs": [
        {
          "internalType": "uint256",
          "name": "_uid",
          "type": "uint256"
        }
      ],
      "name": "fetchProductHistoryLength",
      "outputs": [
        {
          "internalType": "uint256",
          "name": "",
          "type": "uint256"
        }
      ],
      "stateMutability": "view",
      "type": "function"
    },
    {
      "inputs": [
        {
          "internalType": "uint256",
          "name": "_uid",
          "type": "uint256"
        },
        {
          "internalType": "string",
          "name": "_type",
          "type": "string"
        },
        {
          "internalType": "uint256",
          "name": "i",
          "type": "uint256"
        }
      ],
      "name": "fetchProductPart1",
      "outputs": [
        {
          "internalType": "uint256",
          "name": "",
          "type": "uint256"
        },
        {
          "internalType": "uint256",
          "name": "",
          "type": "uint256"
        },
        {
          "internalType": "address",
          "name": "",
          "type": "address"
        },
        {
          "internalType": "address",
          "name": "",
          "type": "address"
        },
        {
          "internalType": "string",
          "name": "",
          "type": "string"
        },
        {
          "internalType": "string",
          "name": "",
          "type": "string"
        },
        {
          "internalType": "string",
          "name": "",
          "type": "string"
        },
        {
          "internalType": "string",
          "name": "",
          "type": "string"
        }
      ],
      "stateMutability": "view",
      "type": "function"
    },
    {
      "inputs": [
        {
          "internalType": "uint256",
          "name": "_uid",
          "type": "uint256"
        },
        {
          "internalType": "string",
          "name": "_type",
          "type": "string"
        },
        {
          "internalType": "uint256",
          "name": "i",
          "type": "uint256"
        }
      ],
      "name": "fetchProductPart2",
      "outputs": [
        {
          "internalType": "uint256",
          "name": "",
          "type": "uint256"
        },
        {
          "internalType": "string",
          "name": "",
          "type": "string"
        },
        {
          "internalType": "uint256",
          "name": "",
          "type": "uint256"
        },
        {
          "internalType": "uint256",
          "name": "",
          "type": "uint256"
        },
        {
          "internalType": "string",
          "name": "",
          "type": "string"
        },
        {
          "internalType": "enum Structure.State",
          "name": "",
          "type": "uint8"
        },
        {
          "internalType": "address",
          "name": "",
          "type": "address"
        },
        {
          "internalType": "string",
          "name": "",
          "type": "string"
        }
      ],
      "stateMutability": "view",
      "type": "function"
    },
    {
      "inputs": [
        {
          "internalType": "uint256",
          "name": "_uid",
          "type": "uint256"
        },
        {
          "internalType": "string",
          "name": "_type",
          "type": "string"
        },
        {
          "internalType": "uint256",
          "name": "i",
          "type": "uint256"
        }
      ],
      "name": "fetchProductPart3",
      "outputs": [
        {
          "internalType": "string",
          "name": "",
          "type": "string"
        },
        {
          "internalType": "address",
          "name": "",
          "type": "address"
        },
        {
          "internalType": "string",
          "name": "",
          "type": "string"
        },
        {
          "internalType": "string",
          "name": "",
          "type": "string"
        },
        {
          "internalType": "address",
          "name": "",
          "type": "address"
        },
        {
          "internalType": "string",
          "name": "",
          "type": "string"
        }
      ],
      "stateMutability": "view",
      "type": "function"
    },
    {
      "inputs": [
        {
          "internalType": "uint256",
          "name": "_uid",
          "type": "uint256"
        }
      ],
      "name": "fetchProductState",
      "outputs": [
        {
          "internalType": "enum Structure.State",
          "name": "",
          "type": "uint8"
        }
      ],
      "stateMutability": "view",
      "type": "function"
    },
    {
      "inputs": [
        {
          "internalType": "address",
          "name": "_account",
          "type": "address"
        }
      ],
      "name": "hasCustomerRole",
      "outputs": [
        {
          "internalType": "bool",
          "name": "",
          "type": "bool"
        }
      ],
      "stateMutability": "view",
      "type": "function"
    },
    {
      "inputs": [
        {
          "internalType": "address",
          "name": "_account",
          "type": "address"
        }
      ],
      "name": "hasDeliveryHubRole",
      "outputs": [
        {
          "internalType": "bool",
          "name": "",
          "type": "bool"
        }
      ],
      "stateMutability": "view",
      "type": "function"
    },
    {
      "inputs": [
        {
          "internalType": "address",
          "name": "_account",
          "type": "address"
        }
      ],
      "name": "hasManufacturerRole",
      "outputs": [
        {
          "internalType": "bool",
          "name": "",
          "type": "bool"
        }
      ],
      "stateMutability": "view",
      "type": "function"
    },
    {
      "inputs": [
        {
          "internalType": "address",
          "name": "_account",
          "type": "address"
        }
      ],
      "name": "hasThirdPartyRole",
      "outputs": [
        {
          "internalType": "bool",
          "name": "",
          "type": "bool"
        }
      ],
      "stateMutability": "view",
      "type": "function"
    },
    {
      "inputs": [
        {
          "internalType": "string",
          "name": "manufacturerName",
          "type": "string"
        },
        {
          "internalType": "string",
          "name": "manufacturerDetails",
          "type": "string"
        },
        {
          "internalType": "string",
          "name": "manufacturerLongitude",
          "type": "string"
        },
        {
          "internalType": "string",
          "name": "manufacturerLatitude",
          "type": "string"
        },
        {
          "internalType": "string",
          "name": "productName",
          "type": "string"
        },
        {
          "internalType": "uint256",
          "name": "productCode",
          "type": "uint256"
        },
        {
          "internalType": "uint256",
          "name": "productPrice",
          "type": "uint256"
        },
        {
          "internalType": "string",
          "name": "productCategory",
          "type": "string"
        }
      ],
      "name": "manufactureProduct",
      "outputs": [],
      "stateMutability": "nonpayable",
      "type": "function"
    },
    {
      "inputs": [
        {
          "internalType": "uint256",
          "name": "_uid",
          "type": "uint256"
        }
      ],
      "name": "purchaseByCustomer",
      "outputs": [],
      "stateMutability": "nonpayable",
      "type": "function"
    },
    {
      "inputs": [
        {
          "internalType": "uint256",
          "name": "_uid",
          "type": "uint256"
        }
      ],
      "name": "purchaseByThirdParty",
      "outputs": [],
      "stateMutability": "nonpayable",
      "type": "function"
    },
    {
      "inputs": [
        {
          "internalType": "uint256",
          "name": "_uid",
          "type": "uint256"
        }
      ],
      "name": "receiveByCustomer",
      "outputs": [],
      "stateMutability": "nonpayable",
      "type": "function"
    },
    {
      "inputs": [
        {
          "internalType": "uint256",
          "name": "_uid",
          "type": "uint256"
        },
        {
          "internalType": "string",
          "name": "deliveryHubLongitude",
          "type": "string"
        },
        {
          "internalType": "string",
          "name": "deliveryHubLatitude",
          "type": "string"
        }
      ],
      "name": "receiveByDeliveryHub",
      "outputs": [],
      "stateMutability": "nonpayable",
      "type": "function"
    },
    {
      "inputs": [
        {
          "internalType": "uint256",
          "name": "_uid",
          "type": "uint256"
        },
        {
          "internalType": "string",
          "name": "thirdPartyLongitude",
          "type": "string"
        },
        {
          "internalType": "string",
          "name": "thirdPartyLatitude",
          "type": "string"
        }
      ],
      "name": "receiveByThirdParty",
      "outputs": [],
      "stateMutability": "nonpayable",
      "type": "function"
    },
    {
      "inputs": [
        {
          "internalType": "uint256",
          "name": "_uid",
          "type": "uint256"
        },
        {
          "internalType": "string",
          "name": "tran",
          "type": "string"
        }
      ],
      "name": "setTransactionHash",
      "outputs": [],
      "stateMutability": "nonpayable",
      "type": "function"
    },
    {
      "inputs": [
        {
          "internalType": "string",
          "name": "tran",
          "type": "string"
        }
      ],
      "name": "setTransactionHashOnManufacture",
      "outputs": [],
      "stateMutability": "nonpayable",
      "type": "function"
    },
    {
      "inputs": [
        {
          "internalType": "uint256",
          "name": "_uid",
          "type": "uint256"
        }
      ],
      "name": "shipByDeliveryHub",
      "outputs": [],
      "stateMutability": "nonpayable",
      "type": "function"
    },
    {
      "inputs": [
        {
          "internalType": "uint256",
          "name": "_uid",
          "type": "uint256"
        }
      ],
      "name": "shipByThirdParty",
      "outputs": [],
      "stateMutability": "nonpayable",
      "type": "function"
    },
    {
      "inputs": [
        {
          "internalType": "uint256",
          "name": "_uid",
          "type": "uint256"
        }
      ],
      "name": "shipToThirdParty",
      "outputs": [],
      "stateMutability": "nonpayable",
      "type": "function"
    },
    {
      "inputs": [],
      "name": "testFunctionCall",
      "outputs": [
        {
          "internalType": "string",
          "name": "",
          "type": "string"
        }
      ],
      "stateMutability": "pure",
      "type": "function"
    },
    {
      "inputs": [],
      "name": "uid",
      "outputs": [
        {
          "internalType": "uint256",
          "name": "",
          "type": "uint256"
        }
      ],
      "stateMutability": "view",
      "type": "function"
    }
  ],
  "bytecode": "0x608060405234801561001057600080fd5b5033600260006101000a81548173ffffffffffffffffffffffffffffffffffffffff021916908373ffffffffffffffffffffffffffffffffffffffff160217905550600180819055506001600081905550613b86806100706000396000f3fe608060405234801561001057600080fd5b50600436106101a85760003560e01c8063786ea161116100f9578063e2f1fe1411610097578063f16791b311610071578063f16791b3146104f8578063f4121b6714610516578063f514ce3614610532578063fb0c5ea314610550576101a8565b8063e2f1fe1414610490578063e55128ea146104c0578063ee707c1e146104dc576101a8565b806398c95889116100d357806398c95889146103df578063b843bdee14610414578063cd2885e014610430578063d44bebcc14610460576101a8565b8063786ea1611461038b5780638290f859146103a75780638eee90ea146103c3576101a8565b80635212e510116101665780636cf07e24116101405780636cf07e24146103005780636f1fe8d71461031c5780637217eb2e1461035357806372df397e1461036f576101a8565b80635212e5101461027d5780636000ada114610299578063658db497146102c9576101a8565b80623375b7146101ad578063024edf9a146101c95780630a036e25146101f95780633334529e14610215578063405ba7ef14610231578063453dd4af14610261575b600080fd5b6101c760048036038101906101c291906132d9565b61056e565b005b6101e360048036038101906101de919061326f565b610e66565b6040516101f091906135f3565b60405180910390f35b610213600480360381019061020e919061341b565b610ef8565b005b61022f600480360381019061022a9190613498565b610f6e565b005b61024b6004803603810190610246919061341b565b61165a565b60405161025891906136c8565b60405180910390f35b61027b6004803603810190610276919061326f565b61167d565b005b6102976004803603810190610292919061326f565b611728565b005b6102b360048036038101906102ae919061326f565b6117d3565b6040516102c091906135f3565b60405180910390f35b6102e360048036038101906102de9190613517565b611865565b6040516102f7989796959493929190613776565b60405180910390f35b61031a6004803603810190610315919061341b565b611c78565b005b61033660048036038101906103319190613517565b611e00565b60405161034a9897969594939291906136e3565b60405180910390f35b61036d6004803603810190610368919061341b565b61217d565b005b6103896004803603810190610384919061341b565b612222565b005b6103a560048036038101906103a09190613444565b612337565b005b6103c160048036038101906103bc919061326f565b6123da565b005b6103dd60048036038101906103d89190613498565b612485565b005b6103f960048036038101906103f49190613517565b61252c565b60405161040b9695949392919061364b565b60405180910390f35b61042e6004803603810190610429919061341b565b61292c565b005b61044a6004803603810190610445919061326f565b6129d1565b60405161045791906135f3565b60405180910390f35b61047a6004803603810190610475919061326f565b612a63565b60405161048791906135f3565b60405180910390f35b6104aa60048036038101906104a5919061341b565b612af5565b6040516104b7919061360e565b60405180910390f35b6104da60048036038101906104d59190613298565b612b22565b005b6104f660048036038101906104f1919061341b565b612bda565b005b610500612cc0565b60405161050d91906136c8565b60405180910390f35b610530600480360381019061052b919061326f565b612cc9565b005b61053a612d74565b60405161054791906136c8565b60405180910390f35b610558612d7a565b6040516105659190613629565b60405180910390f35b610577336117d3565b61058057600080fd5b60008054905061058e612efc565b600154816020018181525050818160000181815250508981608001516020018190525088816080015160400181905250878160800151606001819052508681608001516080018190525042816080015160a001818152505033816040019073ffffffffffffffffffffffffffffffffffffffff16908173ffffffffffffffffffffffffffffffffffffffff16815250503381608001516000019073ffffffffffffffffffffffffffffffffffffffff16908173ffffffffffffffffffffffffffffffffffffffff168152505061066381612db7565b6000816060019060088111156106a2577f4e487b7100000000000000000000000000000000000000000000000000000000600052602160045260246000fd5b908160088111156106dc577f4e487b7100000000000000000000000000000000000000000000000000000000600052602160045260246000fd5b815250506106ed8187878787612ebf565b8060036000848152602001908152602001600020600082015181600001556020820151816001015560408201518160020160006101000a81548173ffffffffffffffffffffffffffffffffffffffff021916908373ffffffffffffffffffffffffffffffffffffffff16021790555060608201518160020160146101000a81548160ff021916908360088111156107ad577f4e487b7100000000000000000000000000000000000000000000000000000000600052602160045260246000fd5b021790555060808201518160030160008201518160000160006101000a81548173ffffffffffffffffffffffffffffffffffffffff021916908373ffffffffffffffffffffffffffffffffffffffff160217905550602082015181600101908051906020019061081e929190612fcb565b50604082015181600201908051906020019061083b929190612fcb565b506060820151816003019080519060200190610858929190612fcb565b506080820151816004019080519060200190610875929190612fcb565b5060a08201518160050155505060a08201518160090160008201518160000160006101000a81548173ffffffffffffffffffffffffffffffffffffffff021916908373ffffffffffffffffffffffffffffffffffffffff16021790555060208201518160010190805190602001906108ee929190612fcb565b50604082015181600201908051906020019061090b929190612fcb565b50505060c082015181600c016000820151816000019080519060200190610933929190612fcb565b5060208201518160010155604082015181600201556060820151816003019080519060200190610964929190612fcb565b50505060e08201518160100160008201518160000160006101000a81548173ffffffffffffffffffffffffffffffffffffffff021916908373ffffffffffffffffffffffffffffffffffffffff16021790555060208201518160010190805190602001906109d3929190612fcb565b5060408201518160020190805190602001906109f0929190612fcb565b5050506101008201518160130160006101000a81548173ffffffffffffffffffffffffffffffffffffffff021916908373ffffffffffffffffffffffffffffffffffffffff160217905550610120820151816014019080519060200190610a58929190612fcb565b5090505060046000838152602001908152602001600020600001819080600181540180825580915050600190039060005260206000209060150201600090919091909150600082015181600001556020820151816001015560408201518160020160006101000a81548173ffffffffffffffffffffffffffffffffffffffff021916908373ffffffffffffffffffffffffffffffffffffffff16021790555060608201518160020160146101000a81548160ff02191690836008811115610b48577f4e487b7100000000000000000000000000000000000000000000000000000000600052602160045260246000fd5b021790555060808201518160030160008201518160000160006101000a81548173ffffffffffffffffffffffffffffffffffffffff021916908373ffffffffffffffffffffffffffffffffffffffff1602179055506020820151816001019080519060200190610bb9929190612fcb565b506040820151816002019080519060200190610bd6929190612fcb565b506060820151816003019080519060200190610bf3929190612fcb565b506080820151816004019080519060200190610c10929190612fcb565b5060a08201518160050155505060a08201518160090160008201518160000160006101000a81548173ffffffffffffffffffffffffffffffffffffffff021916908373ffffffffffffffffffffffffffffffffffffffff1602179055506020820151816001019080519060200190610c89929190612fcb565b506040820151816002019080519060200190610ca6929190612fcb565b50505060c082015181600c016000820151816000019080519060200190610cce929190612fcb565b5060208201518160010155604082015181600201556060820151816003019080519060200190610cff929190612fcb565b50505060e08201518160100160008201518160000160006101000a81548173ffffffffffffffffffffffffffffffffffffffff021916908373ffffffffffffffffffffffffffffffffffffffff1602179055506020820151816001019080519060200190610d6e929190612fcb565b506040820151816002019080519060200190610d8b929190612fcb565b5050506101008201518160130160006101000a81548173ffffffffffffffffffffffffffffffffffffffff021916908373ffffffffffffffffffffffffffffffffffffffff160217905550610120820151816014019080519060200190610df3929190612fcb565b50505060016000815480929190610e09906139f8565b91905055506001600054610e1d919061388d565b6000819055507fd29d8a68ca7c8c74be5579719d445aabfe230ed6e6a83aff475a663500eb760982604051610e5291906136c8565b60405180910390a150505050505050505050565b60008073ffffffffffffffffffffffffffffffffffffffff168273ffffffffffffffffffffffffffffffffffffffff161415610ea157600080fd5b600560008373ffffffffffffffffffffffffffffffffffffffff1673ffffffffffffffffffffffffffffffffffffffff16815260200190815260200160002060000160039054906101000a900460ff169050919050565b6003600082815260200190815260200160002060030160000160009054906101000a900473ffffffffffffffffffffffffffffffffffffffff168073ffffffffffffffffffffffffffffffffffffffff163373ffffffffffffffffffffffffffffffffffffffff1614610f6a57600080fd5b5050565b8260026008811115610fa9577f4e487b7100000000000000000000000000000000000000000000000000000000600052602160045260246000fd5b6003600083815260200190815260200160002060020160149054906101000a900460ff166008811115611005577f4e487b7100000000000000000000000000000000000000000000000000000000600052602160045260246000fd5b1461100f57600080fd5b6003600085815260200190815260200160002060090160000160009054906101000a900473ffffffffffffffffffffffffffffffffffffffff168073ffffffffffffffffffffffffffffffffffffffff163373ffffffffffffffffffffffffffffffffffffffff161461108157600080fd5b61108a336129d1565b61109357600080fd5b336003600087815260200190815260200160002060020160006101000a81548173ffffffffffffffffffffffffffffffffffffffff021916908373ffffffffffffffffffffffffffffffffffffffff16021790555083600360008781526020019081526020016000206009016001019080519060200190611115929190612fcb565b5082600360008781526020019081526020016000206009016002019080519060200190611143929190612fcb565b50600380600087815260200190815260200160002060020160146101000a81548160ff021916908360088111156111a3577f4e487b7100000000000000000000000000000000000000000000000000000000600052602160045260246000fd5b02179055506004600086815260200190815260200160002060000160036000878152602001908152602001600020908060018154018082558091505060019003906000526020600020906015020160009091909190915060008201548160000155600182015481600101556002820160009054906101000a900473ffffffffffffffffffffffffffffffffffffffff168160020160006101000a81548173ffffffffffffffffffffffffffffffffffffffff021916908373ffffffffffffffffffffffffffffffffffffffff1602179055506002820160149054906101000a900460ff168160020160146101000a81548160ff021916908360088111156112d3577f4e487b7100000000000000000000000000000000000000000000000000000000600052602160045260246000fd5b021790555060038201816003016000820160009054906101000a900473ffffffffffffffffffffffffffffffffffffffff168160000160006101000a81548173ffffffffffffffffffffffffffffffffffffffff021916908373ffffffffffffffffffffffffffffffffffffffff160217905550600182018160010190805461135b906139c6565b611366929190613051565b50600282018160020190805461137b906139c6565b611386929190613051565b50600382018160030190805461139b906139c6565b6113a6929190613051565b5060048201816004019080546113bb906139c6565b6113c6929190613051565b5060058201548160050155505060098201816009016000820160009054906101000a900473ffffffffffffffffffffffffffffffffffffffff168160000160006101000a81548173ffffffffffffffffffffffffffffffffffffffff021916908373ffffffffffffffffffffffffffffffffffffffff1602179055506001820181600101908054611456906139c6565b611461929190613051565b506002820181600201908054611476906139c6565b611481929190613051565b505050600c820181600c0160008201816000019080546114a0906139c6565b6114ab929190613051565b50600182015481600101556002820154816002015560038201816003019080546114d4906139c6565b6114df929190613051565b50505060108201816010016000820160009054906101000a900473ffffffffffffffffffffffffffffffffffffffff168160000160006101000a81548173ffffffffffffffffffffffffffffffffffffffff021916908373ffffffffffffffffffffffffffffffffffffffff1602179055506001820181600101908054611565906139c6565b611570929190613051565b506002820181600201908054611585906139c6565b611590929190613051565b5050506013820160009054906101000a900473ffffffffffffffffffffffffffffffffffffffff168160130160006101000a81548173ffffffffffffffffffffffffffffffffffffffff021916908373ffffffffffffffffffffffffffffffffffffffff160217905550601482018160140190805461160e906139c6565b611619929190613051565b5050507fa22971300ba7d9ca2113cf57c3238cde86a32cfba0c31a13ad86a23bde3facf28560405161164b91906136c8565b60405180910390a15050505050565b600060046000838152602001908152602001600020600001805490509050919050565b600073ffffffffffffffffffffffffffffffffffffffff168173ffffffffffffffffffffffffffffffffffffffff1614156116b757600080fd5b6116c081612a63565b156116ca57600080fd5b6001600560008373ffffffffffffffffffffffffffffffffffffffff1673ffffffffffffffffffffffffffffffffffffffff16815260200190815260200160002060000160036101000a81548160ff02191690831515021790555050565b600073ffffffffffffffffffffffffffffffffffffffff168173ffffffffffffffffffffffffffffffffffffffff16141561176257600080fd5b61176b816129d1565b1561177557600080fd5b6001600560008373ffffffffffffffffffffffffffffffffffffffff1673ffffffffffffffffffffffffffffffffffffffff16815260200190815260200160002060000160016101000a81548160ff02191690831515021790555050565b60008073ffffffffffffffffffffffffffffffffffffffff168273ffffffffffffffffffffffffffffffffffffffff16141561180e57600080fd5b600560008373ffffffffffffffffffffffffffffffffffffffff1673ffffffffffffffffffffffffffffffffffffffff16815260200190815260200160002060000160009054906101000a900460ff169050919050565b6000806000806060806060806000600360008d815260200190815260200160002060000154141561189557600080fd5b6000600360008d815260200190815260200160002090506040518060400160405280600781526020017f70726f6475637400000000000000000000000000000000000000000000000000815250805190602001208b80519060200120141561190d57600360008d815260200190815260200160002090505b6040518060400160405280600781526020017f686973746f727900000000000000000000000000000000000000000000000000815250805190602001208b8051906020012014156119b757600460008d81526020019081526020016000206000018a815481106119a6577f4e487b7100000000000000000000000000000000000000000000000000000000600052603260045260246000fd5b906000526020600020906015020190505b806000015481600101548260020160009054906101000a900473ffffffffffffffffffffffffffffffffffffffff168360030160000160009054906101000a900473ffffffffffffffffffffffffffffffffffffffff1684600301600101856003016002018660030160030187600301600401838054611a36906139c6565b80601f0160208091040260200160405190810160405280929190818152602001828054611a62906139c6565b8015611aaf5780601f10611a8457610100808354040283529160200191611aaf565b820191906000526020600020905b815481529060010190602001808311611a9257829003601f168201915b50505050509350828054611ac2906139c6565b80601f0160208091040260200160405190810160405280929190818152602001828054611aee906139c6565b8015611b3b5780601f10611b1057610100808354040283529160200191611b3b565b820191906000526020600020905b815481529060010190602001808311611b1e57829003601f168201915b50505050509250818054611b4e906139c6565b80601f0160208091040260200160405190810160405280929190818152602001828054611b7a906139c6565b8015611bc75780601f10611b9c57610100808354040283529160200191611bc7565b820191906000526020600020905b815481529060010190602001808311611baa57829003601f168201915b50505050509150808054611bda906139c6565b80601f0160208091040260200160405190810160405280929190818152602001828054611c06906139c6565b8015611c535780601f10611c2857610100808354040283529160200191611c53565b820191906000526020600020905b815481529060010190602001808311611c3657829003601f168201915b5050505050905098509850985098509850985098509850509397509397509397509397565b8060066008811115611cb3577f4e487b7100000000000000000000000000000000000000000000000000000000600052602160045260246000fd5b6003600083815260200190815260200160002060020160149054906101000a900460ff166008811115611d0f577f4e487b7100000000000000000000000000000000000000000000000000000000600052602160045260246000fd5b14611d1957600080fd5b6003600083815260200190815260200160002060020160009054906101000a900473ffffffffffffffffffffffffffffffffffffffff168073ffffffffffffffffffffffffffffffffffffffff163373ffffffffffffffffffffffffffffffffffffffff1614611d8857600080fd5b6003600084815260200190815260200160002060100160000160009054906101000a900473ffffffffffffffffffffffffffffffffffffffff168073ffffffffffffffffffffffffffffffffffffffff163373ffffffffffffffffffffffffffffffffffffffff1614611dfa57600080fd5b50505050565b60006060600080606060008060606000600360008d8152602001908152602001600020600001541415611e3257600080fd5b6000600360008d815260200190815260200160002090506040518060400160405280600781526020017f70726f6475637400000000000000000000000000000000000000000000000000815250805190602001208b805190602001201415611eaa57600360008d815260200190815260200160002090505b6040518060400160405280600781526020017f686973746f727900000000000000000000000000000000000000000000000000815250805190602001208b805190602001201415611f5457600460008d81526020019081526020016000206000018a81548110611f43577f4e487b7100000000000000000000000000000000000000000000000000000000600052603260045260246000fd5b906000526020600020906015020190505b806003016005015481600c0160000182600c016001015483600c016002015484600c016003018560020160149054906101000a900460ff168660090160000160009054906101000a900473ffffffffffffffffffffffffffffffffffffffff1687600901600101868054611fc7906139c6565b80601f0160208091040260200160405190810160405280929190818152602001828054611ff3906139c6565b80156120405780601f1061201557610100808354040283529160200191612040565b820191906000526020600020905b81548152906001019060200180831161202357829003601f168201915b50505050509650838054612053906139c6565b80601f016020809104026020016040519081016040528092919081815260200182805461207f906139c6565b80156120cc5780601f106120a1576101008083540402835291602001916120cc565b820191906000526020600020905b8154815290600101906020018083116120af57829003601f168201915b505050505093508080546120df906139c6565b80601f016020809104026020016040519081016040528092919081815260200182805461210b906139c6565b80156121585780601f1061212d57610100808354040283529160200191612158565b820191906000526020600020905b81548152906001019060200180831161213b57829003601f168201915b5050505050905098509850985098509850985098509850509397509397509397509397565b80600360088111156121b8577f4e487b7100000000000000000000000000000000000000000000000000000000600052602160045260246000fd5b6003600083815260200190815260200160002060020160149054906101000a900460ff166008811115612214577f4e487b7100000000000000000000000000000000000000000000000000000000600052602160045260246000fd5b1461221e57600080fd5b5050565b806007600881111561225d577f4e487b7100000000000000000000000000000000000000000000000000000000600052602160045260246000fd5b6003600083815260200190815260200160002060020160149054906101000a900460ff1660088111156122b9577f4e487b7100000000000000000000000000000000000000000000000000000000600052602160045260246000fd5b146122c357600080fd5b6003600083815260200190815260200160002060130160009054906101000a900473ffffffffffffffffffffffffffffffffffffffff168073ffffffffffffffffffffffffffffffffffffffff163373ffffffffffffffffffffffffffffffffffffffff161461233257600080fd5b505050565b6000600460008481526020019081526020016000206000016001600460008681526020019081526020016000206000018054905061237591906138e3565b815481106123ac577f4e487b7100000000000000000000000000000000000000000000000000000000600052603260045260246000fd5b90600052602060002090601502019050818160140190805190602001906123d4929190612fcb565b50505050565b600073ffffffffffffffffffffffffffffffffffffffff168173ffffffffffffffffffffffffffffffffffffffff16141561241457600080fd5b61241d816117d3565b1561242757600080fd5b6001600560008373ffffffffffffffffffffffffffffffffffffffff1673ffffffffffffffffffffffffffffffffffffffff16815260200190815260200160002060000160006101000a81548160ff02191690831515021790555050565b82600560088111156124c0577f4e487b7100000000000000000000000000000000000000000000000000000000600052602160045260246000fd5b6003600083815260200190815260200160002060020160149054906101000a900460ff16600881111561251c577f4e487b7100000000000000000000000000000000000000000000000000000000600052602160045260246000fd5b1461252657600080fd5b50505050565b60606000606080600060606000600360008b815260200190815260200160002060000154141561255b57600080fd5b6000600360008b815260200190815260200160002090506040518060400160405280600781526020017f70726f647563740000000000000000000000000000000000000000000000000081525080519060200120898051906020012014156125d357600360008b815260200190815260200160002090505b6040518060400160405280600781526020017f686973746f727900000000000000000000000000000000000000000000000000815250805190602001208980519060200120141561267d57600460008b8152602001908152602001600020600001888154811061266c577f4e487b7100000000000000000000000000000000000000000000000000000000600052603260045260246000fd5b906000526020600020906015020190505b806009016002018160100160000160009054906101000a900473ffffffffffffffffffffffffffffffffffffffff1682601001600101836010016002018460130160009054906101000a900473ffffffffffffffffffffffffffffffffffffffff16856014018580546126ef906139c6565b80601f016020809104026020016040519081016040528092919081815260200182805461271b906139c6565b80156127685780601f1061273d57610100808354040283529160200191612768565b820191906000526020600020905b81548152906001019060200180831161274b57829003601f168201915b5050505050955083805461277b906139c6565b80601f01602080910402602001604051908101604052809291908181526020018280546127a7906139c6565b80156127f45780601f106127c9576101008083540402835291602001916127f4565b820191906000526020600020905b8154815290600101906020018083116127d757829003601f168201915b50505050509350828054612807906139c6565b80601f0160208091040260200160405190810160405280929190818152602001828054612833906139c6565b80156128805780601f1061285557610100808354040283529160200191612880565b820191906000526020600020905b81548152906001019060200180831161286357829003601f168201915b50505050509250808054612893906139c6565b80601f01602080910402602001604051908101604052809291908181526020018280546128bf906139c6565b801561290c5780601f106128e15761010080835404028352916020019161290c565b820191906000526020600020905b8154815290600101906020018083116128ef57829003601f168201915b505050505090509650965096509650965096505093975093979195509350565b8060006008811115612967577f4e487b7100000000000000000000000000000000000000000000000000000000600052602160045260246000fd5b6003600083815260200190815260200160002060020160149054906101000a900460ff1660088111156129c3577f4e487b7100000000000000000000000000000000000000000000000000000000600052602160045260246000fd5b146129cd57600080fd5b5050565b60008073ffffffffffffffffffffffffffffffffffffffff168273ffffffffffffffffffffffffffffffffffffffff161415612a0c57600080fd5b600560008373ffffffffffffffffffffffffffffffffffffffff1673ffffffffffffffffffffffffffffffffffffffff16815260200190815260200160002060000160019054906101000a900460ff169050919050565b60008073ffffffffffffffffffffffffffffffffffffffff168273ffffffffffffffffffffffffffffffffffffffff161415612a9e57600080fd5b600560008373ffffffffffffffffffffffffffffffffffffffff1673ffffffffffffffffffffffffffffffffffffffff16815260200190815260200160002060000160029054906101000a900460ff169050919050565b60006003600083815260200190815260200160002060020160149054906101000a900460ff169050919050565b80600460006001600054612b3691906138e3565b81526020019081526020016000206000016001600460006001600054612b5c91906138e3565b815260200190815260200160002060000180549050612b7b91906138e3565b81548110612bb2577f4e487b7100000000000000000000000000000000000000000000000000000000600052603260045260246000fd5b90600052602060002090601502016014019080519060200190612bd6929190612fcb565b5050565b6003600082815260200190815260200160002060020160009054906101000a900473ffffffffffffffffffffffffffffffffffffffff168073ffffffffffffffffffffffffffffffffffffffff163373ffffffffffffffffffffffffffffffffffffffff1614612c4957600080fd5b6003600083815260200190815260200160002060090160000160009054906101000a900473ffffffffffffffffffffffffffffffffffffffff168073ffffffffffffffffffffffffffffffffffffffff163373ffffffffffffffffffffffffffffffffffffffff1614612cbb57600080fd5b505050565b60008054905090565b600073ffffffffffffffffffffffffffffffffffffffff168173ffffffffffffffffffffffffffffffffffffffff161415612d0357600080fd5b612d0c81612a63565b15612d1657600080fd5b6001600560008373ffffffffffffffffffffffffffffffffffffffff1673ffffffffffffffffffffffffffffffffffffffff16815260200190815260200160002060000160026101000a81548160ff02191690831515021790555050565b60005481565b60606040518060400160405280601d81526020017f48656c6c6f2066726f6d207465737446756e6374696f6e43616c6c2829000000815250905090565b6000606080606060006060806000878960a001516000019073ffffffffffffffffffffffffffffffffffffffff16908173ffffffffffffffffffffffffffffffffffffffff1681525050858960a0015160200181905250848960a0015160400181905250838960e001516000019073ffffffffffffffffffffffffffffffffffffffff16908173ffffffffffffffffffffffffffffffffffffffff1681525050828960e0015160200181905250818960e00151604001819052508089610100019073ffffffffffffffffffffffffffffffffffffffff16908173ffffffffffffffffffffffffffffffffffffffff168152505086896101200181905250505050505050505050565b838560c0015160000181905250828560c001516020018181525050818560c001516040018181525050808560c00151606001819052505050505050565b6040518061014001604052806000815260200160008152602001600073ffffffffffffffffffffffffffffffffffffffff16815260200160006008811115612f6d577f4e487b7100000000000000000000000000000000000000000000000000000000600052602160045260246000fd5b8152602001612f7a6130de565b8152602001612f8761312a565b8152602001612f94613161565b8152602001612fa1613189565b8152602001600073ffffffffffffffffffffffffffffffffffffffff168152602001606081525090565b828054612fd7906139c6565b90600052602060002090601f016020900481019282612ff95760008555613040565b82601f1061301257805160ff1916838001178555613040565b82800160010185558215613040579182015b8281111561303f578251825591602001919060010190613024565b5b50905061304d91906131c0565b5090565b82805461305d906139c6565b90600052602060002090601f01602090048101928261307f57600085556130cd565b82601f1061309057805485556130cd565b828001600101855582156130cd57600052602060002091601f016020900482015b828111156130cc5782548255916001019190600101906130b1565b5b5090506130da91906131c0565b5090565b6040518060c00160405280600073ffffffffffffffffffffffffffffffffffffffff16815260200160608152602001606081526020016060815260200160608152602001600081525090565b6040518060600160405280600073ffffffffffffffffffffffffffffffffffffffff16815260200160608152602001606081525090565b6040518060800160405280606081526020016000815260200160008152602001606081525090565b6040518060600160405280600073ffffffffffffffffffffffffffffffffffffffff16815260200160608152602001606081525090565b5b808211156131d95760008160009055506001016131c1565b5090565b60006131f06131eb84613841565b613810565b90508281526020810184848401111561320857600080fd5b613213848285613984565b509392505050565b60008135905061322a81613b22565b92915050565b600082601f83011261324157600080fd5b81356132518482602086016131dd565b91505092915050565b60008135905061326981613b39565b92915050565b60006020828403121561328157600080fd5b600061328f8482850161321b565b91505092915050565b6000602082840312156132aa57600080fd5b600082013567ffffffffffffffff8111156132c457600080fd5b6132d084828501613230565b91505092915050565b600080600080600080600080610100898b0312156132f657600080fd5b600089013567ffffffffffffffff81111561331057600080fd5b61331c8b828c01613230565b985050602089013567ffffffffffffffff81111561333957600080fd5b6133458b828c01613230565b975050604089013567ffffffffffffffff81111561336257600080fd5b61336e8b828c01613230565b965050606089013567ffffffffffffffff81111561338b57600080fd5b6133978b828c01613230565b955050608089013567ffffffffffffffff8111156133b457600080fd5b6133c08b828c01613230565b94505060a06133d18b828c0161325a565b93505060c06133e28b828c0161325a565b92505060e089013567ffffffffffffffff8111156133ff57600080fd5b61340b8b828c01613230565b9150509295985092959890939650565b60006020828403121561342d57600080fd5b600061343b8482850161325a565b91505092915050565b6000806040838503121561345757600080fd5b60006134658582860161325a565b925050602083013567ffffffffffffffff81111561348257600080fd5b61348e85828601613230565b9150509250929050565b6000806000606084860312156134ad57600080fd5b60006134bb8682870161325a565b935050602084013567ffffffffffffffff8111156134d857600080fd5b6134e486828701613230565b925050604084013567ffffffffffffffff81111561350157600080fd5b61350d86828701613230565b9150509250925092565b60008060006060848603121561352c57600080fd5b600061353a8682870161325a565b935050602084013567ffffffffffffffff81111561355757600080fd5b61356386828701613230565b92505060406135748682870161325a565b9150509250925092565b61358781613917565b82525050565b61359681613929565b82525050565b6135a581613972565b82525050565b60006135b682613871565b6135c0818561387c565b93506135d0818560208601613993565b6135d981613afd565b840191505092915050565b6135ed81613968565b82525050565b6000602082019050613608600083018461358d565b92915050565b6000602082019050613623600083018461359c565b92915050565b6000602082019050818103600083015261364381846135ab565b905092915050565b600060c082019050818103600083015261366581896135ab565b9050613674602083018861357e565b818103604083015261368681876135ab565b9050818103606083015261369a81866135ab565b90506136a9608083018561357e565b81810360a08301526136bb81846135ab565b9050979650505050505050565b60006020820190506136dd60008301846135e4565b92915050565b6000610100820190506136f9600083018b6135e4565b818103602083015261370b818a6135ab565b905061371a60408301896135e4565b61372760608301886135e4565b818103608083015261373981876135ab565b905061374860a083018661359c565b61375560c083018561357e565b81810360e083015261376781846135ab565b90509998505050505050505050565b60006101008201905061378c600083018b6135e4565b613799602083018a6135e4565b6137a6604083018961357e565b6137b3606083018861357e565b81810360808301526137c581876135ab565b905081810360a08301526137d981866135ab565b905081810360c08301526137ed81856135ab565b905081810360e083015261380181846135ab565b90509998505050505050505050565b6000604051905081810181811067ffffffffffffffff8211171561383757613836613ace565b5b8060405250919050565b600067ffffffffffffffff82111561385c5761385b613ace565b5b601f19601f8301169050602081019050919050565b600081519050919050565b600082825260208201905092915050565b600061389882613968565b91506138a383613968565b9250827fffffffffffffffffffffffffffffffffffffffffffffffffffffffffffffffff038211156138d8576138d7613a41565b5b828201905092915050565b60006138ee82613968565b91506138f983613968565b92508282101561390c5761390b613a41565b5b828203905092915050565b600061392282613948565b9050919050565b60008115159050919050565b600081905061394382613b0e565b919050565b600073ffffffffffffffffffffffffffffffffffffffff82169050919050565b6000819050919050565b600061397d82613935565b9050919050565b82818337600083830152505050565b60005b838110156139b1578082015181840152602081019050613996565b838111156139c0576000848401525b50505050565b600060028204905060018216806139de57607f821691505b602082108114156139f2576139f1613a9f565b5b50919050565b6000613a0382613968565b91507fffffffffffffffffffffffffffffffffffffffffffffffffffffffffffffffff821415613a3657613a35613a41565b5b600182019050919050565b7f4e487b7100000000000000000000000000000000000000000000000000000000600052601160045260246000fd5b7f4e487b7100000000000000000000000000000000000000000000000000000000600052602160045260246000fd5b7f4e487b7100000000000000000000000000000000000000000000000000000000600052602260045260246000fd5b7f4e487b7100000000000000000000000000000000000000000000000000000000600052604160045260246000fd5b6000601f19601f8301169050919050565b60098110613b1f57613b1e613a70565b5b50565b613b2b81613917565b8114613b3657600080fd5b50565b613b4281613968565b8114613b4d57600080fd5b5056fea26469706673582212200ee73f36ab478f589f2f350d17418a0bcbfd405cc669ac3927e2f283eba7a7fe64736f6c63430008000033",
  "linkReferences": {},
  "deployedLinkReferences": {}
}