{
  "_format": "hh-sol-artifact-1",
  "contractName": "Transactions",
  "sourceName": "contracts/Transactions.sol",
  "abi": [
    {
      "anonymous": false,
      "inputs": [
        {
          "indexed": false,
          "internalType": "address",
          "name": "from",
          "type": "address"
        },
        {
          "indexed": false,
          "internalType": "address",
          "name": "receiver",
          "type": "address"
        },
        {
          "indexed": false,
          "internalType": "uint256",
          "name": "amount",
          "type": "uint256"
        },
        {
          "indexed": false,
          "internalType": "string",
          "name": "message",
          "type": "string"
        },
        {
          "indexed": false,
          "internalType": "uint256",
          "name": "timestamp",
          "type": "uint256"
        },
        {
          "indexed": false,
          "internalType": "string",
          "name": "keyword",
          "type": "string"
        }
      ],
      "name": "Transfer",
      "type": "event"
    },
    {
      "inputs": [
        {
          "internalType": "address payable",
          "name": "receiver",
          "type": "address"
        },
        {
          "internalType": "uint256",
          "name": "amount",
          "type": "uint256"
        },
        {
          "internalType": "string",
          "name": "message",
          "type": "string"
        },
        {
          "internalType": "string",
          "name": "keyword",
          "type": "string"
        }
      ],
      "name": "addToBlockchain",
      "outputs": [],
      "stateMutability": "nonpayable",
      "type": "function"
    },
    {
      "inputs": [],
      "name": "getAllTransactions",
      "outputs": [
        {
          "components": [
            {
              "internalType": "address",
              "name": "sender",
              "type": "address"
            },
            {
              "internalType": "address",
              "name": "receiver",
              "type": "address"
            },
            {
              "internalType": "uint256",
              "name": "amount",
              "type": "uint256"
            },
            {
              "internalType": "string",
              "name": "message",
              "type": "string"
            },
            {
              "internalType": "uint256",
              "name": "timestamp",
              "type": "uint256"
            },
            {
              "internalType": "string",
              "name": "keyword",
              "type": "string"
            }
          ],
          "internalType": "struct Transactions.TransferStruct[]",
          "name": "",
          "type": "tuple[]"
        }
      ],
      "stateMutability": "view",
      "type": "function"
    },
    {
      "inputs": [],
      "name": "getTransactionCount",
      "outputs": [
        {
          "internalType": "uint256",
          "name": "",
          "type": "uint256"
        }
      ],
      "stateMutability": "view",
      "type": "function"
    },
    {
      "inputs": [
        {
          "internalType": "address payable",
          "name": "_to",
          "type": "address"
        }
      ],
      "name": "makePayment",
      "outputs": [],
      "stateMutability": "payable",
      "type": "function"
    },
    {
      "inputs": [
        {
          "internalType": "address payable",
          "name": "_to",
          "type": "address"
        }
      ],
      "name": "sendViaCall",
      "outputs": [],
      "stateMutability": "payable",
      "type": "function"
    },
    {
      "inputs": [],
      "name": "someFun",
      "outputs": [],
      "stateMutability": "nonpayable",
      "type": "function"
    },
    {
      "inputs": [
        {
          "internalType": "uint256",
          "name": "_myVar",
          "type": "uint256"
        }
      ],
      "name": "someOtherFunction",
      "outputs": [],
      "stateMutability": "nonpayable",
      "type": "function"
    }
  ],
  "bytecode": "0x608060405234801561001057600080fd5b50611112806100206000396000f3fe6080604052600436106100705760003560e01c8063830c29ae1161004e578063830c29ae146100e7578063c8de0a5714610103578063cc2d7ead1461012c578063f85fd34a1461015557610070565b806327506f53146100755780632e7700f0146100a0578063300be4fc146100cb575b600080fd5b34801561008157600080fd5b5061008a61016c565b6040516100979190610d2d565b60405180910390f35b3480156100ac57600080fd5b506100b56103af565b6040516100c29190610daa565b60405180910390f35b6100e560048036038101906100e091906108fd565b6103b8565b005b61010160048036038101906100fc91906108fd565b610409565b005b34801561010f57600080fd5b5061012a600480360381019061012591906109b9565b6104bc565b005b34801561013857600080fd5b50610153600480360381019061014e9190610926565b6104bf565b005b34801561016157600080fd5b5061016a610681565b005b60606001805480602002602001604051908101604052809291908181526020016000905b828210156103a657838290600052602060002090600602016040518060c00160405290816000820160009054906101000a900473ffffffffffffffffffffffffffffffffffffffff1673ffffffffffffffffffffffffffffffffffffffff1673ffffffffffffffffffffffffffffffffffffffff1681526020016001820160009054906101000a900473ffffffffffffffffffffffffffffffffffffffff1673ffffffffffffffffffffffffffffffffffffffff1673ffffffffffffffffffffffffffffffffffffffff1681526020016002820154815260200160038201805461027990610fde565b80601f01602080910402602001604051908101604052809291908181526020018280546102a590610fde565b80156102f25780601f106102c7576101008083540402835291602001916102f2565b820191906000526020600020905b8154815290600101906020018083116102d557829003601f168201915b505050505081526020016004820154815260200160058201805461031590610fde565b80601f016020809104026020016040519081016040528092919081815260200182805461034190610fde565b801561038e5780601f106103635761010080835404028352916020019161038e565b820191906000526020600020905b81548152906001019060200180831161037157829003601f168201915b50505050508152505081526020019060010190610190565b50505050905090565b60008054905090565b8073ffffffffffffffffffffffffffffffffffffffff166108fc6601c6bf526340009081150290604051600060405180830381858888f19350505050158015610405573d6000803e3d6000fd5b5050565b6000808273ffffffffffffffffffffffffffffffffffffffff163460405161043090610ca9565b60006040518083038185875af1925050503d806000811461046d576040519150601f19603f3d011682016040523d82523d6000602084013e610472565b606091505b5091509150816104b7576040517f08c379a00000000000000000000000000000000000000000000000000000000081526004016104ae90610d6a565b60405180910390fd5b505050565b50565b60016000808282546104d19190610ea2565b9250508190555060016040518060c001604052803373ffffffffffffffffffffffffffffffffffffffff1681526020018673ffffffffffffffffffffffffffffffffffffffff16815260200185815260200184815260200142815260200183815250908060018154018082558091505060019003906000526020600020906006020160009091909190915060008201518160000160006101000a81548173ffffffffffffffffffffffffffffffffffffffff021916908373ffffffffffffffffffffffffffffffffffffffff16021790555060208201518160010160006101000a81548173ffffffffffffffffffffffffffffffffffffffff021916908373ffffffffffffffffffffffffffffffffffffffff1602179055506040820151816002015560608201518160030190805190602001906106109291906107c8565b506080820151816004015560a08201518160050190805190602001906106379291906107c8565b5050507f416cfa4330a4565f45c2fd2dd4826a83a37443aba2ce6f79477c7355afac35fa33858585428660405161067396959493929190610cbe565b60405180910390a150505050565b60003073ffffffffffffffffffffffffffffffffffffffff166601c6bf526340006152086040516024016106b59190610d4f565b6040516020818303038152906040527fc8de0a57000000000000000000000000000000000000000000000000000000007bffffffffffffffffffffffffffffffffffffffffffffffffffffffff19166020820180517bffffffffffffffffffffffffffffffffffffffffffffffffffffffff838183161783525050505060405161073f9190610c92565b60006040518083038185875af1925050503d806000811461077c576040519150601f19603f3d011682016040523d82523d6000602084013e610781565b606091505b50509050806107c5576040517f08c379a00000000000000000000000000000000000000000000000000000000081526004016107bc90610d8a565b60405180910390fd5b50565b8280546107d490610fde565b90600052602060002090601f0160209004810192826107f6576000855561083d565b82601f1061080f57805160ff191683800117855561083d565b8280016001018555821561083d579182015b8281111561083c578251825591602001919060010190610821565b5b50905061084a919061084e565b5090565b5b8082111561086757600081600090555060010161084f565b5090565b600061087e61087984610df6565b610dc5565b90508281526020810184848401111561089657600080fd5b6108a1848285610f9c565b509392505050565b6000813590506108b8816110ae565b92915050565b600082601f8301126108cf57600080fd5b81356108df84826020860161086b565b91505092915050565b6000813590506108f7816110c5565b92915050565b60006020828403121561090f57600080fd5b600061091d848285016108a9565b91505092915050565b6000806000806080858703121561093c57600080fd5b600061094a878288016108a9565b945050602061095b878288016108e8565b935050604085013567ffffffffffffffff81111561097857600080fd5b610984878288016108be565b925050606085013567ffffffffffffffff8111156109a157600080fd5b6109ad878288016108be565b91505092959194509250565b6000602082840312156109cb57600080fd5b60006109d9848285016108e8565b91505092915050565b60006109ee8383610be4565b905092915050565b6109ff81610f54565b82525050565b610a0e81610ef8565b82525050565b610a1d81610ef8565b82525050565b6000610a2e82610e36565b610a388185610e64565b935083602082028501610a4a85610e26565b8060005b85811015610a865784840389528151610a6785826109e2565b9450610a7283610e57565b925060208a01995050600181019050610a4e565b50829750879550505050505092915050565b6000610aa382610e41565b610aad8185610e75565b9350610abd818560208601610fab565b80840191505092915050565b610ad281610f66565b82525050565b6000610ae382610e4c565b610aed8185610e80565b9350610afd818560208601610fab565b610b068161109d565b840191505092915050565b6000610b1c82610e4c565b610b268185610e91565b9350610b36818560208601610fab565b610b3f8161109d565b840191505092915050565b6000610b57601483610e91565b91507f4661696c656420746f2073656e642045746865720000000000000000000000006000830152602082019050919050565b6000610b97601983610e91565b91507f436f6e747261637420657865637574696f6e204661696c6564000000000000006000830152602082019050919050565b6000610bd7600083610e75565b9150600082019050919050565b600060c083016000830151610bfc6000860182610a05565b506020830151610c0f6020860182610a05565b506040830151610c226040860182610c74565b5060608301518482036060860152610c3a8282610ad8565b9150506080830151610c4f6080860182610c74565b5060a083015184820360a0860152610c678282610ad8565b9150508091505092915050565b610c7d81610f4a565b82525050565b610c8c81610f4a565b82525050565b6000610c9e8284610a98565b915081905092915050565b6000610cb482610bca565b9150819050919050565b600060c082019050610cd36000830189610a14565b610ce060208301886109f6565b610ced6040830187610c83565b8181036060830152610cff8186610b11565b9050610d0e6080830185610c83565b81810360a0830152610d208184610b11565b9050979650505050505050565b60006020820190508181036000830152610d478184610a23565b905092915050565b6000602082019050610d646000830184610ac9565b92915050565b60006020820190508181036000830152610d8381610b4a565b9050919050565b60006020820190508181036000830152610da381610b8a565b9050919050565b6000602082019050610dbf6000830184610c83565b92915050565b6000604051905081810181811067ffffffffffffffff82111715610dec57610deb61106e565b5b8060405250919050565b600067ffffffffffffffff821115610e1157610e1061106e565b5b601f19601f8301169050602081019050919050565b6000819050602082019050919050565b600081519050919050565b600081519050919050565b600081519050919050565b6000602082019050919050565b600082825260208201905092915050565b600081905092915050565b600082825260208201905092915050565b600082825260208201905092915050565b6000610ead82610f4a565b9150610eb883610f4a565b9250827fffffffffffffffffffffffffffffffffffffffffffffffffffffffffffffffff03821115610eed57610eec611010565b5b828201905092915050565b6000610f0382610f2a565b9050919050565b6000610f1582610f2a565b9050919050565b600061ffff82169050919050565b600073ffffffffffffffffffffffffffffffffffffffff82169050919050565b6000819050919050565b6000610f5f82610f78565b9050919050565b6000610f7182610f1c565b9050919050565b6000610f8382610f8a565b9050919050565b6000610f9582610f2a565b9050919050565b82818337600083830152505050565b60005b83811015610fc9578082015181840152602081019050610fae565b83811115610fd8576000848401525b50505050565b60006002820490506001821680610ff657607f821691505b6020821081141561100a5761100961103f565b5b50919050565b7f4e487b7100000000000000000000000000000000000000000000000000000000600052601160045260246000fd5b7f4e487b7100000000000000000000000000000000000000000000000000000000600052602260045260246000fd5b7f4e487b7100000000000000000000000000000000000000000000000000000000600052604160045260246000fd5b6000601f19601f8301169050919050565b6110b781610f0a565b81146110c257600080fd5b50565b6110ce81610f4a565b81146110d957600080fd5b5056fea2646970667358221220add68f741ace0d3764a5a414cd4e94be27a4cfb6937f406b751b508008ecf46a64736f6c63430008000033",
  "linkReferences": {},
  "deployedLinkReferences": {}
}